{
  "contractName": "BaseWarrantySmartContract",
  "abi": [
    {
      "inputs": [
        {
          "internalType": "uint256",
          "name": "_warrantyExpirationDate",
          "type": "uint256"
        },
        {
          "internalType": "bool",
          "name": "_warrantyExpires",
          "type": "bool"
        },
        {
          "internalType": "uint256",
          "name": "_numberOfDaysToCorrect",
          "type": "uint256"
        },
        {
          "internalType": "uint256",
          "name": "_workCompleted",
          "type": "uint256"
        },
        {
          "internalType": "string",
          "name": "_projectName",
          "type": "string"
        },
        {
          "internalType": "string",
          "name": "_description",
          "type": "string"
        },
        {
          "internalType": "bool",
          "name": "_transferable",
          "type": "bool"
        },
        {
          "components": [
            {
              "internalType": "string",
              "name": "name",
              "type": "string"
            },
            {
              "internalType": "address payable",
              "name": "partyAddress",
              "type": "address"
            },
            {
              "components": [
                {
                  "internalType": "string",
                  "name": "streetAddressLine1",
                  "type": "string"
                },
                {
                  "internalType": "string",
                  "name": "streetAddressLine2",
                  "type": "string"
                },
                {
                  "internalType": "string",
                  "name": "city",
                  "type": "string"
                },
                {
                  "internalType": "string",
                  "name": "state",
                  "type": "string"
                },
                {
                  "internalType": "string",
                  "name": "postalCode",
                  "type": "string"
                }
              ],
              "internalType": "struct BaseWarrantySmartContract.Location",
              "name": "physicalLocation",
              "type": "tuple"
            },
            {
              "components": [
                {
                  "internalType": "string",
                  "name": "email",
                  "type": "string"
                },
                {
                  "internalType": "string",
                  "name": "phoneMobile",
                  "type": "string"
                },
                {
                  "internalType": "string",
                  "name": "phoneHome",
                  "type": "string"
                }
              ],
              "internalType": "struct BaseWarrantySmartContract.ContactInformation",
              "name": "contactInfo",
              "type": "tuple"
            }
          ],
          "internalType": "struct BaseWarrantySmartContract.Party",
          "name": "_warrantyProvider",
          "type": "tuple"
        },
        {
          "components": [
            {
              "internalType": "string",
              "name": "name",
              "type": "string"
            },
            {
              "internalType": "address payable",
              "name": "partyAddress",
              "type": "address"
            },
            {
              "components": [
                {
                  "internalType": "string",
                  "name": "streetAddressLine1",
                  "type": "string"
                },
                {
                  "internalType": "string",
                  "name": "streetAddressLine2",
                  "type": "string"
                },
                {
                  "internalType": "string",
                  "name": "city",
                  "type": "string"
                },
                {
                  "internalType": "string",
                  "name": "state",
                  "type": "string"
                },
                {
                  "internalType": "string",
                  "name": "postalCode",
                  "type": "string"
                }
              ],
              "internalType": "struct BaseWarrantySmartContract.Location",
              "name": "physicalLocation",
              "type": "tuple"
            },
            {
              "components": [
                {
                  "internalType": "string",
                  "name": "email",
                  "type": "string"
                },
                {
                  "internalType": "string",
                  "name": "phoneMobile",
                  "type": "string"
                },
                {
                  "internalType": "string",
                  "name": "phoneHome",
                  "type": "string"
                }
              ],
              "internalType": "struct BaseWarrantySmartContract.ContactInformation",
              "name": "contactInfo",
              "type": "tuple"
            }
          ],
          "internalType": "struct BaseWarrantySmartContract.Party",
          "name": "_warrantyHolder",
          "type": "tuple"
        },
        {
          "components": [
            {
              "internalType": "string",
              "name": "streetAddressLine1",
              "type": "string"
            },
            {
              "internalType": "string",
              "name": "streetAddressLine2",
              "type": "string"
            },
            {
              "internalType": "string",
              "name": "city",
              "type": "string"
            },
            {
              "internalType": "string",
              "name": "state",
              "type": "string"
            },
            {
              "internalType": "string",
              "name": "postalCode",
              "type": "string"
            }
          ],
          "internalType": "struct BaseWarrantySmartContract.Location",
          "name": "_location",
          "type": "tuple"
        }
      ],
      "stateMutability": "nonpayable",
      "type": "constructor"
    },
    {
      "anonymous": false,
      "inputs": [
        {
          "components": [
            {
              "internalType": "string",
              "name": "name",
              "type": "string"
            },
            {
              "internalType": "address payable",
              "name": "partyAddress",
              "type": "address"
            },
            {
              "components": [
                {
                  "internalType": "string",
                  "name": "streetAddressLine1",
                  "type": "string"
                },
                {
                  "internalType": "string",
                  "name": "streetAddressLine2",
                  "type": "string"
                },
                {
                  "internalType": "string",
                  "name": "city",
                  "type": "string"
                },
                {
                  "internalType": "string",
                  "name": "state",
                  "type": "string"
                },
                {
                  "internalType": "string",
                  "name": "postalCode",
                  "type": "string"
                }
              ],
              "internalType": "struct BaseWarrantySmartContract.Location",
              "name": "physicalLocation",
              "type": "tuple"
            },
            {
              "components": [
                {
                  "internalType": "string",
                  "name": "email",
                  "type": "string"
                },
                {
                  "internalType": "string",
                  "name": "phoneMobile",
                  "type": "string"
                },
                {
                  "internalType": "string",
                  "name": "phoneHome",
                  "type": "string"
                }
              ],
              "internalType": "struct BaseWarrantySmartContract.ContactInformation",
              "name": "contactInfo",
              "type": "tuple"
            }
          ],
          "indexed": false,
          "internalType": "struct BaseWarrantySmartContract.Party",
          "name": "_newOwner",
          "type": "tuple"
        }
      ],
      "name": "CurrentHolderChanged",
      "type": "event"
    },
    {
      "anonymous": false,
      "inputs": [
        {
          "indexed": false,
          "internalType": "string",
          "name": "_message",
          "type": "string"
        }
      ],
      "name": "WarrantyStateChanged",
      "type": "event"
    },
    {
      "inputs": [],
      "name": "dateOfWorkCompletion",
      "outputs": [
        {
          "internalType": "uint256",
          "name": "",
          "type": "uint256"
        }
      ],
      "stateMutability": "view",
      "type": "function"
    },
    {
      "inputs": [],
      "name": "descriptionOfProject",
      "outputs": [
        {
          "internalType": "string",
          "name": "",
          "type": "string"
        }
      ],
      "stateMutability": "view",
      "type": "function"
    },
    {
      "inputs": [],
      "name": "isTransferable",
      "outputs": [
        {
          "internalType": "bool",
          "name": "",
          "type": "bool"
        }
      ],
      "stateMutability": "view",
      "type": "function"
    },
    {
      "inputs": [],
      "name": "locationOfWork",
      "outputs": [
        {
          "internalType": "string",
          "name": "streetAddressLine1",
          "type": "string"
        },
        {
          "internalType": "string",
          "name": "streetAddressLine2",
          "type": "string"
        },
        {
          "internalType": "string",
          "name": "city",
          "type": "string"
        },
        {
          "internalType": "string",
          "name": "state",
          "type": "string"
        },
        {
          "internalType": "string",
          "name": "postalCode",
          "type": "string"
        }
      ],
      "stateMutability": "view",
      "type": "function"
    },
    {
      "inputs": [],
      "name": "numberOfDaysToCorrect",
      "outputs": [
        {
          "internalType": "uint256",
          "name": "",
          "type": "uint256"
        }
      ],
      "stateMutability": "view",
      "type": "function"
    },
    {
      "inputs": [],
      "name": "projectName",
      "outputs": [
        {
          "internalType": "string",
          "name": "",
          "type": "string"
        }
      ],
      "stateMutability": "view",
      "type": "function"
    },
    {
      "inputs": [],
      "name": "stateOfWarranty",
      "outputs": [
        {
          "internalType": "enum BaseWarrantySmartContract.WarrantyState",
          "name": "",
          "type": "uint8"
        }
      ],
      "stateMutability": "view",
      "type": "function"
    },
    {
      "inputs": [],
      "name": "warrantyExpirationDate",
      "outputs": [
        {
          "internalType": "uint256",
          "name": "",
          "type": "uint256"
        }
      ],
      "stateMutability": "view",
      "type": "function"
    },
    {
      "inputs": [],
      "name": "warrantyExpires",
      "outputs": [
        {
          "internalType": "bool",
          "name": "",
          "type": "bool"
        }
      ],
      "stateMutability": "view",
      "type": "function"
    },
    {
      "inputs": [],
      "name": "warrantyProvider",
      "outputs": [
        {
          "internalType": "string",
          "name": "name",
          "type": "string"
        },
        {
          "internalType": "address payable",
          "name": "partyAddress",
          "type": "address"
        },
        {
          "components": [
            {
              "internalType": "string",
              "name": "streetAddressLine1",
              "type": "string"
            },
            {
              "internalType": "string",
              "name": "streetAddressLine2",
              "type": "string"
            },
            {
              "internalType": "string",
              "name": "city",
              "type": "string"
            },
            {
              "internalType": "string",
              "name": "state",
              "type": "string"
            },
            {
              "internalType": "string",
              "name": "postalCode",
              "type": "string"
            }
          ],
          "internalType": "struct BaseWarrantySmartContract.Location",
          "name": "physicalLocation",
          "type": "tuple"
        },
        {
          "components": [
            {
              "internalType": "string",
              "name": "email",
              "type": "string"
            },
            {
              "internalType": "string",
              "name": "phoneMobile",
              "type": "string"
            },
            {
              "internalType": "string",
              "name": "phoneHome",
              "type": "string"
            }
          ],
          "internalType": "struct BaseWarrantySmartContract.ContactInformation",
          "name": "contactInfo",
          "type": "tuple"
        }
      ],
      "stateMutability": "view",
      "type": "function"
    },
    {
      "inputs": [],
      "name": "warrantyStartDate",
      "outputs": [
        {
          "internalType": "uint256",
          "name": "",
          "type": "uint256"
        }
      ],
      "stateMutability": "view",
      "type": "function"
    },
    {
      "inputs": [
        {
          "internalType": "uint256",
          "name": "amountToEscrow",
          "type": "uint256"
        }
      ],
      "name": "depositToEscrow",
      "outputs": [],
      "stateMutability": "payable",
      "type": "function"
    },
    {
      "inputs": [],
      "name": "voidWarranty",
      "outputs": [],
      "stateMutability": "nonpayable",
      "type": "function"
    },
    {
      "inputs": [],
      "name": "warrantyBreached",
      "outputs": [],
      "stateMutability": "nonpayable",
      "type": "function"
    },
    {
      "inputs": [],
      "name": "checkIfExpired",
      "outputs": [
        {
          "internalType": "bool",
          "name": "",
          "type": "bool"
        }
      ],
      "stateMutability": "view",
      "type": "function"
    },
    {
      "inputs": [],
      "name": "getDaysUntilExpiration",
      "outputs": [
        {
          "internalType": "uint256",
          "name": "",
          "type": "uint256"
        }
      ],
      "stateMutability": "view",
      "type": "function"
    },
    {
      "inputs": [],
      "name": "getLocationAsString",
      "outputs": [
        {
          "internalType": "string",
          "name": "",
          "type": "string"
        }
      ],
      "stateMutability": "view",
      "type": "function"
    },
    {
      "inputs": [
        {
          "components": [
            {
              "internalType": "string",
              "name": "name",
              "type": "string"
            },
            {
              "internalType": "address payable",
              "name": "partyAddress",
              "type": "address"
            },
            {
              "components": [
                {
                  "internalType": "string",
                  "name": "streetAddressLine1",
                  "type": "string"
                },
                {
                  "internalType": "string",
                  "name": "streetAddressLine2",
                  "type": "string"
                },
                {
                  "internalType": "string",
                  "name": "city",
                  "type": "string"
                },
                {
                  "internalType": "string",
                  "name": "state",
                  "type": "string"
                },
                {
                  "internalType": "string",
                  "name": "postalCode",
                  "type": "string"
                }
              ],
              "internalType": "struct BaseWarrantySmartContract.Location",
              "name": "physicalLocation",
              "type": "tuple"
            },
            {
              "components": [
                {
                  "internalType": "string",
                  "name": "email",
                  "type": "string"
                },
                {
                  "internalType": "string",
                  "name": "phoneMobile",
                  "type": "string"
                },
                {
                  "internalType": "string",
                  "name": "phoneHome",
                  "type": "string"
                }
              ],
              "internalType": "struct BaseWarrantySmartContract.ContactInformation",
              "name": "contactInfo",
              "type": "tuple"
            }
          ],
          "internalType": "struct BaseWarrantySmartContract.Party",
          "name": "newParty",
          "type": "tuple"
        }
      ],
      "name": "transferWarrantyToAnotherParty",
      "outputs": [],
      "stateMutability": "nonpayable",
      "type": "function"
    },
    {
      "inputs": [],
      "name": "getPreviousHolders",
      "outputs": [
        {
          "components": [
            {
              "internalType": "string",
              "name": "name",
              "type": "string"
            },
            {
              "internalType": "address payable",
              "name": "partyAddress",
              "type": "address"
            },
            {
              "components": [
                {
                  "internalType": "string",
                  "name": "streetAddressLine1",
                  "type": "string"
                },
                {
                  "internalType": "string",
                  "name": "streetAddressLine2",
                  "type": "string"
                },
                {
                  "internalType": "string",
                  "name": "city",
                  "type": "string"
                },
                {
                  "internalType": "string",
                  "name": "state",
                  "type": "string"
                },
                {
                  "internalType": "string",
                  "name": "postalCode",
                  "type": "string"
                }
              ],
              "internalType": "struct BaseWarrantySmartContract.Location",
              "name": "physicalLocation",
              "type": "tuple"
            },
            {
              "components": [
                {
                  "internalType": "string",
                  "name": "email",
                  "type": "string"
                },
                {
                  "internalType": "string",
                  "name": "phoneMobile",
                  "type": "string"
                },
                {
                  "internalType": "string",
                  "name": "phoneHome",
                  "type": "string"
                }
              ],
              "internalType": "struct BaseWarrantySmartContract.ContactInformation",
              "name": "contactInfo",
              "type": "tuple"
            }
          ],
          "internalType": "struct BaseWarrantySmartContract.Party[]",
          "name": "",
          "type": "tuple[]"
        }
      ],
      "stateMutability": "view",
      "type": "function"
    },
    {
      "inputs": [],
      "name": "getEscrowBalance",
      "outputs": [
        {
          "internalType": "uint256",
          "name": "",
          "type": "uint256"
        }
      ],
      "stateMutability": "view",
      "type": "function"
    }
  ],
  "bytecode": "0x6101206040523480156200001257600080fd5b506040516200405938038062004059833981810160405281019062000038919062000a9b565b866080818152505042610100818152505088151560c0811515815250508960a081815250506001601d60006101000a81548160ff0219169083600381111562000086576200008562000c2c565b5b02179055508760e081815250508560159080519060200190620000ab92919062000483565b5084601c9080519060200190620000c492919062000483565b5082600a6000820151816000019080519060200190620000e692919062000483565b5060208201518160010160006101000a81548173ffffffffffffffffffffffffffffffffffffffff021916908373ffffffffffffffffffffffffffffffffffffffff16021790555060408201518160020160008201518160000190805190602001906200015592919062000483565b5060208201518160010190805190602001906200017492919062000483565b5060408201518160020190805190602001906200019392919062000483565b506060820151816003019080519060200190620001b292919062000483565b506080820151816004019080519060200190620001d192919062000483565b5050506060820151816007016000820151816000019080519060200190620001fb92919062000483565b5060208201518160010190805190602001906200021a92919062000483565b5060408201518160020190805190602001906200023992919062000483565b505050905050816000808201518160000190805190602001906200025f92919062000483565b5060208201518160010160006101000a81548173ffffffffffffffffffffffffffffffffffffffff021916908373ffffffffffffffffffffffffffffffffffffffff1602179055506040820151816002016000820151816000019080519060200190620002ce92919062000483565b506020820151816001019080519060200190620002ed92919062000483565b5060408201518160020190805190602001906200030c92919062000483565b5060608201518160030190805190602001906200032b92919062000483565b5060808201518160040190805190602001906200034a92919062000483565b50505060608201518160070160008201518160000190805190602001906200037492919062000483565b5060208201518160010190805190602001906200039392919062000483565b506040820151816002019080519060200190620003b292919062000483565b5050509050508060176000820151816000019080519060200190620003d992919062000483565b506020820151816001019080519060200190620003f892919062000483565b5060408201518160020190805190602001906200041792919062000483565b5060608201518160030190805190602001906200043692919062000483565b5060808201518160040190805190602001906200045592919062000483565b5090505083601660006101000a81548160ff0219169083151502179055505050505050505050505062000cbf565b828054620004919062000c8a565b90600052602060002090601f016020900481019282620004b5576000855562000501565b82601f10620004d057805160ff191683800117855562000501565b8280016001018555821562000501579182015b8281111562000500578251825591602001919060010190620004e3565b5b50905062000510919062000514565b5090565b5b808211156200052f57600081600090555060010162000515565b5090565b6000604051905090565b600080fd5b600080fd5b6000819050919050565b6200055c8162000547565b81146200056857600080fd5b50565b6000815190506200057c8162000551565b92915050565b60008115159050919050565b620005998162000582565b8114620005a557600080fd5b50565b600081519050620005b9816200058e565b92915050565b600080fd5b600080fd5b6000601f19601f8301169050919050565b7f4e487b7100000000000000000000000000000000000000000000000000000000600052604160045260246000fd5b6200061482620005c9565b810181811067ffffffffffffffff82111715620006365762000635620005da565b5b80604052505050565b60006200064b62000533565b905062000659828262000609565b919050565b600067ffffffffffffffff8211156200067c576200067b620005da565b5b6200068782620005c9565b9050602081019050919050565b60005b83811015620006b457808201518184015260208101905062000697565b83811115620006c4576000848401525b50505050565b6000620006e1620006db846200065e565b6200063f565b9050828152602081018484840111156200070057620006ff620005c4565b5b6200070d84828562000694565b509392505050565b600082601f8301126200072d576200072c620005bf565b5b81516200073f848260208601620006ca565b91505092915050565b600080fd5b600080fd5b600073ffffffffffffffffffffffffffffffffffffffff82169050919050565b60006200077f8262000752565b9050919050565b620007918162000772565b81146200079d57600080fd5b50565b600081519050620007b18162000786565b92915050565b600060a08284031215620007d057620007cf62000748565b5b620007dc60a06200063f565b9050600082015167ffffffffffffffff811115620007ff57620007fe6200074d565b5b6200080d8482850162000715565b600083015250602082015167ffffffffffffffff8111156200083457620008336200074d565b5b620008428482850162000715565b602083015250604082015167ffffffffffffffff8111156200086957620008686200074d565b5b620008778482850162000715565b604083015250606082015167ffffffffffffffff8111156200089e576200089d6200074d565b5b620008ac8482850162000715565b606083015250608082015167ffffffffffffffff811115620008d357620008d26200074d565b5b620008e18482850162000715565b60808301525092915050565b60006060828403121562000906576200090562000748565b5b6200091260606200063f565b9050600082015167ffffffffffffffff8111156200093557620009346200074d565b5b620009438482850162000715565b600083015250602082015167ffffffffffffffff8111156200096a57620009696200074d565b5b620009788482850162000715565b602083015250604082015167ffffffffffffffff8111156200099f576200099e6200074d565b5b620009ad8482850162000715565b60408301525092915050565b600060808284031215620009d257620009d162000748565b5b620009de60806200063f565b9050600082015167ffffffffffffffff81111562000a015762000a006200074d565b5b62000a0f8482850162000715565b600083015250602062000a2584828501620007a0565b602083015250604082015167ffffffffffffffff81111562000a4c5762000a4b6200074d565b5b62000a5a84828501620007b7565b604083015250606082015167ffffffffffffffff81111562000a815762000a806200074d565b5b62000a8f84828501620008ed565b60608301525092915050565b6000806000806000806000806000806101408b8d03121562000ac25762000ac16200053d565b5b600062000ad28d828e016200056b565b9a5050602062000ae58d828e01620005a8565b995050604062000af88d828e016200056b565b985050606062000b0b8d828e016200056b565b97505060808b015167ffffffffffffffff81111562000b2f5762000b2e62000542565b5b62000b3d8d828e0162000715565b96505060a08b015167ffffffffffffffff81111562000b615762000b6062000542565b5b62000b6f8d828e0162000715565b95505060c062000b828d828e01620005a8565b94505060e08b015167ffffffffffffffff81111562000ba65762000ba562000542565b5b62000bb48d828e01620009b9565b9350506101008b015167ffffffffffffffff81111562000bd95762000bd862000542565b5b62000be78d828e01620009b9565b9250506101208b015167ffffffffffffffff81111562000c0c5762000c0b62000542565b5b62000c1a8d828e01620007b7565b9150509295989b9194979a5092959850565b7f4e487b7100000000000000000000000000000000000000000000000000000000600052602160045260246000fd5b7f4e487b7100000000000000000000000000000000000000000000000000000000600052602260045260246000fd5b6000600282049050600182168062000ca357607f821691505b60208210810362000cb95762000cb862000c5b565b5b50919050565b60805160a05160c05160e0516101005161334062000d19600039600061099301526000611bb40152600081816109d00152610dcf0152600081816109f601528181611b880152611bfe0152600061096f01526133406000f3fe60806040526004361061011f5760003560e01c80639a33e300116100a0578063c56e610e11610064578063c56e610e14610386578063cf561a21146103b1578063d89998cf146103dc578063daa41e7014610407578063dbae9bca146104235761011f565b80639a33e300146102c0578063a02cc585146102eb578063a7394b2814610302578063b395fed614610330578063c2c967c91461035b5761011f565b80632daf311b116100e75780632daf311b146101e55780634a60886114610210578063645461f51461023b5780636c51cd721461026657806398c5aafe146102955761011f565b80630851fa321461012457806309f174c31461013b5780631798c6c9146101645780631a8a3a401461018f5780632121dc75146101ba575b600080fd5b34801561013057600080fd5b5061013961044e565b005b34801561014757600080fd5b50610162600480360381019061015d9190612406565b610559565b005b34801561017057600080fd5b5061017961096d565b6040516101869190612468565b60405180910390f35b34801561019b57600080fd5b506101a4610991565b6040516101b19190612468565b60405180910390f35b3480156101c657600080fd5b506101cf6109b5565b6040516101dc919061249e565b60405180910390f35b3480156101f157600080fd5b506101fa6109c8565b604051610207919061249e565b60405180910390f35b34801561021c57600080fd5b50610225610a30565b6040516102329190612541565b60405180910390f35b34801561024757600080fd5b50610250610a73565b60405161025d9190612541565b60405180910390f35b34801561027257600080fd5b5061027b610b01565b60405161028c959493929190612563565b60405180910390f35b3480156102a157600080fd5b506102aa610dcd565b6040516102b7919061249e565b60405180910390f35b3480156102cc57600080fd5b506102d5610df1565b6040516102e29190612541565b60405180910390f35b3480156102f757600080fd5b50610300610e7f565b005b34801561030e57600080fd5b50610317610f8a565b6040516103279493929190612722565b60405180910390f35b34801561033c57600080fd5b506103456114f4565b60405161035291906129ae565b60405180910390f35b34801561036757600080fd5b50610370611b86565b60405161037d9190612468565b60405180910390f35b34801561039257600080fd5b5061039b611baa565b6040516103a89190612468565b60405180910390f35b3480156103bd57600080fd5b506103c6611bb2565b6040516103d39190612468565b60405180910390f35b3480156103e857600080fd5b506103f1611bd6565b6040516103fe9190612468565b60405180910390f35b610421600480360381019061041c91906129fc565b611c34565b005b34801561042f57600080fd5b50610438611c43565b6040516104459190612aa0565b60405180910390f35b6001600381111561046257610461612a29565b5b601d60009054906101000a900460ff16600381111561048457610483612a29565b5b146104c4576040517f08c379a00000000000000000000000000000000000000000000000000000000081526004016104bb90612b2d565b60405180910390fd5b6003601d60006101000a81548160ff021916908360038111156104ea576104e9612a29565b5b02179055507f4db348fedee9cf7039c9d89a90031a2f7b796555744308762b0e804b9bffc270601561051a610a30565b60405160200161052b929190612d61565b6040516020818303038152906040526040516105479190612541565b60405180910390a1610557611c56565b565b600060010160009054906101000a900473ffffffffffffffffffffffffffffffffffffffff1673ffffffffffffffffffffffffffffffffffffffff163373ffffffffffffffffffffffffffffffffffffffff16146105ec576040517f08c379a00000000000000000000000000000000000000000000000000000000081526004016105e390612e18565b60405180910390fd5b601660009054906101000a900460ff161561096a576014600090806001815401808255809150506001900390600052602060002090600a0201600090919091909150600082018160000190805461064290612bd3565b61064d929190611e78565b506001820160009054906101000a900473ffffffffffffffffffffffffffffffffffffffff168160010160006101000a81548173ffffffffffffffffffffffffffffffffffffffff021916908373ffffffffffffffffffffffffffffffffffffffff160217905550600282018160020160008201816000019080546106d190612bd3565b6106dc929190611e78565b5060018201816001019080546106f190612bd3565b6106fc929190611e78565b50600282018160020190805461071190612bd3565b61071c929190611e78565b50600382018160030190805461073190612bd3565b61073c929190611e78565b50600482018160040190805461075190612bd3565b61075c929190611e78565b5050506007820181600701600082018160000190805461077b90612bd3565b610786929190611e78565b50600182018160010190805461079b90612bd3565b6107a6929190611e78565b5060028201816002019080546107bb90612bd3565b6107c6929190611e78565b5050505050806000808201518160000190805190602001906107e9929190611f05565b5060208201518160010160006101000a81548173ffffffffffffffffffffffffffffffffffffffff021916908373ffffffffffffffffffffffffffffffffffffffff1602179055506040820151816002016000820151816000019080519060200190610856929190611f05565b506020820151816001019080519060200190610873929190611f05565b506040820151816002019080519060200190610890929190611f05565b5060608201518160030190805190602001906108ad929190611f05565b5060808201518160040190805190602001906108ca929190611f05565b50505060608201518160070160008201518160000190805190602001906108f2929190611f05565b50602082015181600101908051906020019061090f929190611f05565b50604082015181600201908051906020019061092c929190611f05565b5050509050507fe8176a51a789da4605a6bf9fc8146fdf034b0181042080626b1696e121821245816040516109619190612ea9565b60405180910390a15b50565b7f000000000000000000000000000000000000000000000000000000000000000081565b7f000000000000000000000000000000000000000000000000000000000000000081565b601660009054906101000a900460ff1681565b6000804290507f000000000000000000000000000000000000000000000000000000000000000015610a27577f0000000000000000000000000000000000000000000000000000000000000000811115610a26576001915050610a2d565b5b60009150505b90565b606060176000016017600101601760020160176003016017600401604051602001610a5f959493929190612f63565b604051602081830303815290604052905090565b601c8054610a8090612bd3565b80601f0160208091040260200160405190810160405280929190818152602001828054610aac90612bd3565b8015610af95780601f10610ace57610100808354040283529160200191610af9565b820191906000526020600020905b815481529060010190602001808311610adc57829003601f168201915b505050505081565b6017806000018054610b1290612bd3565b80601f0160208091040260200160405190810160405280929190818152602001828054610b3e90612bd3565b8015610b8b5780601f10610b6057610100808354040283529160200191610b8b565b820191906000526020600020905b815481529060010190602001808311610b6e57829003601f168201915b505050505090806001018054610ba090612bd3565b80601f0160208091040260200160405190810160405280929190818152602001828054610bcc90612bd3565b8015610c195780601f10610bee57610100808354040283529160200191610c19565b820191906000526020600020905b815481529060010190602001808311610bfc57829003601f168201915b505050505090806002018054610c2e90612bd3565b80601f0160208091040260200160405190810160405280929190818152602001828054610c5a90612bd3565b8015610ca75780601f10610c7c57610100808354040283529160200191610ca7565b820191906000526020600020905b815481529060010190602001808311610c8a57829003601f168201915b505050505090806003018054610cbc90612bd3565b80601f0160208091040260200160405190810160405280929190818152602001828054610ce890612bd3565b8015610d355780601f10610d0a57610100808354040283529160200191610d35565b820191906000526020600020905b815481529060010190602001808311610d1857829003601f168201915b505050505090806004018054610d4a90612bd3565b80601f0160208091040260200160405190810160405280929190818152602001828054610d7690612bd3565b8015610dc35780601f10610d9857610100808354040283529160200191610dc3565b820191906000526020600020905b815481529060010190602001808311610da657829003601f168201915b5050505050905085565b7f000000000000000000000000000000000000000000000000000000000000000081565b60158054610dfe90612bd3565b80601f0160208091040260200160405190810160405280929190818152602001828054610e2a90612bd3565b8015610e775780601f10610e4c57610100808354040283529160200191610e77565b820191906000526020600020905b815481529060010190602001808311610e5a57829003601f168201915b505050505081565b60016003811115610e9357610e92612a29565b5b601d60009054906101000a900460ff166003811115610eb557610eb4612a29565b5b14610ef5576040517f08c379a0000000000000000000000000000000000000000000000000000000008152600401610eec90612b2d565b60405180910390fd5b6002601d60006101000a81548160ff02191690836003811115610f1b57610f1a612a29565b5b02179055507f4db348fedee9cf7039c9d89a90031a2f7b796555744308762b0e804b9bffc2706015610f4b610a30565b604051602001610f5c929190613026565b604051602081830303815290604052604051610f789190612541565b60405180910390a1610f88611d39565b565b600a806000018054610f9b90612bd3565b80601f0160208091040260200160405190810160405280929190818152602001828054610fc790612bd3565b80156110145780601f10610fe957610100808354040283529160200191611014565b820191906000526020600020905b815481529060010190602001808311610ff757829003601f168201915b5050505050908060010160009054906101000a900473ffffffffffffffffffffffffffffffffffffffff1690806002016040518060a001604052908160008201805461105f90612bd3565b80601f016020809104026020016040519081016040528092919081815260200182805461108b90612bd3565b80156110d85780601f106110ad576101008083540402835291602001916110d8565b820191906000526020600020905b8154815290600101906020018083116110bb57829003601f168201915b505050505081526020016001820180546110f190612bd3565b80601f016020809104026020016040519081016040528092919081815260200182805461111d90612bd3565b801561116a5780601f1061113f5761010080835404028352916020019161116a565b820191906000526020600020905b81548152906001019060200180831161114d57829003601f168201915b5050505050815260200160028201805461118390612bd3565b80601f01602080910402602001604051908101604052809291908181526020018280546111af90612bd3565b80156111fc5780601f106111d1576101008083540402835291602001916111fc565b820191906000526020600020905b8154815290600101906020018083116111df57829003601f168201915b5050505050815260200160038201805461121590612bd3565b80601f016020809104026020016040519081016040528092919081815260200182805461124190612bd3565b801561128e5780601f106112635761010080835404028352916020019161128e565b820191906000526020600020905b81548152906001019060200180831161127157829003601f168201915b505050505081526020016004820180546112a790612bd3565b80601f01602080910402602001604051908101604052809291908181526020018280546112d390612bd3565b80156113205780601f106112f557610100808354040283529160200191611320565b820191906000526020600020905b81548152906001019060200180831161130357829003601f168201915b505050505081525050908060070160405180606001604052908160008201805461134990612bd3565b80601f016020809104026020016040519081016040528092919081815260200182805461137590612bd3565b80156113c25780601f10611397576101008083540402835291602001916113c2565b820191906000526020600020905b8154815290600101906020018083116113a557829003601f168201915b505050505081526020016001820180546113db90612bd3565b80601f016020809104026020016040519081016040528092919081815260200182805461140790612bd3565b80156114545780601f1061142957610100808354040283529160200191611454565b820191906000526020600020905b81548152906001019060200180831161143757829003601f168201915b5050505050815260200160028201805461146d90612bd3565b80601f016020809104026020016040519081016040528092919081815260200182805461149990612bd3565b80156114e65780601f106114bb576101008083540402835291602001916114e6565b820191906000526020600020905b8154815290600101906020018083116114c957829003601f168201915b505050505081525050905084565b6060600a60010160009054906101000a900473ffffffffffffffffffffffffffffffffffffffff1673ffffffffffffffffffffffffffffffffffffffff163373ffffffffffffffffffffffffffffffffffffffff1614611589576040517f08c379a0000000000000000000000000000000000000000000000000000000008152600401611580906130dd565b60405180910390fd5b6014805480602002602001604051908101604052809291908181526020016000905b82821015611b7d57838290600052602060002090600a02016040518060800160405290816000820180546115de90612bd3565b80601f016020809104026020016040519081016040528092919081815260200182805461160a90612bd3565b80156116575780601f1061162c57610100808354040283529160200191611657565b820191906000526020600020905b81548152906001019060200180831161163a57829003601f168201915b505050505081526020016001820160009054906101000a900473ffffffffffffffffffffffffffffffffffffffff1673ffffffffffffffffffffffffffffffffffffffff1673ffffffffffffffffffffffffffffffffffffffff168152602001600282016040518060a00160405290816000820180546116d690612bd3565b80601f016020809104026020016040519081016040528092919081815260200182805461170290612bd3565b801561174f5780601f106117245761010080835404028352916020019161174f565b820191906000526020600020905b81548152906001019060200180831161173257829003601f168201915b5050505050815260200160018201805461176890612bd3565b80601f016020809104026020016040519081016040528092919081815260200182805461179490612bd3565b80156117e15780601f106117b6576101008083540402835291602001916117e1565b820191906000526020600020905b8154815290600101906020018083116117c457829003601f168201915b505050505081526020016002820180546117fa90612bd3565b80601f016020809104026020016040519081016040528092919081815260200182805461182690612bd3565b80156118735780601f1061184857610100808354040283529160200191611873565b820191906000526020600020905b81548152906001019060200180831161185657829003601f168201915b5050505050815260200160038201805461188c90612bd3565b80601f01602080910402602001604051908101604052809291908181526020018280546118b890612bd3565b80156119055780601f106118da57610100808354040283529160200191611905565b820191906000526020600020905b8154815290600101906020018083116118e857829003601f168201915b5050505050815260200160048201805461191e90612bd3565b80601f016020809104026020016040519081016040528092919081815260200182805461194a90612bd3565b80156119975780601f1061196c57610100808354040283529160200191611997565b820191906000526020600020905b81548152906001019060200180831161197a57829003601f168201915b5050505050815250508152602001600782016040518060600160405290816000820180546119c490612bd3565b80601f01602080910402602001604051908101604052809291908181526020018280546119f090612bd3565b8015611a3d5780601f10611a1257610100808354040283529160200191611a3d565b820191906000526020600020905b815481529060010190602001808311611a2057829003601f168201915b50505050508152602001600182018054611a5690612bd3565b80601f0160208091040260200160405190810160405280929190818152602001828054611a8290612bd3565b8015611acf5780601f10611aa457610100808354040283529160200191611acf565b820191906000526020600020905b815481529060010190602001808311611ab257829003601f168201915b50505050508152602001600282018054611ae890612bd3565b80601f0160208091040260200160405190810160405280929190818152602001828054611b1490612bd3565b8015611b615780601f10611b3657610100808354040283529160200191611b61565b820191906000526020600020905b815481529060010190602001808311611b4457829003601f168201915b50505050508152505081525050815260200190600101906115ab565b50505050905090565b7f000000000000000000000000000000000000000000000000000000000000000081565b600047905090565b7f000000000000000000000000000000000000000000000000000000000000000081565b600080611be16109c8565b90508015611bf3576000915050611c31565b6000429050611c2c817f0000000000000000000000000000000000000000000000000000000000000000611c27919061312c565b611e5b565b925050505b90565b803414611c4057600080fd5b50565b601d60009054906101000a900460ff1681565b600380811115611c6957611c68612a29565b5b601d60009054906101000a900460ff166003811115611c8b57611c8a612a29565b5b14611ccb576040517f08c379a0000000000000000000000000000000000000000000000000000000008152600401611cc2906131d2565b60405180910390fd5b600060010160009054906101000a900473ffffffffffffffffffffffffffffffffffffffff1673ffffffffffffffffffffffffffffffffffffffff166108fc479081150290604051600060405180830381858888f19350505050158015611d36573d6000803e3d6000fd5b50565b60006003811115611d4d57611d4c612a29565b5b601d60009054906101000a900460ff166003811115611d6f57611d6e612a29565b5b1480611dae575060026003811115611d8a57611d89612a29565b5b601d60009054906101000a900460ff166003811115611dac57611dab612a29565b5b145b611ded576040517f08c379a0000000000000000000000000000000000000000000000000000000008152600401611de49061328a565b60405180910390fd5b600a60010160009054906101000a900473ffffffffffffffffffffffffffffffffffffffff1673ffffffffffffffffffffffffffffffffffffffff166108fc479081150290604051600060405180830381858888f19350505050158015611e58573d6000803e3d6000fd5b50565b6000806201518090508083611e7091906132d9565b915050919050565b828054611e8490612bd3565b90600052602060002090601f016020900481019282611ea65760008555611ef4565b82601f10611eb75780548555611ef4565b82800160010185558215611ef457600052602060002091601f016020900482015b82811115611ef3578254825591600101919060010190611ed8565b5b509050611f019190611f8b565b5090565b828054611f1190612bd3565b90600052602060002090601f016020900481019282611f335760008555611f7a565b82601f10611f4c57805160ff1916838001178555611f7a565b82800160010185558215611f7a579182015b82811115611f79578251825591602001919060010190611f5e565b5b509050611f879190611f8b565b5090565b5b80821115611fa4576000816000905550600101611f8c565b5090565b6000604051905090565b600080fd5b600080fd5b600080fd5b6000601f19601f8301169050919050565b7f4e487b7100000000000000000000000000000000000000000000000000000000600052604160045260246000fd5b61200a82611fc1565b810181811067ffffffffffffffff8211171561202957612028611fd2565b5b80604052505050565b600061203c611fa8565b90506120488282612001565b919050565b600080fd5b600080fd5b600080fd5b600067ffffffffffffffff82111561207757612076611fd2565b5b61208082611fc1565b9050602081019050919050565b82818337600083830152505050565b60006120af6120aa8461205c565b612032565b9050828152602081018484840111156120cb576120ca612057565b5b6120d684828561208d565b509392505050565b600082601f8301126120f3576120f2612052565b5b813561210384826020860161209c565b91505092915050565b600073ffffffffffffffffffffffffffffffffffffffff82169050919050565b60006121378261210c565b9050919050565b6121478161212c565b811461215257600080fd5b50565b6000813590506121648161213e565b92915050565b600060a082840312156121805761217f611fbc565b5b61218a60a0612032565b9050600082013567ffffffffffffffff8111156121aa576121a961204d565b5b6121b6848285016120de565b600083015250602082013567ffffffffffffffff8111156121da576121d961204d565b5b6121e6848285016120de565b602083015250604082013567ffffffffffffffff81111561220a5761220961204d565b5b612216848285016120de565b604083015250606082013567ffffffffffffffff81111561223a5761223961204d565b5b612246848285016120de565b606083015250608082013567ffffffffffffffff81111561226a5761226961204d565b5b612276848285016120de565b60808301525092915050565b60006060828403121561229857612297611fbc565b5b6122a26060612032565b9050600082013567ffffffffffffffff8111156122c2576122c161204d565b5b6122ce848285016120de565b600083015250602082013567ffffffffffffffff8111156122f2576122f161204d565b5b6122fe848285016120de565b602083015250604082013567ffffffffffffffff8111156123225761232161204d565b5b61232e848285016120de565b60408301525092915050565b6000608082840312156123505761234f611fbc565b5b61235a6080612032565b9050600082013567ffffffffffffffff81111561237a5761237961204d565b5b612386848285016120de565b600083015250602061239a84828501612155565b602083015250604082013567ffffffffffffffff8111156123be576123bd61204d565b5b6123ca8482850161216a565b604083015250606082013567ffffffffffffffff8111156123ee576123ed61204d565b5b6123fa84828501612282565b60608301525092915050565b60006020828403121561241c5761241b611fb2565b5b600082013567ffffffffffffffff81111561243a57612439611fb7565b5b6124468482850161233a565b91505092915050565b6000819050919050565b6124628161244f565b82525050565b600060208201905061247d6000830184612459565b92915050565b60008115159050919050565b61249881612483565b82525050565b60006020820190506124b3600083018461248f565b92915050565b600081519050919050565b600082825260208201905092915050565b60005b838110156124f35780820151818401526020810190506124d8565b83811115612502576000848401525b50505050565b6000612513826124b9565b61251d81856124c4565b935061252d8185602086016124d5565b61253681611fc1565b840191505092915050565b6000602082019050818103600083015261255b8184612508565b905092915050565b600060a082019050818103600083015261257d8188612508565b905081810360208301526125918187612508565b905081810360408301526125a58186612508565b905081810360608301526125b98185612508565b905081810360808301526125cd8184612508565b90509695505050505050565b6125e28161212c565b82525050565b600082825260208201905092915050565b6000612604826124b9565b61260e81856125e8565b935061261e8185602086016124d5565b61262781611fc1565b840191505092915050565b600060a083016000830151848203600086015261264f82826125f9565b9150506020830151848203602086015261266982826125f9565b9150506040830151848203604086015261268382826125f9565b9150506060830151848203606086015261269d82826125f9565b915050608083015184820360808601526126b782826125f9565b9150508091505092915050565b600060608301600083015184820360008601526126e182826125f9565b915050602083015184820360208601526126fb82826125f9565b9150506040830151848203604086015261271582826125f9565b9150508091505092915050565b6000608082019050818103600083015261273c8187612508565b905061274b60208301866125d9565b818103604083015261275d8185612632565b9050818103606083015261277181846126c4565b905095945050505050565b600081519050919050565b600082825260208201905092915050565b6000819050602082019050919050565b6127b18161212c565b82525050565b600060a08301600083015184820360008601526127d482826125f9565b915050602083015184820360208601526127ee82826125f9565b9150506040830151848203604086015261280882826125f9565b9150506060830151848203606086015261282282826125f9565b9150506080830151848203608086015261283c82826125f9565b9150508091505092915050565b6000606083016000830151848203600086015261286682826125f9565b9150506020830151848203602086015261288082826125f9565b9150506040830151848203604086015261289a82826125f9565b9150508091505092915050565b600060808301600083015184820360008601526128c482826125f9565b91505060208301516128d960208601826127a8565b50604083015184820360408601526128f182826127b7565b9150506060830151848203606086015261290b8282612849565b9150508091505092915050565b600061292483836128a7565b905092915050565b6000602082019050919050565b60006129448261277c565b61294e8185612787565b93508360208202850161296085612798565b8060005b8581101561299c578484038952815161297d8582612918565b94506129888361292c565b925060208a01995050600181019050612964565b50829750879550505050505092915050565b600060208201905081810360008301526129c88184612939565b905092915050565b6129d98161244f565b81146129e457600080fd5b50565b6000813590506129f6816129d0565b92915050565b600060208284031215612a1257612a11611fb2565b5b6000612a20848285016129e7565b91505092915050565b7f4e487b7100000000000000000000000000000000000000000000000000000000600052602160045260246000fd5b60048110612a6957612a68612a29565b5b50565b6000819050612a7a82612a58565b919050565b6000612a8a82612a6c565b9050919050565b612a9a81612a7f565b82525050565b6000602082019050612ab56000830184612a91565b92915050565b7f546869732066756e6374696f6e206d6179206f6e6c792062652075736564206960008201527f662074686520636f6e7472616374206973206163746976650000000000000000602082015250565b6000612b176038836124c4565b9150612b2282612abb565b604082019050919050565b60006020820190508181036000830152612b4681612b0a565b9050919050565b600081905092915050565b7f5468652077617272616e747920666f7220746865200000000000000000000000600082015250565b6000612b8e601583612b4d565b9150612b9982612b58565b601582019050919050565b7f4e487b7100000000000000000000000000000000000000000000000000000000600052602260045260246000fd5b60006002820490506001821680612beb57607f821691505b602082108103612bfe57612bfd612ba4565b5b50919050565b60008190508160005260206000209050919050565b60008154612c2681612bd3565b612c308186612b4d565b94506001821660008114612c4b5760018114612c5c57612c8f565b60ff19831686528186019350612c8f565b612c6585612c04565b60005b83811015612c8757815481890152600182019150602081019050612c68565b838801955050505b50505092915050565b7f2061742000000000000000000000000000000000000000000000000000000000600082015250565b6000612cce600483612b4d565b9150612cd982612c98565b600482019050919050565b6000612cef826124b9565b612cf98185612b4d565b9350612d098185602086016124d5565b80840191505092915050565b7f20686173206265656e2062726561636865640000000000000000000000000000600082015250565b6000612d4b601283612b4d565b9150612d5682612d15565b601282019050919050565b6000612d6c82612b81565b9150612d788285612c19565b9150612d8382612cc1565b9150612d8f8284612ce4565b9150612d9a82612d3e565b91508190509392505050565b7f546869732066756e6374696f6e206973207265737472696374656420746f207460008201527f686520636f6e7472616374277320686f6c646572000000000000000000000000602082015250565b6000612e026034836124c4565b9150612e0d82612da6565b604082019050919050565b60006020820190508181036000830152612e3181612df5565b9050919050565b60006080830160008301518482036000860152612e5582826125f9565b9150506020830151612e6a60208601826127a8565b5060408301518482036040860152612e8282826127b7565b91505060608301518482036060860152612e9c8282612849565b9150508091505092915050565b60006020820190508181036000830152612ec38184612e38565b905092915050565b7f2000000000000000000000000000000000000000000000000000000000000000600082015250565b6000612f01600183612b4d565b9150612f0c82612ecb565b600182019050919050565b7f2c20000000000000000000000000000000000000000000000000000000000000600082015250565b6000612f4d600283612b4d565b9150612f5882612f17565b600282019050919050565b6000612f6f8288612c19565b9150612f7a82612ef4565b9150612f868287612c19565b9150612f9182612ef4565b9150612f9d8286612c19565b9150612fa882612f40565b9150612fb48285612c19565b9150612fbf82612ef4565b9150612fcb8284612c19565b91508190509695505050505050565b7f20686173206265656e20766f6964656400000000000000000000000000000000600082015250565b6000613010601083612b4d565b915061301b82612fda565b601082019050919050565b600061303182612b81565b915061303d8285612c19565b915061304882612cc1565b91506130548284612ce4565b915061305f82613003565b91508190509392505050565b7f546869732066756e6374696f6e206973207265737472696374656420746f207460008201527f68652077617272616e747927732070726f766964657200000000000000000000602082015250565b60006130c76036836124c4565b91506130d28261306b565b604082019050919050565b600060208201905081810360008301526130f6816130ba565b9050919050565b7f4e487b7100000000000000000000000000000000000000000000000000000000600052601160045260246000fd5b60006131378261244f565b91506131428361244f565b925082821015613155576131546130fd565b5b828203905092915050565b7f546869732066756e6374696f6e206d6179206f6e6c792062652075736564206960008201527f662074686520636f6e7472616374206973206272656163686564000000000000602082015250565b60006131bc603a836124c4565b91506131c782613160565b604082019050919050565b600060208201905081810360008301526131eb816131af565b9050919050565b7f546869732066756e6374696f6e206d6179206f6e6c792062652075736564206960008201527f662074686520636f6e747261637420697320696e616374697665206f7220766f60208201527f6964656400000000000000000000000000000000000000000000000000000000604082015250565b60006132746044836124c4565b915061327f826131f2565b606082019050919050565b600060208201905081810360008301526132a381613267565b9050919050565b7f4e487b7100000000000000000000000000000000000000000000000000000000600052601260045260246000fd5b60006132e48261244f565b91506132ef8361244f565b9250826132ff576132fe6132aa565b5b82820490509291505056fea264697066735822122014ae849dd3c05ee4379ecad5e381ed020e8f1ea0fd65a4348d3f872eb5d5b68c64736f6c634300080d0033",
  "immutableReferences": {
    "49": [
      {
        "length": 32,
        "start": 2415
      }
    ],
    "51": [
      {
        "length": 32,
        "start": 2550
      },
      {
        "length": 32,
        "start": 7048
      },
      {
        "length": 32,
        "start": 7166
      }
    ],
    "53": [
      {
        "length": 32,
        "start": 2512
      },
      {
        "length": 32,
        "start": 3535
      }
    ],
    "55": [
      {
        "length": 32,
        "start": 7092
      }
    ],
    "59": [
      {
        "length": 32,
        "start": 2451
      }
    ]
  },
  "source": "// SPDX-License-Identifier: GPL-3.0\r\n//The pragma command means \"additional information that only the compiler cares about\", \r\n//while the caret symbol (^) means \"the version indicated or higher\".\r\npragma solidity ^0.8.0;\r\n//practice for using the openzeppelin lib https://docs.openzeppelin.com/learn/developing-smart-contracts\r\n//is Context import \"@openzeppelin/contracts/GSN/Context.sol\";\r\n\r\n\r\ncontract BaseWarrantySmartContract {\r\n    struct Party { \r\n        //a struct representing both the contractor and client\r\n        string name; \r\n        address payable partyAddress;\r\n        Location physicalLocation;\r\n        ContactInformation contactInfo;\r\n    }\r\n    struct Location {\r\n        //a struct for full addresses\r\n        string streetAddressLine1;\r\n        string streetAddressLine2;\r\n        string city;\r\n        string state;\r\n        string postalCode;\r\n    }\r\n    struct ContactInformation {\r\n        //a struct for a party's contact info\r\n        string email;\r\n        string phoneMobile;\r\n        string phoneHome;\r\n    }\r\n    Party private warrantyHolder;    //the client\r\n    Party public  warrantyProvider; //the contractor\r\n    Party[] previousHolders;\r\n    string public projectName;\r\n    bool public isTransferable;\r\n    Location public locationOfWork;\r\n    uint public immutable dateOfWorkCompletion; // in seconds since 1970\r\n    uint public immutable warrantyExpirationDate;//seconds since unix epoch\r\n    bool public immutable warrantyExpires;\r\n    uint public immutable numberOfDaysToCorrect;//\tNumber of days contractor has to correct defective work before paying charges\r\n    string public descriptionOfProject;\r\n    uint256 public immutable warrantyStartDate;\r\n    enum WarrantyState { INACTIVE, ACTIVE, VOID, BREACHED }\r\n    WarrantyState public stateOfWarranty;\r\n    event CurrentHolderChanged(Party _newOwner);\r\n    event WarrantyStateChanged(string _message);\r\n\r\n    constructor (uint _warrantyExpirationDate, //date in seconds past epoch\r\n                bool _warrantyExpires,\r\n                uint _numberOfDaysToCorrect,\r\n                uint _workCompleted, //date in seconds past epoch\r\n                string memory _projectName,\r\n                string memory _description,\r\n                bool _transferable,\r\n                Party memory _warrantyProvider,\r\n                Party memory _warrantyHolder,\r\n                Location memory _location\r\n    ) {\r\n        dateOfWorkCompletion = _workCompleted;\r\n        warrantyStartDate = block.timestamp;\r\n        warrantyExpires = _warrantyExpires;\r\n        warrantyExpirationDate = _warrantyExpirationDate;\r\n        stateOfWarranty = WarrantyState.ACTIVE;\r\n        numberOfDaysToCorrect = _numberOfDaysToCorrect;\r\n        projectName = _projectName;\r\n        descriptionOfProject = _description;\r\n        warrantyProvider = _warrantyProvider;\r\n        warrantyHolder = _warrantyHolder;\r\n        locationOfWork = _location;\r\n        isTransferable = _transferable;\r\n    }\r\n\r\n    function depositToEscrow(uint256 amountToEscrow) public payable {\r\n        require(msg.value == amountToEscrow);\r\n\r\n    }\r\n\r\n\r\n    modifier mustBeActive() {\r\n        require(\r\n            stateOfWarranty == WarrantyState.ACTIVE,\r\n            \"This function may only be used if the contract is active\"\r\n        );\r\n        _;\r\n    }\r\n\r\n    modifier mustBeBreached() {\r\n        require(\r\n            stateOfWarranty == WarrantyState.BREACHED,\r\n            \"This function may only be used if the contract is breached\"\r\n        );\r\n        _;\r\n    }\r\n\r\n    modifier mustBeInactiveOrVoid() {\r\n        require(\r\n            (stateOfWarranty == WarrantyState.INACTIVE\t|| stateOfWarranty == WarrantyState.VOID),\r\n            \"This function may only be used if the contract is inactive or voided\"\r\n        );\r\n        _;\r\n    }\r\n\r\n    function voidWarranty() public mustBeActive {\r\n        stateOfWarranty = WarrantyState.VOID;\r\n        emit WarrantyStateChanged(string(abi.encodePacked(\"The warranty for the \", projectName, \" at \", getLocationAsString(), \" has been voided\")));\r\n        contractorPayout();\r\n    }\r\n\r\n    function warrantyBreached() public mustBeActive {\r\n        stateOfWarranty = WarrantyState.BREACHED;\r\n        emit WarrantyStateChanged(string(abi.encodePacked(\"The warranty for the \", projectName, \" at \", getLocationAsString(), \" has been breached\")));\r\n        holderPayout();\r\n    }\r\n\r\n    function checkIfExpired() public view returns(bool) {\r\n        uint currentTime = block.timestamp;\r\n        if (warrantyExpires) {\r\n            if (currentTime > warrantyExpirationDate) {\r\n                return true;\r\n            }        \r\n        }\r\n        return false;\r\n    }\r\n\r\n    function getDaysUntilExpiration() public view returns(uint) {\r\n        //view =  the function only reads the state\r\n        bool isExpired = checkIfExpired();\r\n        if (isExpired) {\r\n            return 0;\r\n        }\r\n        else {\r\n            uint currentTime = block.timestamp;\r\n            return convertSecondsToDays(warrantyExpirationDate - currentTime);\r\n        }\r\n    }\r\n\r\n    function convertSecondsToDays(uint secondsToConvert) internal pure returns(uint) {\r\n        //internal the contract and its derivatives can call the function\r\n        //pure: the function neither reads nor writes to the state\r\n        uint day = 1 days;//amount of seconds in a day\r\n        return secondsToConvert/day;\r\n    }\r\n\r\n    function getLocationAsString() public view returns (string memory) {\r\n        return string(abi.encodePacked(locationOfWork.streetAddressLine1, \" \",\r\n        locationOfWork.streetAddressLine2, \" \",\r\n        locationOfWork.city, \", \",\r\n        locationOfWork.state, \" \",\r\n        locationOfWork.postalCode));\r\n    }\r\n\r\n    modifier holderOnly() {\r\n    require(\r\n      msg.sender == warrantyHolder.partyAddress,\r\n      \"This function is restricted to the contract's holder\"\r\n    );\r\n    _;\r\n  }\r\n\r\n    modifier providerOnly() {\r\n    require(\r\n      msg.sender == warrantyProvider.partyAddress,\r\n      \"This function is restricted to the warranty's provider\"\r\n    );\r\n    _;\r\n  }\r\n    function transferWarrantyToAnotherParty(Party memory newParty)\r\n    external holderOnly {\r\n        //external =  anyone but the contract can call the function. Using the external type instead of public can have a performance boost and potentially save a lot of gas\r\n        //require(msg.sender == warrantyProvider.partyAddress);//should require the by party's permission\r\n        if (isTransferable){\r\n            previousHolders.push(warrantyHolder);\r\n            warrantyHolder = newParty; \r\n            emit CurrentHolderChanged(newParty);\r\n        }\r\n    }\r\n\r\n    function getPreviousHolders() \r\n    external view providerOnly \r\n    returns (Party[] memory) {\r\n        //external =  anyone but the contract can call the function. Using the external type instead of public can have a performance boost and potentially save a lot of gas\r\n        //require(msg.sender == warrantyProvider.partyAddress);//should require the by party's permission\r\n        return previousHolders;\r\n    }\r\n\r\n    //lets say as a way to discourage breach of warranty, the contractor puts some ETH into the contract\r\n    function getEscrowBalance() public view returns (uint256) {\r\n        return address(this).balance;\r\n    }\r\n\r\n    //the only way the contractor can get it back is when the warranty expires or gets voided\r\n    function contractorPayout() private mustBeInactiveOrVoid {\r\n        warrantyProvider.partyAddress.transfer(address(this).balance);\r\n    }\r\n\r\n    //if the contractor breaches the warranty, then the balance goes to the warranty holder to make up for the damages\r\n    function holderPayout() private mustBeBreached {\r\n        warrantyHolder.partyAddress.transfer(address(this).balance);\r\n    }   \r\n}",
  "sourcePath": "C:\\Users\\lritter\\source\\repos\\plural-sight\\blockchain\\contrator_keeper\\warranty_truffle_project\\contracts\\BaseWarrantySmartContract.sol",
  "compiler": {
    "name": "solc",
    "version": "0.8.13+commit.abaa5c0e.Emscripten.clang"
  },
  "schemaVersion": "3.4.6",
  "updatedAt": "2022-05-01T20:37:21.009Z",
  "devdoc": {
    "kind": "dev",
    "methods": {},
    "version": 1
  },
  "userdoc": {
    "kind": "user",
    "methods": {},
    "version": 1
  }
}