{
  "contractName": "BaseWarrantySmartContract",
  "abi": [
    {
      "inputs": [
        {
          "internalType": "uint256",
          "name": "_warrantyExpirationDate",
          "type": "uint256"
        },
        {
          "internalType": "uint256",
          "name": "_numberOfDaysToCorrect",
          "type": "uint256"
        },
        {
          "internalType": "uint256",
          "name": "_workCompleted",
          "type": "uint256"
        },
        {
          "internalType": "string",
          "name": "_projectName",
          "type": "string"
        },
        {
          "internalType": "string",
          "name": "_description",
          "type": "string"
        },
        {
          "internalType": "bool",
          "name": "_transferable",
          "type": "bool"
        },
        {
          "components": [
            {
              "internalType": "string",
              "name": "email",
              "type": "string"
            },
            {
              "internalType": "string",
              "name": "phoneMobile",
              "type": "string"
            },
            {
              "internalType": "string",
              "name": "phoneHome",
              "type": "string"
            }
          ],
          "internalType": "struct BaseWarrantySmartContract.ContactInformation",
          "name": "_warrantyHolderContactInfo",
          "type": "tuple"
        },
        {
          "components": [
            {
              "internalType": "string",
              "name": "name",
              "type": "string"
            },
            {
              "internalType": "address",
              "name": "partyAddress",
              "type": "address"
            },
            {
              "components": [
                {
                  "internalType": "string",
                  "name": "streetAddressLine1",
                  "type": "string"
                },
                {
                  "internalType": "string",
                  "name": "streetAddressLine2",
                  "type": "string"
                },
                {
                  "internalType": "string",
                  "name": "city",
                  "type": "string"
                },
                {
                  "internalType": "string",
                  "name": "state",
                  "type": "string"
                },
                {
                  "internalType": "string",
                  "name": "postalCode",
                  "type": "string"
                }
              ],
              "internalType": "struct BaseWarrantySmartContract.Location",
              "name": "physicalLocation",
              "type": "tuple"
            },
            {
              "components": [
                {
                  "internalType": "string",
                  "name": "email",
                  "type": "string"
                },
                {
                  "internalType": "string",
                  "name": "phoneMobile",
                  "type": "string"
                },
                {
                  "internalType": "string",
                  "name": "phoneHome",
                  "type": "string"
                }
              ],
              "internalType": "struct BaseWarrantySmartContract.ContactInformation",
              "name": "contactInfo",
              "type": "tuple"
            }
          ],
          "internalType": "struct BaseWarrantySmartContract.Party",
          "name": "_warrantyProvider",
          "type": "tuple"
        },
        {
          "components": [
            {
              "internalType": "string",
              "name": "name",
              "type": "string"
            },
            {
              "internalType": "address",
              "name": "partyAddress",
              "type": "address"
            },
            {
              "components": [
                {
                  "internalType": "string",
                  "name": "streetAddressLine1",
                  "type": "string"
                },
                {
                  "internalType": "string",
                  "name": "streetAddressLine2",
                  "type": "string"
                },
                {
                  "internalType": "string",
                  "name": "city",
                  "type": "string"
                },
                {
                  "internalType": "string",
                  "name": "state",
                  "type": "string"
                },
                {
                  "internalType": "string",
                  "name": "postalCode",
                  "type": "string"
                }
              ],
              "internalType": "struct BaseWarrantySmartContract.Location",
              "name": "physicalLocation",
              "type": "tuple"
            },
            {
              "components": [
                {
                  "internalType": "string",
                  "name": "email",
                  "type": "string"
                },
                {
                  "internalType": "string",
                  "name": "phoneMobile",
                  "type": "string"
                },
                {
                  "internalType": "string",
                  "name": "phoneHome",
                  "type": "string"
                }
              ],
              "internalType": "struct BaseWarrantySmartContract.ContactInformation",
              "name": "contactInfo",
              "type": "tuple"
            }
          ],
          "internalType": "struct BaseWarrantySmartContract.Party",
          "name": "_warrantyHolder",
          "type": "tuple"
        },
        {
          "components": [
            {
              "internalType": "string",
              "name": "streetAddressLine1",
              "type": "string"
            },
            {
              "internalType": "string",
              "name": "streetAddressLine2",
              "type": "string"
            },
            {
              "internalType": "string",
              "name": "city",
              "type": "string"
            },
            {
              "internalType": "string",
              "name": "state",
              "type": "string"
            },
            {
              "internalType": "string",
              "name": "postalCode",
              "type": "string"
            }
          ],
          "internalType": "struct BaseWarrantySmartContract.Location",
          "name": "_location",
          "type": "tuple"
        }
      ],
      "stateMutability": "nonpayable",
      "type": "constructor"
    },
    {
      "anonymous": false,
      "inputs": [
        {
          "components": [
            {
              "internalType": "string",
              "name": "name",
              "type": "string"
            },
            {
              "internalType": "address",
              "name": "partyAddress",
              "type": "address"
            },
            {
              "components": [
                {
                  "internalType": "string",
                  "name": "streetAddressLine1",
                  "type": "string"
                },
                {
                  "internalType": "string",
                  "name": "streetAddressLine2",
                  "type": "string"
                },
                {
                  "internalType": "string",
                  "name": "city",
                  "type": "string"
                },
                {
                  "internalType": "string",
                  "name": "state",
                  "type": "string"
                },
                {
                  "internalType": "string",
                  "name": "postalCode",
                  "type": "string"
                }
              ],
              "internalType": "struct BaseWarrantySmartContract.Location",
              "name": "physicalLocation",
              "type": "tuple"
            },
            {
              "components": [
                {
                  "internalType": "string",
                  "name": "email",
                  "type": "string"
                },
                {
                  "internalType": "string",
                  "name": "phoneMobile",
                  "type": "string"
                },
                {
                  "internalType": "string",
                  "name": "phoneHome",
                  "type": "string"
                }
              ],
              "internalType": "struct BaseWarrantySmartContract.ContactInformation",
              "name": "contactInfo",
              "type": "tuple"
            }
          ],
          "indexed": false,
          "internalType": "struct BaseWarrantySmartContract.Party",
          "name": "_newOwner",
          "type": "tuple"
        }
      ],
      "name": "CurrentHolderChanged",
      "type": "event"
    },
    {
      "inputs": [],
      "name": "dateOfWorkCompletion",
      "outputs": [
        {
          "internalType": "uint256",
          "name": "",
          "type": "uint256"
        }
      ],
      "stateMutability": "view",
      "type": "function",
      "constant": true
    },
    {
      "inputs": [],
      "name": "descriptionOfProject",
      "outputs": [
        {
          "internalType": "string",
          "name": "",
          "type": "string"
        }
      ],
      "stateMutability": "view",
      "type": "function",
      "constant": true
    },
    {
      "inputs": [],
      "name": "isTransferable",
      "outputs": [
        {
          "internalType": "bool",
          "name": "",
          "type": "bool"
        }
      ],
      "stateMutability": "view",
      "type": "function",
      "constant": true
    },
    {
      "inputs": [],
      "name": "locationOfWork",
      "outputs": [
        {
          "internalType": "string",
          "name": "streetAddressLine1",
          "type": "string"
        },
        {
          "internalType": "string",
          "name": "streetAddressLine2",
          "type": "string"
        },
        {
          "internalType": "string",
          "name": "city",
          "type": "string"
        },
        {
          "internalType": "string",
          "name": "state",
          "type": "string"
        },
        {
          "internalType": "string",
          "name": "postalCode",
          "type": "string"
        }
      ],
      "stateMutability": "view",
      "type": "function",
      "constant": true
    },
    {
      "inputs": [],
      "name": "numberOfDaysToCorrect",
      "outputs": [
        {
          "internalType": "uint256",
          "name": "",
          "type": "uint256"
        }
      ],
      "stateMutability": "view",
      "type": "function",
      "constant": true
    },
    {
      "inputs": [],
      "name": "projectName",
      "outputs": [
        {
          "internalType": "string",
          "name": "",
          "type": "string"
        }
      ],
      "stateMutability": "view",
      "type": "function",
      "constant": true
    },
    {
      "inputs": [],
      "name": "stateOfWarranty",
      "outputs": [
        {
          "internalType": "enum BaseWarrantySmartContract.WarrantyState",
          "name": "",
          "type": "uint8"
        }
      ],
      "stateMutability": "view",
      "type": "function",
      "constant": true
    },
    {
      "inputs": [],
      "name": "warrantyExpirationDate",
      "outputs": [
        {
          "internalType": "uint256",
          "name": "",
          "type": "uint256"
        }
      ],
      "stateMutability": "view",
      "type": "function",
      "constant": true
    },
    {
      "inputs": [],
      "name": "warrantyHolder",
      "outputs": [
        {
          "internalType": "string",
          "name": "name",
          "type": "string"
        },
        {
          "internalType": "address",
          "name": "partyAddress",
          "type": "address"
        },
        {
          "components": [
            {
              "internalType": "string",
              "name": "streetAddressLine1",
              "type": "string"
            },
            {
              "internalType": "string",
              "name": "streetAddressLine2",
              "type": "string"
            },
            {
              "internalType": "string",
              "name": "city",
              "type": "string"
            },
            {
              "internalType": "string",
              "name": "state",
              "type": "string"
            },
            {
              "internalType": "string",
              "name": "postalCode",
              "type": "string"
            }
          ],
          "internalType": "struct BaseWarrantySmartContract.Location",
          "name": "physicalLocation",
          "type": "tuple"
        },
        {
          "components": [
            {
              "internalType": "string",
              "name": "email",
              "type": "string"
            },
            {
              "internalType": "string",
              "name": "phoneMobile",
              "type": "string"
            },
            {
              "internalType": "string",
              "name": "phoneHome",
              "type": "string"
            }
          ],
          "internalType": "struct BaseWarrantySmartContract.ContactInformation",
          "name": "contactInfo",
          "type": "tuple"
        }
      ],
      "stateMutability": "view",
      "type": "function",
      "constant": true
    },
    {
      "inputs": [],
      "name": "warrantyProvider",
      "outputs": [
        {
          "internalType": "string",
          "name": "name",
          "type": "string"
        },
        {
          "internalType": "address",
          "name": "partyAddress",
          "type": "address"
        },
        {
          "components": [
            {
              "internalType": "string",
              "name": "streetAddressLine1",
              "type": "string"
            },
            {
              "internalType": "string",
              "name": "streetAddressLine2",
              "type": "string"
            },
            {
              "internalType": "string",
              "name": "city",
              "type": "string"
            },
            {
              "internalType": "string",
              "name": "state",
              "type": "string"
            },
            {
              "internalType": "string",
              "name": "postalCode",
              "type": "string"
            }
          ],
          "internalType": "struct BaseWarrantySmartContract.Location",
          "name": "physicalLocation",
          "type": "tuple"
        },
        {
          "components": [
            {
              "internalType": "string",
              "name": "email",
              "type": "string"
            },
            {
              "internalType": "string",
              "name": "phoneMobile",
              "type": "string"
            },
            {
              "internalType": "string",
              "name": "phoneHome",
              "type": "string"
            }
          ],
          "internalType": "struct BaseWarrantySmartContract.ContactInformation",
          "name": "contactInfo",
          "type": "tuple"
        }
      ],
      "stateMutability": "view",
      "type": "function",
      "constant": true
    },
    {
      "inputs": [],
      "name": "warrantyStartDate",
      "outputs": [
        {
          "internalType": "uint256",
          "name": "",
          "type": "uint256"
        }
      ],
      "stateMutability": "view",
      "type": "function",
      "constant": true
    },
    {
      "inputs": [],
      "name": "checkIfExpired",
      "outputs": [
        {
          "internalType": "bool",
          "name": "",
          "type": "bool"
        }
      ],
      "stateMutability": "view",
      "type": "function",
      "constant": true
    },
    {
      "inputs": [],
      "name": "getDaysUntilExpiration",
      "outputs": [
        {
          "internalType": "uint256",
          "name": "",
          "type": "uint256"
        }
      ],
      "stateMutability": "view",
      "type": "function",
      "constant": true
    },
    {
      "inputs": [],
      "name": "getLocationAsString",
      "outputs": [
        {
          "internalType": "string",
          "name": "",
          "type": "string"
        }
      ],
      "stateMutability": "view",
      "type": "function",
      "constant": true
    },
    {
      "inputs": [
        {
          "components": [
            {
              "internalType": "string",
              "name": "name",
              "type": "string"
            },
            {
              "internalType": "address",
              "name": "partyAddress",
              "type": "address"
            },
            {
              "components": [
                {
                  "internalType": "string",
                  "name": "streetAddressLine1",
                  "type": "string"
                },
                {
                  "internalType": "string",
                  "name": "streetAddressLine2",
                  "type": "string"
                },
                {
                  "internalType": "string",
                  "name": "city",
                  "type": "string"
                },
                {
                  "internalType": "string",
                  "name": "state",
                  "type": "string"
                },
                {
                  "internalType": "string",
                  "name": "postalCode",
                  "type": "string"
                }
              ],
              "internalType": "struct BaseWarrantySmartContract.Location",
              "name": "physicalLocation",
              "type": "tuple"
            },
            {
              "components": [
                {
                  "internalType": "string",
                  "name": "email",
                  "type": "string"
                },
                {
                  "internalType": "string",
                  "name": "phoneMobile",
                  "type": "string"
                },
                {
                  "internalType": "string",
                  "name": "phoneHome",
                  "type": "string"
                }
              ],
              "internalType": "struct BaseWarrantySmartContract.ContactInformation",
              "name": "contactInfo",
              "type": "tuple"
            }
          ],
          "internalType": "struct BaseWarrantySmartContract.Party",
          "name": "newParty",
          "type": "tuple"
        }
      ],
      "name": "transferWarrantyToAnotherParty",
      "outputs": [],
      "stateMutability": "nonpayable",
      "type": "function"
    },
    {
      "inputs": [],
      "name": "getPreviousHolders",
      "outputs": [
        {
          "components": [
            {
              "internalType": "string",
              "name": "name",
              "type": "string"
            },
            {
              "internalType": "address",
              "name": "partyAddress",
              "type": "address"
            },
            {
              "components": [
                {
                  "internalType": "string",
                  "name": "streetAddressLine1",
                  "type": "string"
                },
                {
                  "internalType": "string",
                  "name": "streetAddressLine2",
                  "type": "string"
                },
                {
                  "internalType": "string",
                  "name": "city",
                  "type": "string"
                },
                {
                  "internalType": "string",
                  "name": "state",
                  "type": "string"
                },
                {
                  "internalType": "string",
                  "name": "postalCode",
                  "type": "string"
                }
              ],
              "internalType": "struct BaseWarrantySmartContract.Location",
              "name": "physicalLocation",
              "type": "tuple"
            },
            {
              "components": [
                {
                  "internalType": "string",
                  "name": "email",
                  "type": "string"
                },
                {
                  "internalType": "string",
                  "name": "phoneMobile",
                  "type": "string"
                },
                {
                  "internalType": "string",
                  "name": "phoneHome",
                  "type": "string"
                }
              ],
              "internalType": "struct BaseWarrantySmartContract.ContactInformation",
              "name": "contactInfo",
              "type": "tuple"
            }
          ],
          "internalType": "struct BaseWarrantySmartContract.Party[]",
          "name": "",
          "type": "tuple[]"
        }
      ],
      "stateMutability": "view",
      "type": "function",
      "constant": true
    }
  ],
  "bytecode": "0x6101006040523480156200001257600080fd5b5060405162003bdc38038062003bdc833981810160405281019062000038919062000af1565b87608081815250504260e081815250508960a081815250506001602060006101000a81548160ff0219169083600281111562000079576200007862000ca1565b5b02179055508860c0818152505086601890805190602001906200009e929190620004d9565b5085601f9080519060200190620000b7929190620004d9565b5082600d6000820151816000019080519060200190620000d9929190620004d9565b5060208201518160010160006101000a81548173ffffffffffffffffffffffffffffffffffffffff021916908373ffffffffffffffffffffffffffffffffffffffff160217905550604082015181600201600082015181600001908051906020019062000148929190620004d9565b50602082015181600101908051906020019062000167929190620004d9565b50604082015181600201908051906020019062000186929190620004d9565b506060820151816003019080519060200190620001a5929190620004d9565b506080820151816004019080519060200190620001c4929190620004d9565b5050506060820151816007016000820151816000019080519060200190620001ee929190620004d9565b5060208201518160010190805190602001906200020d929190620004d9565b5060408201518160020190805190602001906200022c929190620004d9565b50505090505083600a600082015181600001908051906020019062000253929190620004d9565b50602082015181600101908051906020019062000272929190620004d9565b50604082015181600201908051906020019062000291929190620004d9565b5090505081600080820151816000019080519060200190620002b5929190620004d9565b5060208201518160010160006101000a81548173ffffffffffffffffffffffffffffffffffffffff021916908373ffffffffffffffffffffffffffffffffffffffff160217905550604082015181600201600082015181600001908051906020019062000324929190620004d9565b50602082015181600101908051906020019062000343929190620004d9565b50604082015181600201908051906020019062000362929190620004d9565b50606082015181600301908051906020019062000381929190620004d9565b506080820151816004019080519060200190620003a0929190620004d9565b5050506060820151816007016000820151816000019080519060200190620003ca929190620004d9565b506020820151816001019080519060200190620003e9929190620004d9565b50604082015181600201908051906020019062000408929190620004d9565b50505090505080601a60008201518160000190805190602001906200042f929190620004d9565b5060208201518160010190805190602001906200044e929190620004d9565b5060408201518160020190805190602001906200046d929190620004d9565b5060608201518160030190805190602001906200048c929190620004d9565b506080820151816004019080519060200190620004ab929190620004d9565b5090505084601960006101000a81548160ff0219169083151502179055505050505050505050505062000d34565b828054620004e79062000cff565b90600052602060002090601f0160209004810192826200050b576000855562000557565b82601f106200052657805160ff191683800117855562000557565b8280016001018555821562000557579182015b828111156200055657825182559160200191906001019062000539565b5b5090506200056691906200056a565b5090565b5b80821115620005855760008160009055506001016200056b565b5090565b6000604051905090565b600080fd5b600080fd5b6000819050919050565b620005b2816200059d565b8114620005be57600080fd5b50565b600081519050620005d281620005a7565b92915050565b600080fd5b600080fd5b6000601f19601f8301169050919050565b7f4e487b7100000000000000000000000000000000000000000000000000000000600052604160045260246000fd5b6200062d82620005e2565b810181811067ffffffffffffffff821117156200064f576200064e620005f3565b5b80604052505050565b60006200066462000589565b905062000672828262000622565b919050565b600067ffffffffffffffff821115620006955762000694620005f3565b5b620006a082620005e2565b9050602081019050919050565b60005b83811015620006cd578082015181840152602081019050620006b0565b83811115620006dd576000848401525b50505050565b6000620006fa620006f48462000677565b62000658565b905082815260208101848484011115620007195762000718620005dd565b5b62000726848285620006ad565b509392505050565b600082601f830112620007465762000745620005d8565b5b815162000758848260208601620006e3565b91505092915050565b60008115159050919050565b620007788162000761565b81146200078457600080fd5b50565b60008151905062000798816200076d565b92915050565b600080fd5b600080fd5b600060608284031215620007c157620007c06200079e565b5b620007cd606062000658565b9050600082015167ffffffffffffffff811115620007f057620007ef620007a3565b5b620007fe848285016200072e565b600083015250602082015167ffffffffffffffff811115620008255762000824620007a3565b5b62000833848285016200072e565b602083015250604082015167ffffffffffffffff8111156200085a5762000859620007a3565b5b62000868848285016200072e565b60408301525092915050565b600073ffffffffffffffffffffffffffffffffffffffff82169050919050565b6000620008a18262000874565b9050919050565b620008b38162000894565b8114620008bf57600080fd5b50565b600081519050620008d381620008a8565b92915050565b600060a08284031215620008f257620008f16200079e565b5b620008fe60a062000658565b9050600082015167ffffffffffffffff811115620009215762000920620007a3565b5b6200092f848285016200072e565b600083015250602082015167ffffffffffffffff811115620009565762000955620007a3565b5b62000964848285016200072e565b602083015250604082015167ffffffffffffffff8111156200098b576200098a620007a3565b5b62000999848285016200072e565b604083015250606082015167ffffffffffffffff811115620009c057620009bf620007a3565b5b620009ce848285016200072e565b606083015250608082015167ffffffffffffffff811115620009f557620009f4620007a3565b5b62000a03848285016200072e565b60808301525092915050565b60006080828403121562000a285762000a276200079e565b5b62000a34608062000658565b9050600082015167ffffffffffffffff81111562000a575762000a56620007a3565b5b62000a65848285016200072e565b600083015250602062000a7b84828501620008c2565b602083015250604082015167ffffffffffffffff81111562000aa25762000aa1620007a3565b5b62000ab084828501620008d9565b604083015250606082015167ffffffffffffffff81111562000ad75762000ad6620007a3565b5b62000ae584828501620007a8565b60608301525092915050565b6000806000806000806000806000806101408b8d03121562000b185762000b1762000593565b5b600062000b288d828e01620005c1565b9a5050602062000b3b8d828e01620005c1565b995050604062000b4e8d828e01620005c1565b98505060608b015167ffffffffffffffff81111562000b725762000b7162000598565b5b62000b808d828e016200072e565b97505060808b015167ffffffffffffffff81111562000ba45762000ba362000598565b5b62000bb28d828e016200072e565b96505060a062000bc58d828e0162000787565b95505060c08b015167ffffffffffffffff81111562000be95762000be862000598565b5b62000bf78d828e01620007a8565b94505060e08b015167ffffffffffffffff81111562000c1b5762000c1a62000598565b5b62000c298d828e0162000a0f565b9350506101008b015167ffffffffffffffff81111562000c4e5762000c4d62000598565b5b62000c5c8d828e0162000a0f565b9250506101208b015167ffffffffffffffff81111562000c815762000c8062000598565b5b62000c8f8d828e01620008d9565b9150509295989b9194979a5092959850565b7f4e487b7100000000000000000000000000000000000000000000000000000000600052602160045260246000fd5b7f4e487b7100000000000000000000000000000000000000000000000000000000600052602260045260246000fd5b6000600282049050600182168062000d1857607f821691505b60208210810362000d2e5762000d2d62000cd0565b5b50919050565b60805160a05160c05160e051612e6062000d7c600039600061072701526000611d5401526000818161076401528181611d300152611d9e015260006107030152612e606000f3fe608060405234801561001057600080fd5b50600436106101005760003560e01c80636c51cd7211610097578063c2c967c911610066578063c2c967c914610275578063cf561a2114610293578063d89998cf146102b1578063dbae9bca146102cf57610100565b80636c51cd72146101f65780639a33e30014610218578063a7394b2814610236578063b395fed61461025757610100565b80632daf311b116100d35780632daf311b1461017b5780632e7c0ada146101995780634a608861146101ba578063645461f5146101d857610100565b806309f174c3146101055780631798c6c9146101215780631a8a3a401461013f5780632121dc751461015d575b600080fd5b61011f600480360381019061011a9190612392565b6102ed565b005b610129610701565b60405161013691906123f4565b60405180910390f35b610147610725565b60405161015491906123f4565b60405180910390f35b610165610749565b604051610172919061242a565b60405180910390f35b61018361075c565b604051610190919061242a565b60405180910390f35b6101a161079d565b6040516101b19493929190612616565b60405180910390f35b6101c2610d07565b6040516101cf9190612670565b60405180910390f35b6101e0610d4a565b6040516101ed9190612670565b60405180910390f35b6101fe610dd8565b60405161020f959493929190612692565b60405180910390f35b6102206110a4565b60405161022d9190612670565b60405180910390f35b61023e611132565b60405161024e9493929190612616565b60405180910390f35b61025f61169c565b60405161026c919061293a565b60405180910390f35b61027d611d2e565b60405161028a91906123f4565b60405180910390f35b61029b611d52565b6040516102a891906123f4565b60405180910390f35b6102b9611d76565b6040516102c691906123f4565b60405180910390f35b6102d7611dd4565b6040516102e491906129d3565b60405180910390f35b600060010160009054906101000a900473ffffffffffffffffffffffffffffffffffffffff1673ffffffffffffffffffffffffffffffffffffffff163373ffffffffffffffffffffffffffffffffffffffff1614610380576040517f08c379a000000000000000000000000000000000000000000000000000000000815260040161037790612a60565b60405180910390fd5b601960009054906101000a900460ff16156106fe576017600090806001815401808255809150506001900390600052602060002090600a020160009091909190915060008201816000019080546103d690612aaf565b6103e1929190611e04565b506001820160009054906101000a900473ffffffffffffffffffffffffffffffffffffffff168160010160006101000a81548173ffffffffffffffffffffffffffffffffffffffff021916908373ffffffffffffffffffffffffffffffffffffffff1602179055506002820181600201600082018160000190805461046590612aaf565b610470929190611e04565b50600182018160010190805461048590612aaf565b610490929190611e04565b5060028201816002019080546104a590612aaf565b6104b0929190611e04565b5060038201816003019080546104c590612aaf565b6104d0929190611e04565b5060048201816004019080546104e590612aaf565b6104f0929190611e04565b5050506007820181600701600082018160000190805461050f90612aaf565b61051a929190611e04565b50600182018160010190805461052f90612aaf565b61053a929190611e04565b50600282018160020190805461054f90612aaf565b61055a929190611e04565b50505050508060008082015181600001908051906020019061057d929190611e91565b5060208201518160010160006101000a81548173ffffffffffffffffffffffffffffffffffffffff021916908373ffffffffffffffffffffffffffffffffffffffff16021790555060408201518160020160008201518160000190805190602001906105ea929190611e91565b506020820151816001019080519060200190610607929190611e91565b506040820151816002019080519060200190610624929190611e91565b506060820151816003019080519060200190610641929190611e91565b50608082015181600401908051906020019061065e929190611e91565b5050506060820151816007016000820151816000019080519060200190610686929190611e91565b5060208201518160010190805190602001906106a3929190611e91565b5060408201518160020190805190602001906106c0929190611e91565b5050509050507fe8176a51a789da4605a6bf9fc8146fdf034b0181042080626b1696e121821245816040516106f59190612b51565b60405180910390a15b50565b7f000000000000000000000000000000000000000000000000000000000000000081565b7f000000000000000000000000000000000000000000000000000000000000000081565b601960009054906101000a900460ff1681565b6000804290507f000000000000000000000000000000000000000000000000000000000000000081111561079457600191505061079a565b60009150505b90565b60008060000180546107ae90612aaf565b80601f01602080910402602001604051908101604052809291908181526020018280546107da90612aaf565b80156108275780601f106107fc57610100808354040283529160200191610827565b820191906000526020600020905b81548152906001019060200180831161080a57829003601f168201915b5050505050908060010160009054906101000a900473ffffffffffffffffffffffffffffffffffffffff1690806002016040518060a001604052908160008201805461087290612aaf565b80601f016020809104026020016040519081016040528092919081815260200182805461089e90612aaf565b80156108eb5780601f106108c0576101008083540402835291602001916108eb565b820191906000526020600020905b8154815290600101906020018083116108ce57829003601f168201915b5050505050815260200160018201805461090490612aaf565b80601f016020809104026020016040519081016040528092919081815260200182805461093090612aaf565b801561097d5780601f106109525761010080835404028352916020019161097d565b820191906000526020600020905b81548152906001019060200180831161096057829003601f168201915b5050505050815260200160028201805461099690612aaf565b80601f01602080910402602001604051908101604052809291908181526020018280546109c290612aaf565b8015610a0f5780601f106109e457610100808354040283529160200191610a0f565b820191906000526020600020905b8154815290600101906020018083116109f257829003601f168201915b50505050508152602001600382018054610a2890612aaf565b80601f0160208091040260200160405190810160405280929190818152602001828054610a5490612aaf565b8015610aa15780601f10610a7657610100808354040283529160200191610aa1565b820191906000526020600020905b815481529060010190602001808311610a8457829003601f168201915b50505050508152602001600482018054610aba90612aaf565b80601f0160208091040260200160405190810160405280929190818152602001828054610ae690612aaf565b8015610b335780601f10610b0857610100808354040283529160200191610b33565b820191906000526020600020905b815481529060010190602001808311610b1657829003601f168201915b5050505050815250509080600701604051806060016040529081600082018054610b5c90612aaf565b80601f0160208091040260200160405190810160405280929190818152602001828054610b8890612aaf565b8015610bd55780601f10610baa57610100808354040283529160200191610bd5565b820191906000526020600020905b815481529060010190602001808311610bb857829003601f168201915b50505050508152602001600182018054610bee90612aaf565b80601f0160208091040260200160405190810160405280929190818152602001828054610c1a90612aaf565b8015610c675780601f10610c3c57610100808354040283529160200191610c67565b820191906000526020600020905b815481529060010190602001808311610c4a57829003601f168201915b50505050508152602001600282018054610c8090612aaf565b80601f0160208091040260200160405190810160405280929190818152602001828054610cac90612aaf565b8015610cf95780601f10610cce57610100808354040283529160200191610cf9565b820191906000526020600020905b815481529060010190602001808311610cdc57829003601f168201915b505050505081525050905084565b6060601a600001601a600101601a600201601a600301601a600401604051602001610d36959493929190612c5e565b604051602081830303815290604052905090565b601f8054610d5790612aaf565b80601f0160208091040260200160405190810160405280929190818152602001828054610d8390612aaf565b8015610dd05780601f10610da557610100808354040283529160200191610dd0565b820191906000526020600020905b815481529060010190602001808311610db357829003601f168201915b505050505081565b601a806000018054610de990612aaf565b80601f0160208091040260200160405190810160405280929190818152602001828054610e1590612aaf565b8015610e625780601f10610e3757610100808354040283529160200191610e62565b820191906000526020600020905b815481529060010190602001808311610e4557829003601f168201915b505050505090806001018054610e7790612aaf565b80601f0160208091040260200160405190810160405280929190818152602001828054610ea390612aaf565b8015610ef05780601f10610ec557610100808354040283529160200191610ef0565b820191906000526020600020905b815481529060010190602001808311610ed357829003601f168201915b505050505090806002018054610f0590612aaf565b80601f0160208091040260200160405190810160405280929190818152602001828054610f3190612aaf565b8015610f7e5780601f10610f5357610100808354040283529160200191610f7e565b820191906000526020600020905b815481529060010190602001808311610f6157829003601f168201915b505050505090806003018054610f9390612aaf565b80601f0160208091040260200160405190810160405280929190818152602001828054610fbf90612aaf565b801561100c5780601f10610fe15761010080835404028352916020019161100c565b820191906000526020600020905b815481529060010190602001808311610fef57829003601f168201915b50505050509080600401805461102190612aaf565b80601f016020809104026020016040519081016040528092919081815260200182805461104d90612aaf565b801561109a5780601f1061106f5761010080835404028352916020019161109a565b820191906000526020600020905b81548152906001019060200180831161107d57829003601f168201915b5050505050905085565b601880546110b190612aaf565b80601f01602080910402602001604051908101604052809291908181526020018280546110dd90612aaf565b801561112a5780601f106110ff5761010080835404028352916020019161112a565b820191906000526020600020905b81548152906001019060200180831161110d57829003601f168201915b505050505081565b600d80600001805461114390612aaf565b80601f016020809104026020016040519081016040528092919081815260200182805461116f90612aaf565b80156111bc5780601f10611191576101008083540402835291602001916111bc565b820191906000526020600020905b81548152906001019060200180831161119f57829003601f168201915b5050505050908060010160009054906101000a900473ffffffffffffffffffffffffffffffffffffffff1690806002016040518060a001604052908160008201805461120790612aaf565b80601f016020809104026020016040519081016040528092919081815260200182805461123390612aaf565b80156112805780601f1061125557610100808354040283529160200191611280565b820191906000526020600020905b81548152906001019060200180831161126357829003601f168201915b5050505050815260200160018201805461129990612aaf565b80601f01602080910402602001604051908101604052809291908181526020018280546112c590612aaf565b80156113125780601f106112e757610100808354040283529160200191611312565b820191906000526020600020905b8154815290600101906020018083116112f557829003601f168201915b5050505050815260200160028201805461132b90612aaf565b80601f016020809104026020016040519081016040528092919081815260200182805461135790612aaf565b80156113a45780601f10611379576101008083540402835291602001916113a4565b820191906000526020600020905b81548152906001019060200180831161138757829003601f168201915b505050505081526020016003820180546113bd90612aaf565b80601f01602080910402602001604051908101604052809291908181526020018280546113e990612aaf565b80156114365780601f1061140b57610100808354040283529160200191611436565b820191906000526020600020905b81548152906001019060200180831161141957829003601f168201915b5050505050815260200160048201805461144f90612aaf565b80601f016020809104026020016040519081016040528092919081815260200182805461147b90612aaf565b80156114c85780601f1061149d576101008083540402835291602001916114c8565b820191906000526020600020905b8154815290600101906020018083116114ab57829003601f168201915b50505050508152505090806007016040518060600160405290816000820180546114f190612aaf565b80601f016020809104026020016040519081016040528092919081815260200182805461151d90612aaf565b801561156a5780601f1061153f5761010080835404028352916020019161156a565b820191906000526020600020905b81548152906001019060200180831161154d57829003601f168201915b5050505050815260200160018201805461158390612aaf565b80601f01602080910402602001604051908101604052809291908181526020018280546115af90612aaf565b80156115fc5780601f106115d1576101008083540402835291602001916115fc565b820191906000526020600020905b8154815290600101906020018083116115df57829003601f168201915b5050505050815260200160028201805461161590612aaf565b80601f016020809104026020016040519081016040528092919081815260200182805461164190612aaf565b801561168e5780601f106116635761010080835404028352916020019161168e565b820191906000526020600020905b81548152906001019060200180831161167157829003601f168201915b505050505081525050905084565b6060600d60010160009054906101000a900473ffffffffffffffffffffffffffffffffffffffff1673ffffffffffffffffffffffffffffffffffffffff163373ffffffffffffffffffffffffffffffffffffffff1614611731576040517f08c379a000000000000000000000000000000000000000000000000000000000815260040161172890612d47565b60405180910390fd5b6017805480602002602001604051908101604052809291908181526020016000905b82821015611d2557838290600052602060002090600a020160405180608001604052908160008201805461178690612aaf565b80601f01602080910402602001604051908101604052809291908181526020018280546117b290612aaf565b80156117ff5780601f106117d4576101008083540402835291602001916117ff565b820191906000526020600020905b8154815290600101906020018083116117e257829003601f168201915b505050505081526020016001820160009054906101000a900473ffffffffffffffffffffffffffffffffffffffff1673ffffffffffffffffffffffffffffffffffffffff1673ffffffffffffffffffffffffffffffffffffffff168152602001600282016040518060a001604052908160008201805461187e90612aaf565b80601f01602080910402602001604051908101604052809291908181526020018280546118aa90612aaf565b80156118f75780601f106118cc576101008083540402835291602001916118f7565b820191906000526020600020905b8154815290600101906020018083116118da57829003601f168201915b5050505050815260200160018201805461191090612aaf565b80601f016020809104026020016040519081016040528092919081815260200182805461193c90612aaf565b80156119895780601f1061195e57610100808354040283529160200191611989565b820191906000526020600020905b81548152906001019060200180831161196c57829003601f168201915b505050505081526020016002820180546119a290612aaf565b80601f01602080910402602001604051908101604052809291908181526020018280546119ce90612aaf565b8015611a1b5780601f106119f057610100808354040283529160200191611a1b565b820191906000526020600020905b8154815290600101906020018083116119fe57829003601f168201915b50505050508152602001600382018054611a3490612aaf565b80601f0160208091040260200160405190810160405280929190818152602001828054611a6090612aaf565b8015611aad5780601f10611a8257610100808354040283529160200191611aad565b820191906000526020600020905b815481529060010190602001808311611a9057829003601f168201915b50505050508152602001600482018054611ac690612aaf565b80601f0160208091040260200160405190810160405280929190818152602001828054611af290612aaf565b8015611b3f5780601f10611b1457610100808354040283529160200191611b3f565b820191906000526020600020905b815481529060010190602001808311611b2257829003601f168201915b505050505081525050815260200160078201604051806060016040529081600082018054611b6c90612aaf565b80601f0160208091040260200160405190810160405280929190818152602001828054611b9890612aaf565b8015611be55780601f10611bba57610100808354040283529160200191611be5565b820191906000526020600020905b815481529060010190602001808311611bc857829003601f168201915b50505050508152602001600182018054611bfe90612aaf565b80601f0160208091040260200160405190810160405280929190818152602001828054611c2a90612aaf565b8015611c775780601f10611c4c57610100808354040283529160200191611c77565b820191906000526020600020905b815481529060010190602001808311611c5a57829003601f168201915b50505050508152602001600282018054611c9090612aaf565b80601f0160208091040260200160405190810160405280929190818152602001828054611cbc90612aaf565b8015611d095780601f10611cde57610100808354040283529160200191611d09565b820191906000526020600020905b815481529060010190602001808311611cec57829003601f168201915b5050505050815250508152505081526020019060010190611753565b50505050905090565b7f000000000000000000000000000000000000000000000000000000000000000081565b7f000000000000000000000000000000000000000000000000000000000000000081565b600080611d8161075c565b90508015611d93576000915050611dd1565b6000429050611dcc817f0000000000000000000000000000000000000000000000000000000000000000611dc79190612d96565b611de7565b925050505b90565b602060009054906101000a900460ff1681565b6000806201518090508083611dfc9190612df9565b915050919050565b828054611e1090612aaf565b90600052602060002090601f016020900481019282611e325760008555611e80565b82601f10611e435780548555611e80565b82800160010185558215611e8057600052602060002091601f016020900482015b82811115611e7f578254825591600101919060010190611e64565b5b509050611e8d9190611f17565b5090565b828054611e9d90612aaf565b90600052602060002090601f016020900481019282611ebf5760008555611f06565b82601f10611ed857805160ff1916838001178555611f06565b82800160010185558215611f06579182015b82811115611f05578251825591602001919060010190611eea565b5b509050611f139190611f17565b5090565b5b80821115611f30576000816000905550600101611f18565b5090565b6000604051905090565b600080fd5b600080fd5b600080fd5b6000601f19601f8301169050919050565b7f4e487b7100000000000000000000000000000000000000000000000000000000600052604160045260246000fd5b611f9682611f4d565b810181811067ffffffffffffffff82111715611fb557611fb4611f5e565b5b80604052505050565b6000611fc8611f34565b9050611fd48282611f8d565b919050565b600080fd5b600080fd5b600080fd5b600067ffffffffffffffff82111561200357612002611f5e565b5b61200c82611f4d565b9050602081019050919050565b82818337600083830152505050565b600061203b61203684611fe8565b611fbe565b90508281526020810184848401111561205757612056611fe3565b5b612062848285612019565b509392505050565b600082601f83011261207f5761207e611fde565b5b813561208f848260208601612028565b91505092915050565b600073ffffffffffffffffffffffffffffffffffffffff82169050919050565b60006120c382612098565b9050919050565b6120d3816120b8565b81146120de57600080fd5b50565b6000813590506120f0816120ca565b92915050565b600060a0828403121561210c5761210b611f48565b5b61211660a0611fbe565b9050600082013567ffffffffffffffff81111561213657612135611fd9565b5b6121428482850161206a565b600083015250602082013567ffffffffffffffff81111561216657612165611fd9565b5b6121728482850161206a565b602083015250604082013567ffffffffffffffff81111561219657612195611fd9565b5b6121a28482850161206a565b604083015250606082013567ffffffffffffffff8111156121c6576121c5611fd9565b5b6121d28482850161206a565b606083015250608082013567ffffffffffffffff8111156121f6576121f5611fd9565b5b6122028482850161206a565b60808301525092915050565b60006060828403121561222457612223611f48565b5b61222e6060611fbe565b9050600082013567ffffffffffffffff81111561224e5761224d611fd9565b5b61225a8482850161206a565b600083015250602082013567ffffffffffffffff81111561227e5761227d611fd9565b5b61228a8482850161206a565b602083015250604082013567ffffffffffffffff8111156122ae576122ad611fd9565b5b6122ba8482850161206a565b60408301525092915050565b6000608082840312156122dc576122db611f48565b5b6122e66080611fbe565b9050600082013567ffffffffffffffff81111561230657612305611fd9565b5b6123128482850161206a565b6000830152506020612326848285016120e1565b602083015250604082013567ffffffffffffffff81111561234a57612349611fd9565b5b612356848285016120f6565b604083015250606082013567ffffffffffffffff81111561237a57612379611fd9565b5b6123868482850161220e565b60608301525092915050565b6000602082840312156123a8576123a7611f3e565b5b600082013567ffffffffffffffff8111156123c6576123c5611f43565b5b6123d2848285016122c6565b91505092915050565b6000819050919050565b6123ee816123db565b82525050565b600060208201905061240960008301846123e5565b92915050565b60008115159050919050565b6124248161240f565b82525050565b600060208201905061243f600083018461241b565b92915050565b600081519050919050565b600082825260208201905092915050565b60005b8381101561247f578082015181840152602081019050612464565b8381111561248e576000848401525b50505050565b600061249f82612445565b6124a98185612450565b93506124b9818560208601612461565b6124c281611f4d565b840191505092915050565b6124d6816120b8565b82525050565b600082825260208201905092915050565b60006124f882612445565b61250281856124dc565b9350612512818560208601612461565b61251b81611f4d565b840191505092915050565b600060a083016000830151848203600086015261254382826124ed565b9150506020830151848203602086015261255d82826124ed565b9150506040830151848203604086015261257782826124ed565b9150506060830151848203606086015261259182826124ed565b915050608083015184820360808601526125ab82826124ed565b9150508091505092915050565b600060608301600083015184820360008601526125d582826124ed565b915050602083015184820360208601526125ef82826124ed565b9150506040830151848203604086015261260982826124ed565b9150508091505092915050565b600060808201905081810360008301526126308187612494565b905061263f60208301866124cd565b81810360408301526126518185612526565b9050818103606083015261266581846125b8565b905095945050505050565b6000602082019050818103600083015261268a8184612494565b905092915050565b600060a08201905081810360008301526126ac8188612494565b905081810360208301526126c08187612494565b905081810360408301526126d48186612494565b905081810360608301526126e88185612494565b905081810360808301526126fc8184612494565b90509695505050505050565b600081519050919050565b600082825260208201905092915050565b6000819050602082019050919050565b61273d816120b8565b82525050565b600060a083016000830151848203600086015261276082826124ed565b9150506020830151848203602086015261277a82826124ed565b9150506040830151848203604086015261279482826124ed565b915050606083015184820360608601526127ae82826124ed565b915050608083015184820360808601526127c882826124ed565b9150508091505092915050565b600060608301600083015184820360008601526127f282826124ed565b9150506020830151848203602086015261280c82826124ed565b9150506040830151848203604086015261282682826124ed565b9150508091505092915050565b6000608083016000830151848203600086015261285082826124ed565b91505060208301516128656020860182612734565b506040830151848203604086015261287d8282612743565b9150506060830151848203606086015261289782826127d5565b9150508091505092915050565b60006128b08383612833565b905092915050565b6000602082019050919050565b60006128d082612708565b6128da8185612713565b9350836020820285016128ec85612724565b8060005b85811015612928578484038952815161290985826128a4565b9450612914836128b8565b925060208a019950506001810190506128f0565b50829750879550505050505092915050565b6000602082019050818103600083015261295481846128c5565b905092915050565b7f4e487b7100000000000000000000000000000000000000000000000000000000600052602160045260246000fd5b6003811061299c5761299b61295c565b5b50565b60008190506129ad8261298b565b919050565b60006129bd8261299f565b9050919050565b6129cd816129b2565b82525050565b60006020820190506129e860008301846129c4565b92915050565b7f546869732066756e6374696f6e206973207265737472696374656420746f207460008201527f686520636f6e7472616374277320686f6c646572000000000000000000000000602082015250565b6000612a4a603483612450565b9150612a55826129ee565b604082019050919050565b60006020820190508181036000830152612a7981612a3d565b9050919050565b7f4e487b7100000000000000000000000000000000000000000000000000000000600052602260045260246000fd5b60006002820490506001821680612ac757607f821691505b602082108103612ada57612ad9612a80565b5b50919050565b60006080830160008301518482036000860152612afd82826124ed565b9150506020830151612b126020860182612734565b5060408301518482036040860152612b2a8282612743565b91505060608301518482036060860152612b4482826127d5565b9150508091505092915050565b60006020820190508181036000830152612b6b8184612ae0565b905092915050565b600081905092915050565b60008190508160005260206000209050919050565b60008154612ba081612aaf565b612baa8186612b73565b94506001821660008114612bc55760018114612bd657612c09565b60ff19831686528186019350612c09565b612bdf85612b7e565b60005b83811015612c0157815481890152600182019150602081019050612be2565b838801955050505b50505092915050565b7f2000000000000000000000000000000000000000000000000000000000000000600082015250565b6000612c48600183612b73565b9150612c5382612c12565b600182019050919050565b6000612c6a8288612b93565b9150612c7582612c3b565b9150612c818287612b93565b9150612c8c82612c3b565b9150612c988286612b93565b9150612ca382612c3b565b9150612caf8285612b93565b9150612cba82612c3b565b9150612cc68284612b93565b91508190509695505050505050565b7f546869732066756e6374696f6e206973207265737472696374656420746f207460008201527f68652077617272616e747927732070726f766964657200000000000000000000602082015250565b6000612d31603683612450565b9150612d3c82612cd5565b604082019050919050565b60006020820190508181036000830152612d6081612d24565b9050919050565b7f4e487b7100000000000000000000000000000000000000000000000000000000600052601160045260246000fd5b6000612da1826123db565b9150612dac836123db565b925082821015612dbf57612dbe612d67565b5b828203905092915050565b7f4e487b7100000000000000000000000000000000000000000000000000000000600052601260045260246000fd5b6000612e04826123db565b9150612e0f836123db565b925082612e1f57612e1e612dca565b5b82820490509291505056fea2646970667358221220b10cf4281487aee84b0c6050e0f1dfe9ea624ab45102a47c1f3219f0c89e899564736f6c634300080d0033",
  "immutableReferences": {
    "52": [
      {
        "length": 32,
        "start": 1795
      }
    ],
    "54": [
      {
        "length": 32,
        "start": 1892
      },
      {
        "length": 32,
        "start": 7472
      },
      {
        "length": 32,
        "start": 7582
      }
    ],
    "56": [
      {
        "length": 32,
        "start": 7508
      }
    ],
    "60": [
      {
        "length": 32,
        "start": 1831
      }
    ]
  },
  "source": "// SPDX-License-Identifier: GPL-3.0\r\n//The pragma command means \"additional information that only the compiler cares about\", \r\n//while the caret symbol (^) means \"the version indicated or higher\".\r\npragma solidity ^0.8.0;\r\n//practice for using the openzeppelin lib https://docs.openzeppelin.com/learn/developing-smart-contracts\r\n//is Context import \"@openzeppelin/contracts/GSN/Context.sol\";\r\n\r\n\r\ncontract BaseWarrantySmartContract {\r\n    struct Party { \r\n        //a struct representing both the contractor and client\r\n        string name; \r\n        address partyAddress;\r\n        Location physicalLocation;\r\n        ContactInformation contactInfo;\r\n    }\r\n    struct Location {\r\n        //a struct for full addresses\r\n        string streetAddressLine1;\r\n        string streetAddressLine2;\r\n        string city;\r\n        string state;\r\n        string postalCode;\r\n    }\r\n    struct ContactInformation {\r\n        //a struct for a party's contact info\r\n        string email;\r\n        string phoneMobile;\r\n        string phoneHome;\r\n    }\r\n    Party public warrantyHolder;    //the client\r\n    ContactInformation private holderContact;\r\n    Party public  warrantyProvider; //the contractor\r\n    Party[] previousHolders;\r\n    string public projectName;\r\n    bool public isTransferable;\r\n    Location public locationOfWork;\r\n    uint public immutable dateOfWorkCompletion; // in seconds since 1970\r\n    uint public immutable warrantyExpirationDate;//seconds since unix epoch\r\n    uint public immutable numberOfDaysToCorrect;//\tNumber of days contractor has to correct defective work before paying charges\r\n    string public descriptionOfProject;\r\n    uint256 public immutable warrantyStartDate;\r\n    enum WarrantyState { INACTIVE, ACTIVE, VOID }\r\n    WarrantyState public stateOfWarranty;\r\n    event CurrentHolderChanged(Party _newOwner);\r\n\r\n    constructor(uint _warrantyExpirationDate, //date in seconds past epoch\r\n                uint _numberOfDaysToCorrect,\r\n                uint _workCompleted, //date in seconds past epoch\r\n                string memory _projectName,\r\n                string memory _description,\r\n                bool _transferable,\r\n                ContactInformation memory  _warrantyHolderContactInfo,\r\n                Party memory _warrantyProvider,\r\n                Party memory _warrantyHolder,\r\n                Location memory _location\r\n    ) {\r\n        dateOfWorkCompletion = _workCompleted;\r\n        warrantyStartDate = block.timestamp;\r\n        warrantyExpirationDate = _warrantyExpirationDate;\r\n        stateOfWarranty = WarrantyState.ACTIVE;\r\n        numberOfDaysToCorrect = _numberOfDaysToCorrect;\r\n        projectName = _projectName;\r\n        descriptionOfProject = _description;\r\n        warrantyProvider = _warrantyProvider;\r\n        holderContact = _warrantyHolderContactInfo;\r\n        warrantyHolder = _warrantyHolder;\r\n        locationOfWork = _location;\r\n        isTransferable = _transferable;\r\n    }\r\n\r\n    function checkIfExpired() public view returns(bool) {\r\n        uint currentTime = block.timestamp;\r\n        if (currentTime > warrantyExpirationDate) {\r\n            return true;\r\n        } \r\n        else {\r\n            return false;\r\n        }\r\n    }\r\n\r\n    function getDaysUntilExpiration() public view returns(uint) {\r\n        //view =  the function only reads the state\r\n        bool isExpired = checkIfExpired();\r\n        if (isExpired) {\r\n            return 0;\r\n        }\r\n        else {\r\n            uint currentTime = block.timestamp;\r\n            return convertSecondsToDays(warrantyExpirationDate - currentTime);\r\n        }\r\n    }\r\n\r\n    function convertSecondsToDays(uint secondsToConvert) internal pure returns(uint) {\r\n        //internal the contract and its derivatives can call the function\r\n        //pure: the function neither reads nor writes to the state\r\n        uint day = 1 days;//amount of seconds in a day\r\n        return secondsToConvert/day;\r\n    }\r\n\r\n    function getLocationAsString() public view returns (string memory) {\r\n        return string(abi.encodePacked(locationOfWork.streetAddressLine1, \" \",\r\n        locationOfWork.streetAddressLine2, \" \",\r\n        locationOfWork.city, \" \",\r\n        locationOfWork.state, \" \",\r\n        locationOfWork.postalCode));\r\n    }\r\n\r\n    modifier holderOnly() {\r\n    require(\r\n      msg.sender == warrantyHolder.partyAddress,\r\n      \"This function is restricted to the contract's holder\"\r\n    );\r\n    _;\r\n  }\r\n\r\n    modifier providerOnly() {\r\n    require(\r\n      msg.sender == warrantyProvider.partyAddress,\r\n      \"This function is restricted to the warranty's provider\"\r\n    );\r\n    _;\r\n  }\r\n    function transferWarrantyToAnotherParty(Party memory newParty)\r\n    external holderOnly {\r\n        //external =  anyone but the contract can call the function. Using the external type instead of public can have a performance boost and potentially save a lot of gas\r\n        //require(msg.sender == warrantyProvider.partyAddress);//should require the by party's permission\r\n        if (isTransferable){\r\n            previousHolders.push(warrantyHolder);\r\n            warrantyHolder = newParty; \r\n            emit CurrentHolderChanged(newParty);\r\n        }\r\n    }\r\n\r\n    function getPreviousHolders() \r\n    external view providerOnly \r\n    returns (Party[] memory) {\r\n        //external =  anyone but the contract can call the function. Using the external type instead of public can have a performance boost and potentially save a lot of gas\r\n        //require(msg.sender == warrantyProvider.partyAddress);//should require the by party's permission\r\n        return previousHolders;\r\n    }\r\n}",
  "sourcePath": "C:\\Users\\lritter\\source\\repos\\plural-sight\\blockchain\\contrator_keeper\\warranty_truffle_project\\contracts\\BaseWarrantySmartContract.sol",
  "compiler": {
    "name": "solc",
    "version": "0.8.13+commit.abaa5c0e.Emscripten.clang"
  },
  "schemaVersion": "3.4.6",
  "updatedAt": "2022-04-15T00:40:19.104Z",
  "networkType": "ethereum",
  "devdoc": {
    "kind": "dev",
    "methods": {},
    "version": 1
  },
  "userdoc": {
    "kind": "user",
    "methods": {},
    "version": 1
  }
}