{
  "contractName": "BaseWarrantySmartContract",
  "abi": [
    {
      "inputs": [
        {
          "internalType": "uint256",
          "name": "_warrantyExpirationDate",
          "type": "uint256"
        },
        {
          "internalType": "bool",
          "name": "_warrantyExpires",
          "type": "bool"
        },
        {
          "internalType": "uint256",
          "name": "_numberOfDaysToCorrect",
          "type": "uint256"
        },
        {
          "internalType": "uint256",
          "name": "_workCompleted",
          "type": "uint256"
        },
        {
          "internalType": "string",
          "name": "_projectName",
          "type": "string"
        },
        {
          "internalType": "string",
          "name": "_description",
          "type": "string"
        },
        {
          "internalType": "bool",
          "name": "_transferable",
          "type": "bool"
        },
        {
          "components": [
            {
              "internalType": "string",
              "name": "name",
              "type": "string"
            },
            {
              "internalType": "address payable",
              "name": "partyAddress",
              "type": "address"
            },
            {
              "components": [
                {
                  "internalType": "string",
                  "name": "streetAddressLine1",
                  "type": "string"
                },
                {
                  "internalType": "string",
                  "name": "streetAddressLine2",
                  "type": "string"
                },
                {
                  "internalType": "string",
                  "name": "city",
                  "type": "string"
                },
                {
                  "internalType": "string",
                  "name": "state",
                  "type": "string"
                },
                {
                  "internalType": "string",
                  "name": "postalCode",
                  "type": "string"
                }
              ],
              "internalType": "struct BaseWarrantySmartContract.Location",
              "name": "physicalLocation",
              "type": "tuple"
            },
            {
              "components": [
                {
                  "internalType": "string",
                  "name": "email",
                  "type": "string"
                },
                {
                  "internalType": "string",
                  "name": "phoneMobile",
                  "type": "string"
                },
                {
                  "internalType": "string",
                  "name": "phoneHome",
                  "type": "string"
                }
              ],
              "internalType": "struct BaseWarrantySmartContract.ContactInformation",
              "name": "contactInfo",
              "type": "tuple"
            }
          ],
          "internalType": "struct BaseWarrantySmartContract.Party",
          "name": "_warrantyProvider",
          "type": "tuple"
        },
        {
          "components": [
            {
              "internalType": "string",
              "name": "name",
              "type": "string"
            },
            {
              "internalType": "address payable",
              "name": "partyAddress",
              "type": "address"
            },
            {
              "components": [
                {
                  "internalType": "string",
                  "name": "streetAddressLine1",
                  "type": "string"
                },
                {
                  "internalType": "string",
                  "name": "streetAddressLine2",
                  "type": "string"
                },
                {
                  "internalType": "string",
                  "name": "city",
                  "type": "string"
                },
                {
                  "internalType": "string",
                  "name": "state",
                  "type": "string"
                },
                {
                  "internalType": "string",
                  "name": "postalCode",
                  "type": "string"
                }
              ],
              "internalType": "struct BaseWarrantySmartContract.Location",
              "name": "physicalLocation",
              "type": "tuple"
            },
            {
              "components": [
                {
                  "internalType": "string",
                  "name": "email",
                  "type": "string"
                },
                {
                  "internalType": "string",
                  "name": "phoneMobile",
                  "type": "string"
                },
                {
                  "internalType": "string",
                  "name": "phoneHome",
                  "type": "string"
                }
              ],
              "internalType": "struct BaseWarrantySmartContract.ContactInformation",
              "name": "contactInfo",
              "type": "tuple"
            }
          ],
          "internalType": "struct BaseWarrantySmartContract.Party",
          "name": "_warrantyHolder",
          "type": "tuple"
        },
        {
          "components": [
            {
              "internalType": "string",
              "name": "streetAddressLine1",
              "type": "string"
            },
            {
              "internalType": "string",
              "name": "streetAddressLine2",
              "type": "string"
            },
            {
              "internalType": "string",
              "name": "city",
              "type": "string"
            },
            {
              "internalType": "string",
              "name": "state",
              "type": "string"
            },
            {
              "internalType": "string",
              "name": "postalCode",
              "type": "string"
            }
          ],
          "internalType": "struct BaseWarrantySmartContract.Location",
          "name": "_location",
          "type": "tuple"
        }
      ],
      "stateMutability": "nonpayable",
      "type": "constructor"
    },
    {
      "anonymous": false,
      "inputs": [
        {
          "components": [
            {
              "internalType": "string",
              "name": "name",
              "type": "string"
            },
            {
              "internalType": "address payable",
              "name": "partyAddress",
              "type": "address"
            },
            {
              "components": [
                {
                  "internalType": "string",
                  "name": "streetAddressLine1",
                  "type": "string"
                },
                {
                  "internalType": "string",
                  "name": "streetAddressLine2",
                  "type": "string"
                },
                {
                  "internalType": "string",
                  "name": "city",
                  "type": "string"
                },
                {
                  "internalType": "string",
                  "name": "state",
                  "type": "string"
                },
                {
                  "internalType": "string",
                  "name": "postalCode",
                  "type": "string"
                }
              ],
              "internalType": "struct BaseWarrantySmartContract.Location",
              "name": "physicalLocation",
              "type": "tuple"
            },
            {
              "components": [
                {
                  "internalType": "string",
                  "name": "email",
                  "type": "string"
                },
                {
                  "internalType": "string",
                  "name": "phoneMobile",
                  "type": "string"
                },
                {
                  "internalType": "string",
                  "name": "phoneHome",
                  "type": "string"
                }
              ],
              "internalType": "struct BaseWarrantySmartContract.ContactInformation",
              "name": "contactInfo",
              "type": "tuple"
            }
          ],
          "indexed": false,
          "internalType": "struct BaseWarrantySmartContract.Party",
          "name": "_newOwner",
          "type": "tuple"
        }
      ],
      "name": "CurrentHolderChanged",
      "type": "event"
    },
    {
      "anonymous": false,
      "inputs": [
        {
          "indexed": false,
          "internalType": "string",
          "name": "_message",
          "type": "string"
        }
      ],
      "name": "WarrantyStateChanged",
      "type": "event"
    },
    {
      "inputs": [],
      "name": "dateOfWorkCompletion",
      "outputs": [
        {
          "internalType": "uint256",
          "name": "",
          "type": "uint256"
        }
      ],
      "stateMutability": "view",
      "type": "function"
    },
    {
      "inputs": [],
      "name": "descriptionOfProject",
      "outputs": [
        {
          "internalType": "string",
          "name": "",
          "type": "string"
        }
      ],
      "stateMutability": "view",
      "type": "function"
    },
    {
      "inputs": [],
      "name": "isTransferable",
      "outputs": [
        {
          "internalType": "bool",
          "name": "",
          "type": "bool"
        }
      ],
      "stateMutability": "view",
      "type": "function"
    },
    {
      "inputs": [],
      "name": "locationOfWork",
      "outputs": [
        {
          "internalType": "string",
          "name": "streetAddressLine1",
          "type": "string"
        },
        {
          "internalType": "string",
          "name": "streetAddressLine2",
          "type": "string"
        },
        {
          "internalType": "string",
          "name": "city",
          "type": "string"
        },
        {
          "internalType": "string",
          "name": "state",
          "type": "string"
        },
        {
          "internalType": "string",
          "name": "postalCode",
          "type": "string"
        }
      ],
      "stateMutability": "view",
      "type": "function"
    },
    {
      "inputs": [],
      "name": "numberOfDaysToCorrect",
      "outputs": [
        {
          "internalType": "uint256",
          "name": "",
          "type": "uint256"
        }
      ],
      "stateMutability": "view",
      "type": "function"
    },
    {
      "inputs": [],
      "name": "projectName",
      "outputs": [
        {
          "internalType": "string",
          "name": "",
          "type": "string"
        }
      ],
      "stateMutability": "view",
      "type": "function"
    },
    {
      "inputs": [],
      "name": "stateOfWarranty",
      "outputs": [
        {
          "internalType": "enum BaseWarrantySmartContract.WarrantyState",
          "name": "",
          "type": "uint8"
        }
      ],
      "stateMutability": "view",
      "type": "function"
    },
    {
      "inputs": [],
      "name": "warrantyExpirationDate",
      "outputs": [
        {
          "internalType": "uint256",
          "name": "",
          "type": "uint256"
        }
      ],
      "stateMutability": "view",
      "type": "function"
    },
    {
      "inputs": [],
      "name": "warrantyExpires",
      "outputs": [
        {
          "internalType": "bool",
          "name": "",
          "type": "bool"
        }
      ],
      "stateMutability": "view",
      "type": "function"
    },
    {
      "inputs": [],
      "name": "warrantyHolder",
      "outputs": [
        {
          "internalType": "string",
          "name": "name",
          "type": "string"
        },
        {
          "internalType": "address payable",
          "name": "partyAddress",
          "type": "address"
        },
        {
          "components": [
            {
              "internalType": "string",
              "name": "streetAddressLine1",
              "type": "string"
            },
            {
              "internalType": "string",
              "name": "streetAddressLine2",
              "type": "string"
            },
            {
              "internalType": "string",
              "name": "city",
              "type": "string"
            },
            {
              "internalType": "string",
              "name": "state",
              "type": "string"
            },
            {
              "internalType": "string",
              "name": "postalCode",
              "type": "string"
            }
          ],
          "internalType": "struct BaseWarrantySmartContract.Location",
          "name": "physicalLocation",
          "type": "tuple"
        },
        {
          "components": [
            {
              "internalType": "string",
              "name": "email",
              "type": "string"
            },
            {
              "internalType": "string",
              "name": "phoneMobile",
              "type": "string"
            },
            {
              "internalType": "string",
              "name": "phoneHome",
              "type": "string"
            }
          ],
          "internalType": "struct BaseWarrantySmartContract.ContactInformation",
          "name": "contactInfo",
          "type": "tuple"
        }
      ],
      "stateMutability": "view",
      "type": "function"
    },
    {
      "inputs": [],
      "name": "warrantyProvider",
      "outputs": [
        {
          "internalType": "string",
          "name": "name",
          "type": "string"
        },
        {
          "internalType": "address payable",
          "name": "partyAddress",
          "type": "address"
        },
        {
          "components": [
            {
              "internalType": "string",
              "name": "streetAddressLine1",
              "type": "string"
            },
            {
              "internalType": "string",
              "name": "streetAddressLine2",
              "type": "string"
            },
            {
              "internalType": "string",
              "name": "city",
              "type": "string"
            },
            {
              "internalType": "string",
              "name": "state",
              "type": "string"
            },
            {
              "internalType": "string",
              "name": "postalCode",
              "type": "string"
            }
          ],
          "internalType": "struct BaseWarrantySmartContract.Location",
          "name": "physicalLocation",
          "type": "tuple"
        },
        {
          "components": [
            {
              "internalType": "string",
              "name": "email",
              "type": "string"
            },
            {
              "internalType": "string",
              "name": "phoneMobile",
              "type": "string"
            },
            {
              "internalType": "string",
              "name": "phoneHome",
              "type": "string"
            }
          ],
          "internalType": "struct BaseWarrantySmartContract.ContactInformation",
          "name": "contactInfo",
          "type": "tuple"
        }
      ],
      "stateMutability": "view",
      "type": "function"
    },
    {
      "inputs": [],
      "name": "warrantyStartDate",
      "outputs": [
        {
          "internalType": "uint256",
          "name": "",
          "type": "uint256"
        }
      ],
      "stateMutability": "view",
      "type": "function"
    },
    {
      "inputs": [
        {
          "internalType": "uint256",
          "name": "amountToEscrow",
          "type": "uint256"
        }
      ],
      "name": "depositToEscrow",
      "outputs": [],
      "stateMutability": "payable",
      "type": "function"
    },
    {
      "inputs": [],
      "name": "voidWarranty",
      "outputs": [],
      "stateMutability": "nonpayable",
      "type": "function"
    },
    {
      "inputs": [],
      "name": "warrantyBreached",
      "outputs": [],
      "stateMutability": "nonpayable",
      "type": "function"
    },
    {
      "inputs": [],
      "name": "checkIfExpired",
      "outputs": [
        {
          "internalType": "bool",
          "name": "",
          "type": "bool"
        }
      ],
      "stateMutability": "view",
      "type": "function"
    },
    {
      "inputs": [],
      "name": "getDaysUntilExpiration",
      "outputs": [
        {
          "internalType": "uint256",
          "name": "",
          "type": "uint256"
        }
      ],
      "stateMutability": "view",
      "type": "function"
    },
    {
      "inputs": [],
      "name": "getLocationAsString",
      "outputs": [
        {
          "internalType": "string",
          "name": "",
          "type": "string"
        }
      ],
      "stateMutability": "view",
      "type": "function"
    },
    {
      "inputs": [
        {
          "components": [
            {
              "internalType": "string",
              "name": "name",
              "type": "string"
            },
            {
              "internalType": "address payable",
              "name": "partyAddress",
              "type": "address"
            },
            {
              "components": [
                {
                  "internalType": "string",
                  "name": "streetAddressLine1",
                  "type": "string"
                },
                {
                  "internalType": "string",
                  "name": "streetAddressLine2",
                  "type": "string"
                },
                {
                  "internalType": "string",
                  "name": "city",
                  "type": "string"
                },
                {
                  "internalType": "string",
                  "name": "state",
                  "type": "string"
                },
                {
                  "internalType": "string",
                  "name": "postalCode",
                  "type": "string"
                }
              ],
              "internalType": "struct BaseWarrantySmartContract.Location",
              "name": "physicalLocation",
              "type": "tuple"
            },
            {
              "components": [
                {
                  "internalType": "string",
                  "name": "email",
                  "type": "string"
                },
                {
                  "internalType": "string",
                  "name": "phoneMobile",
                  "type": "string"
                },
                {
                  "internalType": "string",
                  "name": "phoneHome",
                  "type": "string"
                }
              ],
              "internalType": "struct BaseWarrantySmartContract.ContactInformation",
              "name": "contactInfo",
              "type": "tuple"
            }
          ],
          "internalType": "struct BaseWarrantySmartContract.Party",
          "name": "newParty",
          "type": "tuple"
        }
      ],
      "name": "transferWarrantyToAnotherParty",
      "outputs": [],
      "stateMutability": "nonpayable",
      "type": "function"
    },
    {
      "inputs": [],
      "name": "getPreviousHolders",
      "outputs": [
        {
          "components": [
            {
              "internalType": "string",
              "name": "name",
              "type": "string"
            },
            {
              "internalType": "address payable",
              "name": "partyAddress",
              "type": "address"
            },
            {
              "components": [
                {
                  "internalType": "string",
                  "name": "streetAddressLine1",
                  "type": "string"
                },
                {
                  "internalType": "string",
                  "name": "streetAddressLine2",
                  "type": "string"
                },
                {
                  "internalType": "string",
                  "name": "city",
                  "type": "string"
                },
                {
                  "internalType": "string",
                  "name": "state",
                  "type": "string"
                },
                {
                  "internalType": "string",
                  "name": "postalCode",
                  "type": "string"
                }
              ],
              "internalType": "struct BaseWarrantySmartContract.Location",
              "name": "physicalLocation",
              "type": "tuple"
            },
            {
              "components": [
                {
                  "internalType": "string",
                  "name": "email",
                  "type": "string"
                },
                {
                  "internalType": "string",
                  "name": "phoneMobile",
                  "type": "string"
                },
                {
                  "internalType": "string",
                  "name": "phoneHome",
                  "type": "string"
                }
              ],
              "internalType": "struct BaseWarrantySmartContract.ContactInformation",
              "name": "contactInfo",
              "type": "tuple"
            }
          ],
          "internalType": "struct BaseWarrantySmartContract.Party[]",
          "name": "",
          "type": "tuple[]"
        }
      ],
      "stateMutability": "view",
      "type": "function"
    },
    {
      "inputs": [],
      "name": "getEscrowBalance",
      "outputs": [
        {
          "internalType": "uint256",
          "name": "",
          "type": "uint256"
        }
      ],
      "stateMutability": "view",
      "type": "function"
    }
  ],
  "bytecode": "0x6101206040523480156200001257600080fd5b50604051620045fc380380620045fc833981810160405281019062000038919062000a9b565b866080818152505042610100818152505088151560c0811515815250508960a081815250506001601d60006101000a81548160ff0219169083600381111562000086576200008562000c2c565b5b02179055508760e081815250508560159080519060200190620000ab92919062000483565b5084601c9080519060200190620000c492919062000483565b5082600a6000820151816000019080519060200190620000e692919062000483565b5060208201518160010160006101000a81548173ffffffffffffffffffffffffffffffffffffffff021916908373ffffffffffffffffffffffffffffffffffffffff16021790555060408201518160020160008201518160000190805190602001906200015592919062000483565b5060208201518160010190805190602001906200017492919062000483565b5060408201518160020190805190602001906200019392919062000483565b506060820151816003019080519060200190620001b292919062000483565b506080820151816004019080519060200190620001d192919062000483565b5050506060820151816007016000820151816000019080519060200190620001fb92919062000483565b5060208201518160010190805190602001906200021a92919062000483565b5060408201518160020190805190602001906200023992919062000483565b505050905050816000808201518160000190805190602001906200025f92919062000483565b5060208201518160010160006101000a81548173ffffffffffffffffffffffffffffffffffffffff021916908373ffffffffffffffffffffffffffffffffffffffff1602179055506040820151816002016000820151816000019080519060200190620002ce92919062000483565b506020820151816001019080519060200190620002ed92919062000483565b5060408201518160020190805190602001906200030c92919062000483565b5060608201518160030190805190602001906200032b92919062000483565b5060808201518160040190805190602001906200034a92919062000483565b50505060608201518160070160008201518160000190805190602001906200037492919062000483565b5060208201518160010190805190602001906200039392919062000483565b506040820151816002019080519060200190620003b292919062000483565b5050509050508060176000820151816000019080519060200190620003d992919062000483565b506020820151816001019080519060200190620003f892919062000483565b5060408201518160020190805190602001906200041792919062000483565b5060608201518160030190805190602001906200043692919062000483565b5060808201518160040190805190602001906200045592919062000483565b5090505083601660006101000a81548160ff0219169083151502179055505050505050505050505062000cbf565b828054620004919062000c8a565b90600052602060002090601f016020900481019282620004b5576000855562000501565b82601f10620004d057805160ff191683800117855562000501565b8280016001018555821562000501579182015b8281111562000500578251825591602001919060010190620004e3565b5b50905062000510919062000514565b5090565b5b808211156200052f57600081600090555060010162000515565b5090565b6000604051905090565b600080fd5b600080fd5b6000819050919050565b6200055c8162000547565b81146200056857600080fd5b50565b6000815190506200057c8162000551565b92915050565b60008115159050919050565b620005998162000582565b8114620005a557600080fd5b50565b600081519050620005b9816200058e565b92915050565b600080fd5b600080fd5b6000601f19601f8301169050919050565b7f4e487b7100000000000000000000000000000000000000000000000000000000600052604160045260246000fd5b6200061482620005c9565b810181811067ffffffffffffffff82111715620006365762000635620005da565b5b80604052505050565b60006200064b62000533565b905062000659828262000609565b919050565b600067ffffffffffffffff8211156200067c576200067b620005da565b5b6200068782620005c9565b9050602081019050919050565b60005b83811015620006b457808201518184015260208101905062000697565b83811115620006c4576000848401525b50505050565b6000620006e1620006db846200065e565b6200063f565b9050828152602081018484840111156200070057620006ff620005c4565b5b6200070d84828562000694565b509392505050565b600082601f8301126200072d576200072c620005bf565b5b81516200073f848260208601620006ca565b91505092915050565b600080fd5b600080fd5b600073ffffffffffffffffffffffffffffffffffffffff82169050919050565b60006200077f8262000752565b9050919050565b620007918162000772565b81146200079d57600080fd5b50565b600081519050620007b18162000786565b92915050565b600060a08284031215620007d057620007cf62000748565b5b620007dc60a06200063f565b9050600082015167ffffffffffffffff811115620007ff57620007fe6200074d565b5b6200080d8482850162000715565b600083015250602082015167ffffffffffffffff8111156200083457620008336200074d565b5b620008428482850162000715565b602083015250604082015167ffffffffffffffff8111156200086957620008686200074d565b5b620008778482850162000715565b604083015250606082015167ffffffffffffffff8111156200089e576200089d6200074d565b5b620008ac8482850162000715565b606083015250608082015167ffffffffffffffff811115620008d357620008d26200074d565b5b620008e18482850162000715565b60808301525092915050565b60006060828403121562000906576200090562000748565b5b6200091260606200063f565b9050600082015167ffffffffffffffff8111156200093557620009346200074d565b5b620009438482850162000715565b600083015250602082015167ffffffffffffffff8111156200096a57620009696200074d565b5b620009788482850162000715565b602083015250604082015167ffffffffffffffff8111156200099f576200099e6200074d565b5b620009ad8482850162000715565b60408301525092915050565b600060808284031215620009d257620009d162000748565b5b620009de60806200063f565b9050600082015167ffffffffffffffff81111562000a015762000a006200074d565b5b62000a0f8482850162000715565b600083015250602062000a2584828501620007a0565b602083015250604082015167ffffffffffffffff81111562000a4c5762000a4b6200074d565b5b62000a5a84828501620007b7565b604083015250606082015167ffffffffffffffff81111562000a815762000a806200074d565b5b62000a8f84828501620008ed565b60608301525092915050565b6000806000806000806000806000806101408b8d03121562000ac25762000ac16200053d565b5b600062000ad28d828e016200056b565b9a5050602062000ae58d828e01620005a8565b995050604062000af88d828e016200056b565b985050606062000b0b8d828e016200056b565b97505060808b015167ffffffffffffffff81111562000b2f5762000b2e62000542565b5b62000b3d8d828e0162000715565b96505060a08b015167ffffffffffffffff81111562000b615762000b6062000542565b5b62000b6f8d828e0162000715565b95505060c062000b828d828e01620005a8565b94505060e08b015167ffffffffffffffff81111562000ba65762000ba562000542565b5b62000bb48d828e01620009b9565b9350506101008b015167ffffffffffffffff81111562000bd95762000bd862000542565b5b62000be78d828e01620009b9565b9250506101208b015167ffffffffffffffff81111562000c0c5762000c0b62000542565b5b62000c1a8d828e01620007b7565b9150509295989b9194979a5092959850565b7f4e487b7100000000000000000000000000000000000000000000000000000000600052602160045260246000fd5b7f4e487b7100000000000000000000000000000000000000000000000000000000600052602260045260246000fd5b6000600282049050600182168062000ca357607f821691505b60208210810362000cb95762000cb862000c5b565b5b50919050565b60805160a05160c05160e051610100516138e362000d1960003960006109cc01526000612157015260008181610a090152611372015260008181610a2f0152818161212b01526121a1015260006109a801526138e36000f3fe60806040526004361061012a5760003560e01c806398c5aafe116100ab578063c2c967c91161006f578063c2c967c914610394578063c56e610e146103bf578063cf561a21146103ea578063d89998cf14610415578063daa41e7014610440578063dbae9bca1461045c5761012a565b806398c5aafe146102ce5780639a33e300146102f9578063a02cc58514610324578063a7394b281461033b578063b395fed6146103695761012a565b80632daf311b116100f25780632daf311b146101f05780632e7c0ada1461021b5780634a60886114610249578063645461f5146102745780636c51cd721461029f5761012a565b80630851fa321461012f57806309f174c3146101465780631798c6c91461016f5780631a8a3a401461019a5780632121dc75146101c5575b600080fd5b34801561013b57600080fd5b50610144610487565b005b34801561015257600080fd5b5061016d600480360381019061016891906129a9565b610592565b005b34801561017b57600080fd5b506101846109a6565b6040516101919190612a0b565b60405180910390f35b3480156101a657600080fd5b506101af6109ca565b6040516101bc9190612a0b565b60405180910390f35b3480156101d157600080fd5b506101da6109ee565b6040516101e79190612a41565b60405180910390f35b3480156101fc57600080fd5b50610205610a01565b6040516102129190612a41565b60405180910390f35b34801561022757600080fd5b50610230610a69565b6040516102409493929190612c2d565b60405180910390f35b34801561025557600080fd5b5061025e610fd3565b60405161026b9190612c87565b60405180910390f35b34801561028057600080fd5b50610289611016565b6040516102969190612c87565b60405180910390f35b3480156102ab57600080fd5b506102b46110a4565b6040516102c5959493929190612ca9565b60405180910390f35b3480156102da57600080fd5b506102e3611370565b6040516102f09190612a41565b60405180910390f35b34801561030557600080fd5b5061030e611394565b60405161031b9190612c87565b60405180910390f35b34801561033057600080fd5b50610339611422565b005b34801561034757600080fd5b5061035061152d565b6040516103609493929190612c2d565b60405180910390f35b34801561037557600080fd5b5061037e611a97565b60405161038b9190612f51565b60405180910390f35b3480156103a057600080fd5b506103a9612129565b6040516103b69190612a0b565b60405180910390f35b3480156103cb57600080fd5b506103d461214d565b6040516103e19190612a0b565b60405180910390f35b3480156103f657600080fd5b506103ff612155565b60405161040c9190612a0b565b60405180910390f35b34801561042157600080fd5b5061042a612179565b6040516104379190612a0b565b60405180910390f35b61045a60048036038101906104559190612f9f565b6121d7565b005b34801561046857600080fd5b506104716121e6565b60405161047e9190613043565b60405180910390f35b6001600381111561049b5761049a612fcc565b5b601d60009054906101000a900460ff1660038111156104bd576104bc612fcc565b5b146104fd576040517f08c379a00000000000000000000000000000000000000000000000000000000081526004016104f4906130d0565b60405180910390fd5b6003601d60006101000a81548160ff0219169083600381111561052357610522612fcc565b5b02179055507f4db348fedee9cf7039c9d89a90031a2f7b796555744308762b0e804b9bffc2706015610553610fd3565b604051602001610564929190613304565b6040516020818303038152906040526040516105809190612c87565b60405180910390a16105906121f9565b565b600060010160009054906101000a900473ffffffffffffffffffffffffffffffffffffffff1673ffffffffffffffffffffffffffffffffffffffff163373ffffffffffffffffffffffffffffffffffffffff1614610625576040517f08c379a000000000000000000000000000000000000000000000000000000000815260040161061c906133bb565b60405180910390fd5b601660009054906101000a900460ff16156109a3576014600090806001815401808255809150506001900390600052602060002090600a0201600090919091909150600082018160000190805461067b90613176565b61068692919061241b565b506001820160009054906101000a900473ffffffffffffffffffffffffffffffffffffffff168160010160006101000a81548173ffffffffffffffffffffffffffffffffffffffff021916908373ffffffffffffffffffffffffffffffffffffffff1602179055506002820181600201600082018160000190805461070a90613176565b61071592919061241b565b50600182018160010190805461072a90613176565b61073592919061241b565b50600282018160020190805461074a90613176565b61075592919061241b565b50600382018160030190805461076a90613176565b61077592919061241b565b50600482018160040190805461078a90613176565b61079592919061241b565b505050600782018160070160008201816000019080546107b490613176565b6107bf92919061241b565b5060018201816001019080546107d490613176565b6107df92919061241b565b5060028201816002019080546107f490613176565b6107ff92919061241b565b5050505050806000808201518160000190805190602001906108229291906124a8565b5060208201518160010160006101000a81548173ffffffffffffffffffffffffffffffffffffffff021916908373ffffffffffffffffffffffffffffffffffffffff160217905550604082015181600201600082015181600001908051906020019061088f9291906124a8565b5060208201518160010190805190602001906108ac9291906124a8565b5060408201518160020190805190602001906108c99291906124a8565b5060608201518160030190805190602001906108e69291906124a8565b5060808201518160040190805190602001906109039291906124a8565b505050606082015181600701600082015181600001908051906020019061092b9291906124a8565b5060208201518160010190805190602001906109489291906124a8565b5060408201518160020190805190602001906109659291906124a8565b5050509050507fe8176a51a789da4605a6bf9fc8146fdf034b0181042080626b1696e1218212458160405161099a919061344c565b60405180910390a15b50565b7f000000000000000000000000000000000000000000000000000000000000000081565b7f000000000000000000000000000000000000000000000000000000000000000081565b601660009054906101000a900460ff1681565b6000804290507f000000000000000000000000000000000000000000000000000000000000000015610a60577f0000000000000000000000000000000000000000000000000000000000000000811115610a5f576001915050610a66565b5b60009150505b90565b6000806000018054610a7a90613176565b80601f0160208091040260200160405190810160405280929190818152602001828054610aa690613176565b8015610af35780601f10610ac857610100808354040283529160200191610af3565b820191906000526020600020905b815481529060010190602001808311610ad657829003601f168201915b5050505050908060010160009054906101000a900473ffffffffffffffffffffffffffffffffffffffff1690806002016040518060a0016040529081600082018054610b3e90613176565b80601f0160208091040260200160405190810160405280929190818152602001828054610b6a90613176565b8015610bb75780601f10610b8c57610100808354040283529160200191610bb7565b820191906000526020600020905b815481529060010190602001808311610b9a57829003601f168201915b50505050508152602001600182018054610bd090613176565b80601f0160208091040260200160405190810160405280929190818152602001828054610bfc90613176565b8015610c495780601f10610c1e57610100808354040283529160200191610c49565b820191906000526020600020905b815481529060010190602001808311610c2c57829003601f168201915b50505050508152602001600282018054610c6290613176565b80601f0160208091040260200160405190810160405280929190818152602001828054610c8e90613176565b8015610cdb5780601f10610cb057610100808354040283529160200191610cdb565b820191906000526020600020905b815481529060010190602001808311610cbe57829003601f168201915b50505050508152602001600382018054610cf490613176565b80601f0160208091040260200160405190810160405280929190818152602001828054610d2090613176565b8015610d6d5780601f10610d4257610100808354040283529160200191610d6d565b820191906000526020600020905b815481529060010190602001808311610d5057829003601f168201915b50505050508152602001600482018054610d8690613176565b80601f0160208091040260200160405190810160405280929190818152602001828054610db290613176565b8015610dff5780601f10610dd457610100808354040283529160200191610dff565b820191906000526020600020905b815481529060010190602001808311610de257829003601f168201915b5050505050815250509080600701604051806060016040529081600082018054610e2890613176565b80601f0160208091040260200160405190810160405280929190818152602001828054610e5490613176565b8015610ea15780601f10610e7657610100808354040283529160200191610ea1565b820191906000526020600020905b815481529060010190602001808311610e8457829003601f168201915b50505050508152602001600182018054610eba90613176565b80601f0160208091040260200160405190810160405280929190818152602001828054610ee690613176565b8015610f335780601f10610f0857610100808354040283529160200191610f33565b820191906000526020600020905b815481529060010190602001808311610f1657829003601f168201915b50505050508152602001600282018054610f4c90613176565b80601f0160208091040260200160405190810160405280929190818152602001828054610f7890613176565b8015610fc55780601f10610f9a57610100808354040283529160200191610fc5565b820191906000526020600020905b815481529060010190602001808311610fa857829003601f168201915b505050505081525050905084565b606060176000016017600101601760020160176003016017600401604051602001611002959493929190613506565b604051602081830303815290604052905090565b601c805461102390613176565b80601f016020809104026020016040519081016040528092919081815260200182805461104f90613176565b801561109c5780601f106110715761010080835404028352916020019161109c565b820191906000526020600020905b81548152906001019060200180831161107f57829003601f168201915b505050505081565b60178060000180546110b590613176565b80601f01602080910402602001604051908101604052809291908181526020018280546110e190613176565b801561112e5780601f106111035761010080835404028352916020019161112e565b820191906000526020600020905b81548152906001019060200180831161111157829003601f168201915b50505050509080600101805461114390613176565b80601f016020809104026020016040519081016040528092919081815260200182805461116f90613176565b80156111bc5780601f10611191576101008083540402835291602001916111bc565b820191906000526020600020905b81548152906001019060200180831161119f57829003601f168201915b5050505050908060020180546111d190613176565b80601f01602080910402602001604051908101604052809291908181526020018280546111fd90613176565b801561124a5780601f1061121f5761010080835404028352916020019161124a565b820191906000526020600020905b81548152906001019060200180831161122d57829003601f168201915b50505050509080600301805461125f90613176565b80601f016020809104026020016040519081016040528092919081815260200182805461128b90613176565b80156112d85780601f106112ad576101008083540402835291602001916112d8565b820191906000526020600020905b8154815290600101906020018083116112bb57829003601f168201915b5050505050908060040180546112ed90613176565b80601f016020809104026020016040519081016040528092919081815260200182805461131990613176565b80156113665780601f1061133b57610100808354040283529160200191611366565b820191906000526020600020905b81548152906001019060200180831161134957829003601f168201915b5050505050905085565b7f000000000000000000000000000000000000000000000000000000000000000081565b601580546113a190613176565b80601f01602080910402602001604051908101604052809291908181526020018280546113cd90613176565b801561141a5780601f106113ef5761010080835404028352916020019161141a565b820191906000526020600020905b8154815290600101906020018083116113fd57829003601f168201915b505050505081565b6001600381111561143657611435612fcc565b5b601d60009054906101000a900460ff16600381111561145857611457612fcc565b5b14611498576040517f08c379a000000000000000000000000000000000000000000000000000000000815260040161148f906130d0565b60405180910390fd5b6002601d60006101000a81548160ff021916908360038111156114be576114bd612fcc565b5b02179055507f4db348fedee9cf7039c9d89a90031a2f7b796555744308762b0e804b9bffc27060156114ee610fd3565b6040516020016114ff9291906135c9565b60405160208183030381529060405260405161151b9190612c87565b60405180910390a161152b6122dc565b565b600a80600001805461153e90613176565b80601f016020809104026020016040519081016040528092919081815260200182805461156a90613176565b80156115b75780601f1061158c576101008083540402835291602001916115b7565b820191906000526020600020905b81548152906001019060200180831161159a57829003601f168201915b5050505050908060010160009054906101000a900473ffffffffffffffffffffffffffffffffffffffff1690806002016040518060a001604052908160008201805461160290613176565b80601f016020809104026020016040519081016040528092919081815260200182805461162e90613176565b801561167b5780601f106116505761010080835404028352916020019161167b565b820191906000526020600020905b81548152906001019060200180831161165e57829003601f168201915b5050505050815260200160018201805461169490613176565b80601f01602080910402602001604051908101604052809291908181526020018280546116c090613176565b801561170d5780601f106116e25761010080835404028352916020019161170d565b820191906000526020600020905b8154815290600101906020018083116116f057829003601f168201915b5050505050815260200160028201805461172690613176565b80601f016020809104026020016040519081016040528092919081815260200182805461175290613176565b801561179f5780601f106117745761010080835404028352916020019161179f565b820191906000526020600020905b81548152906001019060200180831161178257829003601f168201915b505050505081526020016003820180546117b890613176565b80601f01602080910402602001604051908101604052809291908181526020018280546117e490613176565b80156118315780601f1061180657610100808354040283529160200191611831565b820191906000526020600020905b81548152906001019060200180831161181457829003601f168201915b5050505050815260200160048201805461184a90613176565b80601f016020809104026020016040519081016040528092919081815260200182805461187690613176565b80156118c35780601f10611898576101008083540402835291602001916118c3565b820191906000526020600020905b8154815290600101906020018083116118a657829003601f168201915b50505050508152505090806007016040518060600160405290816000820180546118ec90613176565b80601f016020809104026020016040519081016040528092919081815260200182805461191890613176565b80156119655780601f1061193a57610100808354040283529160200191611965565b820191906000526020600020905b81548152906001019060200180831161194857829003601f168201915b5050505050815260200160018201805461197e90613176565b80601f01602080910402602001604051908101604052809291908181526020018280546119aa90613176565b80156119f75780601f106119cc576101008083540402835291602001916119f7565b820191906000526020600020905b8154815290600101906020018083116119da57829003601f168201915b50505050508152602001600282018054611a1090613176565b80601f0160208091040260200160405190810160405280929190818152602001828054611a3c90613176565b8015611a895780601f10611a5e57610100808354040283529160200191611a89565b820191906000526020600020905b815481529060010190602001808311611a6c57829003601f168201915b505050505081525050905084565b6060600a60010160009054906101000a900473ffffffffffffffffffffffffffffffffffffffff1673ffffffffffffffffffffffffffffffffffffffff163373ffffffffffffffffffffffffffffffffffffffff1614611b2c576040517f08c379a0000000000000000000000000000000000000000000000000000000008152600401611b2390613680565b60405180910390fd5b6014805480602002602001604051908101604052809291908181526020016000905b8282101561212057838290600052602060002090600a0201604051806080016040529081600082018054611b8190613176565b80601f0160208091040260200160405190810160405280929190818152602001828054611bad90613176565b8015611bfa5780601f10611bcf57610100808354040283529160200191611bfa565b820191906000526020600020905b815481529060010190602001808311611bdd57829003601f168201915b505050505081526020016001820160009054906101000a900473ffffffffffffffffffffffffffffffffffffffff1673ffffffffffffffffffffffffffffffffffffffff1673ffffffffffffffffffffffffffffffffffffffff168152602001600282016040518060a0016040529081600082018054611c7990613176565b80601f0160208091040260200160405190810160405280929190818152602001828054611ca590613176565b8015611cf25780601f10611cc757610100808354040283529160200191611cf2565b820191906000526020600020905b815481529060010190602001808311611cd557829003601f168201915b50505050508152602001600182018054611d0b90613176565b80601f0160208091040260200160405190810160405280929190818152602001828054611d3790613176565b8015611d845780601f10611d5957610100808354040283529160200191611d84565b820191906000526020600020905b815481529060010190602001808311611d6757829003601f168201915b50505050508152602001600282018054611d9d90613176565b80601f0160208091040260200160405190810160405280929190818152602001828054611dc990613176565b8015611e165780601f10611deb57610100808354040283529160200191611e16565b820191906000526020600020905b815481529060010190602001808311611df957829003601f168201915b50505050508152602001600382018054611e2f90613176565b80601f0160208091040260200160405190810160405280929190818152602001828054611e5b90613176565b8015611ea85780601f10611e7d57610100808354040283529160200191611ea8565b820191906000526020600020905b815481529060010190602001808311611e8b57829003601f168201915b50505050508152602001600482018054611ec190613176565b80601f0160208091040260200160405190810160405280929190818152602001828054611eed90613176565b8015611f3a5780601f10611f0f57610100808354040283529160200191611f3a565b820191906000526020600020905b815481529060010190602001808311611f1d57829003601f168201915b505050505081525050815260200160078201604051806060016040529081600082018054611f6790613176565b80601f0160208091040260200160405190810160405280929190818152602001828054611f9390613176565b8015611fe05780601f10611fb557610100808354040283529160200191611fe0565b820191906000526020600020905b815481529060010190602001808311611fc357829003601f168201915b50505050508152602001600182018054611ff990613176565b80601f016020809104026020016040519081016040528092919081815260200182805461202590613176565b80156120725780601f1061204757610100808354040283529160200191612072565b820191906000526020600020905b81548152906001019060200180831161205557829003601f168201915b5050505050815260200160028201805461208b90613176565b80601f01602080910402602001604051908101604052809291908181526020018280546120b790613176565b80156121045780601f106120d957610100808354040283529160200191612104565b820191906000526020600020905b8154815290600101906020018083116120e757829003601f168201915b5050505050815250508152505081526020019060010190611b4e565b50505050905090565b7f000000000000000000000000000000000000000000000000000000000000000081565b600047905090565b7f000000000000000000000000000000000000000000000000000000000000000081565b600080612184610a01565b905080156121965760009150506121d4565b60004290506121cf817f00000000000000000000000000000000000000000000000000000000000000006121ca91906136cf565b6123fe565b925050505b90565b8034146121e357600080fd5b50565b601d60009054906101000a900460ff1681565b60038081111561220c5761220b612fcc565b5b601d60009054906101000a900460ff16600381111561222e5761222d612fcc565b5b1461226e576040517f08c379a000000000000000000000000000000000000000000000000000000000815260040161226590613775565b60405180910390fd5b600060010160009054906101000a900473ffffffffffffffffffffffffffffffffffffffff1673ffffffffffffffffffffffffffffffffffffffff166108fc479081150290604051600060405180830381858888f193505050501580156122d9573d6000803e3d6000fd5b50565b600060038111156122f0576122ef612fcc565b5b601d60009054906101000a900460ff16600381111561231257612311612fcc565b5b148061235157506002600381111561232d5761232c612fcc565b5b601d60009054906101000a900460ff16600381111561234f5761234e612fcc565b5b145b612390576040517f08c379a00000000000000000000000000000000000000000000000000000000081526004016123879061382d565b60405180910390fd5b600a60010160009054906101000a900473ffffffffffffffffffffffffffffffffffffffff1673ffffffffffffffffffffffffffffffffffffffff166108fc479081150290604051600060405180830381858888f193505050501580156123fb573d6000803e3d6000fd5b50565b6000806201518090508083612413919061387c565b915050919050565b82805461242790613176565b90600052602060002090601f0160209004810192826124495760008555612497565b82601f1061245a5780548555612497565b8280016001018555821561249757600052602060002091601f016020900482015b8281111561249657825482559160010191906001019061247b565b5b5090506124a4919061252e565b5090565b8280546124b490613176565b90600052602060002090601f0160209004810192826124d6576000855561251d565b82601f106124ef57805160ff191683800117855561251d565b8280016001018555821561251d579182015b8281111561251c578251825591602001919060010190612501565b5b50905061252a919061252e565b5090565b5b8082111561254757600081600090555060010161252f565b5090565b6000604051905090565b600080fd5b600080fd5b600080fd5b6000601f19601f8301169050919050565b7f4e487b7100000000000000000000000000000000000000000000000000000000600052604160045260246000fd5b6125ad82612564565b810181811067ffffffffffffffff821117156125cc576125cb612575565b5b80604052505050565b60006125df61254b565b90506125eb82826125a4565b919050565b600080fd5b600080fd5b600080fd5b600067ffffffffffffffff82111561261a57612619612575565b5b61262382612564565b9050602081019050919050565b82818337600083830152505050565b600061265261264d846125ff565b6125d5565b90508281526020810184848401111561266e5761266d6125fa565b5b612679848285612630565b509392505050565b600082601f830112612696576126956125f5565b5b81356126a684826020860161263f565b91505092915050565b600073ffffffffffffffffffffffffffffffffffffffff82169050919050565b60006126da826126af565b9050919050565b6126ea816126cf565b81146126f557600080fd5b50565b600081359050612707816126e1565b92915050565b600060a082840312156127235761272261255f565b5b61272d60a06125d5565b9050600082013567ffffffffffffffff81111561274d5761274c6125f0565b5b61275984828501612681565b600083015250602082013567ffffffffffffffff81111561277d5761277c6125f0565b5b61278984828501612681565b602083015250604082013567ffffffffffffffff8111156127ad576127ac6125f0565b5b6127b984828501612681565b604083015250606082013567ffffffffffffffff8111156127dd576127dc6125f0565b5b6127e984828501612681565b606083015250608082013567ffffffffffffffff81111561280d5761280c6125f0565b5b61281984828501612681565b60808301525092915050565b60006060828403121561283b5761283a61255f565b5b61284560606125d5565b9050600082013567ffffffffffffffff811115612865576128646125f0565b5b61287184828501612681565b600083015250602082013567ffffffffffffffff811115612895576128946125f0565b5b6128a184828501612681565b602083015250604082013567ffffffffffffffff8111156128c5576128c46125f0565b5b6128d184828501612681565b60408301525092915050565b6000608082840312156128f3576128f261255f565b5b6128fd60806125d5565b9050600082013567ffffffffffffffff81111561291d5761291c6125f0565b5b61292984828501612681565b600083015250602061293d848285016126f8565b602083015250604082013567ffffffffffffffff811115612961576129606125f0565b5b61296d8482850161270d565b604083015250606082013567ffffffffffffffff811115612991576129906125f0565b5b61299d84828501612825565b60608301525092915050565b6000602082840312156129bf576129be612555565b5b600082013567ffffffffffffffff8111156129dd576129dc61255a565b5b6129e9848285016128dd565b91505092915050565b6000819050919050565b612a05816129f2565b82525050565b6000602082019050612a2060008301846129fc565b92915050565b60008115159050919050565b612a3b81612a26565b82525050565b6000602082019050612a566000830184612a32565b92915050565b600081519050919050565b600082825260208201905092915050565b60005b83811015612a96578082015181840152602081019050612a7b565b83811115612aa5576000848401525b50505050565b6000612ab682612a5c565b612ac08185612a67565b9350612ad0818560208601612a78565b612ad981612564565b840191505092915050565b612aed816126cf565b82525050565b600082825260208201905092915050565b6000612b0f82612a5c565b612b198185612af3565b9350612b29818560208601612a78565b612b3281612564565b840191505092915050565b600060a0830160008301518482036000860152612b5a8282612b04565b91505060208301518482036020860152612b748282612b04565b91505060408301518482036040860152612b8e8282612b04565b91505060608301518482036060860152612ba88282612b04565b91505060808301518482036080860152612bc28282612b04565b9150508091505092915050565b60006060830160008301518482036000860152612bec8282612b04565b91505060208301518482036020860152612c068282612b04565b91505060408301518482036040860152612c208282612b04565b9150508091505092915050565b60006080820190508181036000830152612c478187612aab565b9050612c566020830186612ae4565b8181036040830152612c688185612b3d565b90508181036060830152612c7c8184612bcf565b905095945050505050565b60006020820190508181036000830152612ca18184612aab565b905092915050565b600060a0820190508181036000830152612cc38188612aab565b90508181036020830152612cd78187612aab565b90508181036040830152612ceb8186612aab565b90508181036060830152612cff8185612aab565b90508181036080830152612d138184612aab565b90509695505050505050565b600081519050919050565b600082825260208201905092915050565b6000819050602082019050919050565b612d54816126cf565b82525050565b600060a0830160008301518482036000860152612d778282612b04565b91505060208301518482036020860152612d918282612b04565b91505060408301518482036040860152612dab8282612b04565b91505060608301518482036060860152612dc58282612b04565b91505060808301518482036080860152612ddf8282612b04565b9150508091505092915050565b60006060830160008301518482036000860152612e098282612b04565b91505060208301518482036020860152612e238282612b04565b91505060408301518482036040860152612e3d8282612b04565b9150508091505092915050565b60006080830160008301518482036000860152612e678282612b04565b9150506020830151612e7c6020860182612d4b565b5060408301518482036040860152612e948282612d5a565b91505060608301518482036060860152612eae8282612dec565b9150508091505092915050565b6000612ec78383612e4a565b905092915050565b6000602082019050919050565b6000612ee782612d1f565b612ef18185612d2a565b935083602082028501612f0385612d3b565b8060005b85811015612f3f5784840389528151612f208582612ebb565b9450612f2b83612ecf565b925060208a01995050600181019050612f07565b50829750879550505050505092915050565b60006020820190508181036000830152612f6b8184612edc565b905092915050565b612f7c816129f2565b8114612f8757600080fd5b50565b600081359050612f9981612f73565b92915050565b600060208284031215612fb557612fb4612555565b5b6000612fc384828501612f8a565b91505092915050565b7f4e487b7100000000000000000000000000000000000000000000000000000000600052602160045260246000fd5b6004811061300c5761300b612fcc565b5b50565b600081905061301d82612ffb565b919050565b600061302d8261300f565b9050919050565b61303d81613022565b82525050565b60006020820190506130586000830184613034565b92915050565b7f546869732066756e6374696f6e206d6179206f6e6c792062652075736564206960008201527f662074686520636f6e7472616374206973206163746976650000000000000000602082015250565b60006130ba603883612a67565b91506130c58261305e565b604082019050919050565b600060208201905081810360008301526130e9816130ad565b9050919050565b600081905092915050565b7f5468652077617272616e747920666f7220746865200000000000000000000000600082015250565b60006131316015836130f0565b915061313c826130fb565b601582019050919050565b7f4e487b7100000000000000000000000000000000000000000000000000000000600052602260045260246000fd5b6000600282049050600182168061318e57607f821691505b6020821081036131a1576131a0613147565b5b50919050565b60008190508160005260206000209050919050565b600081546131c981613176565b6131d381866130f0565b945060018216600081146131ee57600181146131ff57613232565b60ff19831686528186019350613232565b613208856131a7565b60005b8381101561322a5781548189015260018201915060208101905061320b565b838801955050505b50505092915050565b7f2061742000000000000000000000000000000000000000000000000000000000600082015250565b60006132716004836130f0565b915061327c8261323b565b600482019050919050565b600061329282612a5c565b61329c81856130f0565b93506132ac818560208601612a78565b80840191505092915050565b7f20686173206265656e2062726561636865640000000000000000000000000000600082015250565b60006132ee6012836130f0565b91506132f9826132b8565b601282019050919050565b600061330f82613124565b915061331b82856131bc565b915061332682613264565b91506133328284613287565b915061333d826132e1565b91508190509392505050565b7f546869732066756e6374696f6e206973207265737472696374656420746f207460008201527f686520636f6e7472616374277320686f6c646572000000000000000000000000602082015250565b60006133a5603483612a67565b91506133b082613349565b604082019050919050565b600060208201905081810360008301526133d481613398565b9050919050565b600060808301600083015184820360008601526133f88282612b04565b915050602083015161340d6020860182612d4b565b50604083015184820360408601526134258282612d5a565b9150506060830151848203606086015261343f8282612dec565b9150508091505092915050565b6000602082019050818103600083015261346681846133db565b905092915050565b7f2000000000000000000000000000000000000000000000000000000000000000600082015250565b60006134a46001836130f0565b91506134af8261346e565b600182019050919050565b7f2c20000000000000000000000000000000000000000000000000000000000000600082015250565b60006134f06002836130f0565b91506134fb826134ba565b600282019050919050565b600061351282886131bc565b915061351d82613497565b915061352982876131bc565b915061353482613497565b915061354082866131bc565b915061354b826134e3565b915061355782856131bc565b915061356282613497565b915061356e82846131bc565b91508190509695505050505050565b7f20686173206265656e20766f6964656400000000000000000000000000000000600082015250565b60006135b36010836130f0565b91506135be8261357d565b601082019050919050565b60006135d482613124565b91506135e082856131bc565b91506135eb82613264565b91506135f78284613287565b9150613602826135a6565b91508190509392505050565b7f546869732066756e6374696f6e206973207265737472696374656420746f207460008201527f68652077617272616e747927732070726f766964657200000000000000000000602082015250565b600061366a603683612a67565b91506136758261360e565b604082019050919050565b600060208201905081810360008301526136998161365d565b9050919050565b7f4e487b7100000000000000000000000000000000000000000000000000000000600052601160045260246000fd5b60006136da826129f2565b91506136e5836129f2565b9250828210156136f8576136f76136a0565b5b828203905092915050565b7f546869732066756e6374696f6e206d6179206f6e6c792062652075736564206960008201527f662074686520636f6e7472616374206973206272656163686564000000000000602082015250565b600061375f603a83612a67565b915061376a82613703565b604082019050919050565b6000602082019050818103600083015261378e81613752565b9050919050565b7f546869732066756e6374696f6e206d6179206f6e6c792062652075736564206960008201527f662074686520636f6e747261637420697320696e616374697665206f7220766f60208201527f6964656400000000000000000000000000000000000000000000000000000000604082015250565b6000613817604483612a67565b915061382282613795565b606082019050919050565b600060208201905081810360008301526138468161380a565b9050919050565b7f4e487b7100000000000000000000000000000000000000000000000000000000600052601260045260246000fd5b6000613887826129f2565b9150613892836129f2565b9250826138a2576138a161384d565b5b82820490509291505056fea2646970667358221220c43a01cbe010793260a29144783ae758e0d559195cb84092e95338eb3078bddd64736f6c634300080d0033",
  "immutableReferences": {
    "49": [
      {
        "length": 32,
        "start": 2472
      }
    ],
    "51": [
      {
        "length": 32,
        "start": 2607
      },
      {
        "length": 32,
        "start": 8491
      },
      {
        "length": 32,
        "start": 8609
      }
    ],
    "53": [
      {
        "length": 32,
        "start": 2569
      },
      {
        "length": 32,
        "start": 4978
      }
    ],
    "55": [
      {
        "length": 32,
        "start": 8535
      }
    ],
    "59": [
      {
        "length": 32,
        "start": 2508
      }
    ]
  },
  "source": "// SPDX-License-Identifier: GPL-3.0\r\n//The pragma command means \"additional information that only the compiler cares about\", \r\n//while the caret symbol (^) means \"the version indicated or higher\".\r\npragma solidity ^0.8.0;\r\n//practice for using the openzeppelin lib https://docs.openzeppelin.com/learn/developing-smart-contracts\r\n//is Context import \"@openzeppelin/contracts/GSN/Context.sol\";\r\n\r\n\r\ncontract BaseWarrantySmartContract {\r\n    struct Party { \r\n        //a struct representing both the contractor and client\r\n        string name; \r\n        address payable partyAddress;\r\n        Location physicalLocation;\r\n        ContactInformation contactInfo;\r\n    }\r\n    struct Location {\r\n        //a struct for full addresses\r\n        string streetAddressLine1;\r\n        string streetAddressLine2;\r\n        string city;\r\n        string state;\r\n        string postalCode;\r\n    }\r\n    struct ContactInformation {\r\n        //a struct for a party's contact info\r\n        string email;\r\n        string phoneMobile;\r\n        string phoneHome;\r\n    }\r\n    Party public warrantyHolder;    //the client\r\n    Party public  warrantyProvider; //the contractor\r\n    Party[] previousHolders;\r\n    string public projectName;\r\n    bool public isTransferable;\r\n    Location public locationOfWork;\r\n    uint public immutable dateOfWorkCompletion; // in seconds since 1970\r\n    uint public immutable warrantyExpirationDate;//seconds since unix epoch\r\n    bool public immutable warrantyExpires;\r\n    uint public immutable numberOfDaysToCorrect;//\tNumber of days contractor has to correct defective work before paying charges\r\n    string public descriptionOfProject;\r\n    uint256 public immutable warrantyStartDate;\r\n    enum WarrantyState { INACTIVE, ACTIVE, VOID, BREACHED }\r\n    WarrantyState public stateOfWarranty;\r\n    event CurrentHolderChanged(Party _newOwner);\r\n    event WarrantyStateChanged(string _message);\r\n\r\n    constructor (uint _warrantyExpirationDate, //date in seconds past epoch\r\n                bool _warrantyExpires,\r\n                uint _numberOfDaysToCorrect,\r\n                uint _workCompleted, //date in seconds past epoch\r\n                string memory _projectName,\r\n                string memory _description,\r\n                bool _transferable,\r\n                Party memory _warrantyProvider,\r\n                Party memory _warrantyHolder,\r\n                Location memory _location\r\n    ) {\r\n        dateOfWorkCompletion = _workCompleted;\r\n        warrantyStartDate = block.timestamp;\r\n        warrantyExpires = _warrantyExpires;\r\n        warrantyExpirationDate = _warrantyExpirationDate;\r\n        stateOfWarranty = WarrantyState.ACTIVE;\r\n        numberOfDaysToCorrect = _numberOfDaysToCorrect;\r\n        projectName = _projectName;\r\n        descriptionOfProject = _description;\r\n        warrantyProvider = _warrantyProvider;\r\n        warrantyHolder = _warrantyHolder;\r\n        locationOfWork = _location;\r\n        isTransferable = _transferable;\r\n    }\r\n\r\n    function depositToEscrow(uint256 amountToEscrow) public payable {\r\n        require(msg.value == amountToEscrow);\r\n\r\n    }\r\n\r\n\r\n    modifier mustBeActive() {\r\n        require(\r\n            stateOfWarranty == WarrantyState.ACTIVE,\r\n            \"This function may only be used if the contract is active\"\r\n        );\r\n        _;\r\n    }\r\n\r\n    modifier mustBeBreached() {\r\n        require(\r\n            stateOfWarranty == WarrantyState.BREACHED,\r\n            \"This function may only be used if the contract is breached\"\r\n        );\r\n        _;\r\n    }\r\n\r\n    modifier mustBeInactiveOrVoid() {\r\n        require(\r\n            (stateOfWarranty == WarrantyState.INACTIVE\t|| stateOfWarranty == WarrantyState.VOID),\r\n            \"This function may only be used if the contract is inactive or voided\"\r\n        );\r\n        _;\r\n    }\r\n\r\n    function voidWarranty() public mustBeActive {\r\n        stateOfWarranty = WarrantyState.VOID;\r\n        emit WarrantyStateChanged(string(abi.encodePacked(\"The warranty for the \", projectName, \" at \", getLocationAsString(), \" has been voided\")));\r\n        contractorPayout();\r\n    }\r\n\r\n    function warrantyBreached() public mustBeActive {\r\n        stateOfWarranty = WarrantyState.BREACHED;\r\n        emit WarrantyStateChanged(string(abi.encodePacked(\"The warranty for the \", projectName, \" at \", getLocationAsString(), \" has been breached\")));\r\n        holderPayout();\r\n    }\r\n\r\n    function checkIfExpired() public view returns(bool) {\r\n        uint currentTime = block.timestamp;\r\n        if (warrantyExpires) {\r\n            if (currentTime > warrantyExpirationDate) {\r\n                return true;\r\n            }        \r\n        }\r\n        return false;\r\n    }\r\n\r\n    function getDaysUntilExpiration() public view returns(uint) {\r\n        //view =  the function only reads the state\r\n        bool isExpired = checkIfExpired();\r\n        if (isExpired) {\r\n            return 0;\r\n        }\r\n        else {\r\n            uint currentTime = block.timestamp;\r\n            return convertSecondsToDays(warrantyExpirationDate - currentTime);\r\n        }\r\n    }\r\n\r\n    function convertSecondsToDays(uint secondsToConvert) internal pure returns(uint) {\r\n        //internal the contract and its derivatives can call the function\r\n        //pure: the function neither reads nor writes to the state\r\n        uint day = 1 days;//amount of seconds in a day\r\n        return secondsToConvert/day;\r\n    }\r\n\r\n    function getLocationAsString() public view returns (string memory) {\r\n        return string(abi.encodePacked(locationOfWork.streetAddressLine1, \" \",\r\n        locationOfWork.streetAddressLine2, \" \",\r\n        locationOfWork.city, \", \",\r\n        locationOfWork.state, \" \",\r\n        locationOfWork.postalCode));\r\n    }\r\n\r\n    modifier holderOnly() {\r\n    require(\r\n      msg.sender == warrantyHolder.partyAddress,\r\n      \"This function is restricted to the contract's holder\"\r\n    );\r\n    _;\r\n  }\r\n\r\n    modifier providerOnly() {\r\n    require(\r\n      msg.sender == warrantyProvider.partyAddress,\r\n      \"This function is restricted to the warranty's provider\"\r\n    );\r\n    _;\r\n  }\r\n    function transferWarrantyToAnotherParty(Party memory newParty)\r\n    external holderOnly {\r\n        //external =  anyone but the contract can call the function. Using the external type instead of public can have a performance boost and potentially save a lot of gas\r\n        //require(msg.sender == warrantyProvider.partyAddress);//should require the by party's permission\r\n        if (isTransferable){\r\n            previousHolders.push(warrantyHolder);\r\n            warrantyHolder = newParty; \r\n            emit CurrentHolderChanged(newParty);\r\n        }\r\n    }\r\n\r\n    function getPreviousHolders() \r\n    external view providerOnly \r\n    returns (Party[] memory) {\r\n        //external =  anyone but the contract can call the function. Using the external type instead of public can have a performance boost and potentially save a lot of gas\r\n        //require(msg.sender == warrantyProvider.partyAddress);//should require the by party's permission\r\n        return previousHolders;\r\n    }\r\n\r\n    //lets say as a way to discourage breach of warranty, the contractor puts some ETH into the contract\r\n    function getEscrowBalance() public view returns (uint256) {\r\n        return address(this).balance;\r\n    }\r\n\r\n    //the only way the contractor can get it back is when the warranty expires or gets voided\r\n    function contractorPayout() private mustBeInactiveOrVoid {\r\n        warrantyProvider.partyAddress.transfer(address(this).balance);\r\n    }\r\n\r\n    //if the contractor breaches the warranty, then the balance goes to the warranty holder to make up for the damages\r\n    function holderPayout() private mustBeBreached {\r\n        warrantyHolder.partyAddress.transfer(address(this).balance);\r\n    }   \r\n}",
  "sourcePath": "C:\\Users\\lritter\\source\\repos\\plural-sight\\blockchain\\contrator_keeper\\warranty_truffle_project\\contracts\\BaseWarrantySmartContract.sol",
  "compiler": {
    "name": "solc",
    "version": "0.8.13+commit.abaa5c0e.Emscripten.clang"
  },
  "schemaVersion": "3.4.6",
  "updatedAt": "2022-04-28T06:05:29.634Z",
  "devdoc": {
    "kind": "dev",
    "methods": {},
    "version": 1
  },
  "userdoc": {
    "kind": "user",
    "methods": {},
    "version": 1
  }
}