{
  "contractName": "BaseWarrantySmartContract",
  "abi": [
    {
      "inputs": [
        {
          "internalType": "uint256",
          "name": "_warrantyExpirationDate",
          "type": "uint256"
        },
        {
          "internalType": "bool",
          "name": "_warrantyExpires",
          "type": "bool"
        },
        {
          "internalType": "uint256",
          "name": "_numberOfDaysToCorrect",
          "type": "uint256"
        },
        {
          "internalType": "uint256",
          "name": "_workCompleted",
          "type": "uint256"
        },
        {
          "internalType": "string",
          "name": "_projectName",
          "type": "string"
        },
        {
          "internalType": "string",
          "name": "_description",
          "type": "string"
        },
        {
          "internalType": "bool",
          "name": "_transferable",
          "type": "bool"
        },
        {
          "components": [
            {
              "internalType": "string",
              "name": "name",
              "type": "string"
            },
            {
              "internalType": "address",
              "name": "partyAddress",
              "type": "address"
            },
            {
              "components": [
                {
                  "internalType": "string",
                  "name": "streetAddressLine1",
                  "type": "string"
                },
                {
                  "internalType": "string",
                  "name": "streetAddressLine2",
                  "type": "string"
                },
                {
                  "internalType": "string",
                  "name": "city",
                  "type": "string"
                },
                {
                  "internalType": "string",
                  "name": "state",
                  "type": "string"
                },
                {
                  "internalType": "string",
                  "name": "postalCode",
                  "type": "string"
                }
              ],
              "internalType": "struct BaseWarrantySmartContract.Location",
              "name": "physicalLocation",
              "type": "tuple"
            },
            {
              "components": [
                {
                  "internalType": "string",
                  "name": "email",
                  "type": "string"
                },
                {
                  "internalType": "string",
                  "name": "phoneMobile",
                  "type": "string"
                },
                {
                  "internalType": "string",
                  "name": "phoneHome",
                  "type": "string"
                }
              ],
              "internalType": "struct BaseWarrantySmartContract.ContactInformation",
              "name": "contactInfo",
              "type": "tuple"
            }
          ],
          "internalType": "struct BaseWarrantySmartContract.Party",
          "name": "_warrantyProvider",
          "type": "tuple"
        },
        {
          "components": [
            {
              "internalType": "string",
              "name": "name",
              "type": "string"
            },
            {
              "internalType": "address",
              "name": "partyAddress",
              "type": "address"
            },
            {
              "components": [
                {
                  "internalType": "string",
                  "name": "streetAddressLine1",
                  "type": "string"
                },
                {
                  "internalType": "string",
                  "name": "streetAddressLine2",
                  "type": "string"
                },
                {
                  "internalType": "string",
                  "name": "city",
                  "type": "string"
                },
                {
                  "internalType": "string",
                  "name": "state",
                  "type": "string"
                },
                {
                  "internalType": "string",
                  "name": "postalCode",
                  "type": "string"
                }
              ],
              "internalType": "struct BaseWarrantySmartContract.Location",
              "name": "physicalLocation",
              "type": "tuple"
            },
            {
              "components": [
                {
                  "internalType": "string",
                  "name": "email",
                  "type": "string"
                },
                {
                  "internalType": "string",
                  "name": "phoneMobile",
                  "type": "string"
                },
                {
                  "internalType": "string",
                  "name": "phoneHome",
                  "type": "string"
                }
              ],
              "internalType": "struct BaseWarrantySmartContract.ContactInformation",
              "name": "contactInfo",
              "type": "tuple"
            }
          ],
          "internalType": "struct BaseWarrantySmartContract.Party",
          "name": "_warrantyHolder",
          "type": "tuple"
        },
        {
          "components": [
            {
              "internalType": "string",
              "name": "streetAddressLine1",
              "type": "string"
            },
            {
              "internalType": "string",
              "name": "streetAddressLine2",
              "type": "string"
            },
            {
              "internalType": "string",
              "name": "city",
              "type": "string"
            },
            {
              "internalType": "string",
              "name": "state",
              "type": "string"
            },
            {
              "internalType": "string",
              "name": "postalCode",
              "type": "string"
            }
          ],
          "internalType": "struct BaseWarrantySmartContract.Location",
          "name": "_location",
          "type": "tuple"
        }
      ],
      "stateMutability": "nonpayable",
      "type": "constructor"
    },
    {
      "anonymous": false,
      "inputs": [
        {
          "components": [
            {
              "internalType": "string",
              "name": "name",
              "type": "string"
            },
            {
              "internalType": "address",
              "name": "partyAddress",
              "type": "address"
            },
            {
              "components": [
                {
                  "internalType": "string",
                  "name": "streetAddressLine1",
                  "type": "string"
                },
                {
                  "internalType": "string",
                  "name": "streetAddressLine2",
                  "type": "string"
                },
                {
                  "internalType": "string",
                  "name": "city",
                  "type": "string"
                },
                {
                  "internalType": "string",
                  "name": "state",
                  "type": "string"
                },
                {
                  "internalType": "string",
                  "name": "postalCode",
                  "type": "string"
                }
              ],
              "internalType": "struct BaseWarrantySmartContract.Location",
              "name": "physicalLocation",
              "type": "tuple"
            },
            {
              "components": [
                {
                  "internalType": "string",
                  "name": "email",
                  "type": "string"
                },
                {
                  "internalType": "string",
                  "name": "phoneMobile",
                  "type": "string"
                },
                {
                  "internalType": "string",
                  "name": "phoneHome",
                  "type": "string"
                }
              ],
              "internalType": "struct BaseWarrantySmartContract.ContactInformation",
              "name": "contactInfo",
              "type": "tuple"
            }
          ],
          "indexed": false,
          "internalType": "struct BaseWarrantySmartContract.Party",
          "name": "_newOwner",
          "type": "tuple"
        }
      ],
      "name": "CurrentHolderChanged",
      "type": "event"
    },
    {
      "anonymous": false,
      "inputs": [
        {
          "indexed": false,
          "internalType": "string",
          "name": "_message",
          "type": "string"
        }
      ],
      "name": "WarrantyVoided",
      "type": "event"
    },
    {
      "inputs": [],
      "name": "dateOfWorkCompletion",
      "outputs": [
        {
          "internalType": "uint256",
          "name": "",
          "type": "uint256"
        }
      ],
      "stateMutability": "view",
      "type": "function"
    },
    {
      "inputs": [],
      "name": "descriptionOfProject",
      "outputs": [
        {
          "internalType": "string",
          "name": "",
          "type": "string"
        }
      ],
      "stateMutability": "view",
      "type": "function"
    },
    {
      "inputs": [],
      "name": "isTransferable",
      "outputs": [
        {
          "internalType": "bool",
          "name": "",
          "type": "bool"
        }
      ],
      "stateMutability": "view",
      "type": "function"
    },
    {
      "inputs": [],
      "name": "locationOfWork",
      "outputs": [
        {
          "internalType": "string",
          "name": "streetAddressLine1",
          "type": "string"
        },
        {
          "internalType": "string",
          "name": "streetAddressLine2",
          "type": "string"
        },
        {
          "internalType": "string",
          "name": "city",
          "type": "string"
        },
        {
          "internalType": "string",
          "name": "state",
          "type": "string"
        },
        {
          "internalType": "string",
          "name": "postalCode",
          "type": "string"
        }
      ],
      "stateMutability": "view",
      "type": "function"
    },
    {
      "inputs": [],
      "name": "numberOfDaysToCorrect",
      "outputs": [
        {
          "internalType": "uint256",
          "name": "",
          "type": "uint256"
        }
      ],
      "stateMutability": "view",
      "type": "function"
    },
    {
      "inputs": [],
      "name": "projectName",
      "outputs": [
        {
          "internalType": "string",
          "name": "",
          "type": "string"
        }
      ],
      "stateMutability": "view",
      "type": "function"
    },
    {
      "inputs": [],
      "name": "stateOfWarranty",
      "outputs": [
        {
          "internalType": "enum BaseWarrantySmartContract.WarrantyState",
          "name": "",
          "type": "uint8"
        }
      ],
      "stateMutability": "view",
      "type": "function"
    },
    {
      "inputs": [],
      "name": "warrantyExpirationDate",
      "outputs": [
        {
          "internalType": "uint256",
          "name": "",
          "type": "uint256"
        }
      ],
      "stateMutability": "view",
      "type": "function"
    },
    {
      "inputs": [],
      "name": "warrantyExpires",
      "outputs": [
        {
          "internalType": "bool",
          "name": "",
          "type": "bool"
        }
      ],
      "stateMutability": "view",
      "type": "function"
    },
    {
      "inputs": [],
      "name": "warrantyHolder",
      "outputs": [
        {
          "internalType": "string",
          "name": "name",
          "type": "string"
        },
        {
          "internalType": "address",
          "name": "partyAddress",
          "type": "address"
        },
        {
          "components": [
            {
              "internalType": "string",
              "name": "streetAddressLine1",
              "type": "string"
            },
            {
              "internalType": "string",
              "name": "streetAddressLine2",
              "type": "string"
            },
            {
              "internalType": "string",
              "name": "city",
              "type": "string"
            },
            {
              "internalType": "string",
              "name": "state",
              "type": "string"
            },
            {
              "internalType": "string",
              "name": "postalCode",
              "type": "string"
            }
          ],
          "internalType": "struct BaseWarrantySmartContract.Location",
          "name": "physicalLocation",
          "type": "tuple"
        },
        {
          "components": [
            {
              "internalType": "string",
              "name": "email",
              "type": "string"
            },
            {
              "internalType": "string",
              "name": "phoneMobile",
              "type": "string"
            },
            {
              "internalType": "string",
              "name": "phoneHome",
              "type": "string"
            }
          ],
          "internalType": "struct BaseWarrantySmartContract.ContactInformation",
          "name": "contactInfo",
          "type": "tuple"
        }
      ],
      "stateMutability": "view",
      "type": "function"
    },
    {
      "inputs": [],
      "name": "warrantyProvider",
      "outputs": [
        {
          "internalType": "string",
          "name": "name",
          "type": "string"
        },
        {
          "internalType": "address",
          "name": "partyAddress",
          "type": "address"
        },
        {
          "components": [
            {
              "internalType": "string",
              "name": "streetAddressLine1",
              "type": "string"
            },
            {
              "internalType": "string",
              "name": "streetAddressLine2",
              "type": "string"
            },
            {
              "internalType": "string",
              "name": "city",
              "type": "string"
            },
            {
              "internalType": "string",
              "name": "state",
              "type": "string"
            },
            {
              "internalType": "string",
              "name": "postalCode",
              "type": "string"
            }
          ],
          "internalType": "struct BaseWarrantySmartContract.Location",
          "name": "physicalLocation",
          "type": "tuple"
        },
        {
          "components": [
            {
              "internalType": "string",
              "name": "email",
              "type": "string"
            },
            {
              "internalType": "string",
              "name": "phoneMobile",
              "type": "string"
            },
            {
              "internalType": "string",
              "name": "phoneHome",
              "type": "string"
            }
          ],
          "internalType": "struct BaseWarrantySmartContract.ContactInformation",
          "name": "contactInfo",
          "type": "tuple"
        }
      ],
      "stateMutability": "view",
      "type": "function"
    },
    {
      "inputs": [],
      "name": "warrantyStartDate",
      "outputs": [
        {
          "internalType": "uint256",
          "name": "",
          "type": "uint256"
        }
      ],
      "stateMutability": "view",
      "type": "function"
    },
    {
      "inputs": [],
      "name": "voidWarranty",
      "outputs": [],
      "stateMutability": "nonpayable",
      "type": "function"
    },
    {
      "inputs": [],
      "name": "checkIfExpired",
      "outputs": [
        {
          "internalType": "bool",
          "name": "",
          "type": "bool"
        }
      ],
      "stateMutability": "view",
      "type": "function"
    },
    {
      "inputs": [],
      "name": "getDaysUntilExpiration",
      "outputs": [
        {
          "internalType": "uint256",
          "name": "",
          "type": "uint256"
        }
      ],
      "stateMutability": "view",
      "type": "function"
    },
    {
      "inputs": [],
      "name": "getLocationAsString",
      "outputs": [
        {
          "internalType": "string",
          "name": "",
          "type": "string"
        }
      ],
      "stateMutability": "view",
      "type": "function"
    },
    {
      "inputs": [
        {
          "components": [
            {
              "internalType": "string",
              "name": "name",
              "type": "string"
            },
            {
              "internalType": "address",
              "name": "partyAddress",
              "type": "address"
            },
            {
              "components": [
                {
                  "internalType": "string",
                  "name": "streetAddressLine1",
                  "type": "string"
                },
                {
                  "internalType": "string",
                  "name": "streetAddressLine2",
                  "type": "string"
                },
                {
                  "internalType": "string",
                  "name": "city",
                  "type": "string"
                },
                {
                  "internalType": "string",
                  "name": "state",
                  "type": "string"
                },
                {
                  "internalType": "string",
                  "name": "postalCode",
                  "type": "string"
                }
              ],
              "internalType": "struct BaseWarrantySmartContract.Location",
              "name": "physicalLocation",
              "type": "tuple"
            },
            {
              "components": [
                {
                  "internalType": "string",
                  "name": "email",
                  "type": "string"
                },
                {
                  "internalType": "string",
                  "name": "phoneMobile",
                  "type": "string"
                },
                {
                  "internalType": "string",
                  "name": "phoneHome",
                  "type": "string"
                }
              ],
              "internalType": "struct BaseWarrantySmartContract.ContactInformation",
              "name": "contactInfo",
              "type": "tuple"
            }
          ],
          "internalType": "struct BaseWarrantySmartContract.Party",
          "name": "newParty",
          "type": "tuple"
        }
      ],
      "name": "transferWarrantyToAnotherParty",
      "outputs": [],
      "stateMutability": "nonpayable",
      "type": "function"
    },
    {
      "inputs": [],
      "name": "getPreviousHolders",
      "outputs": [
        {
          "components": [
            {
              "internalType": "string",
              "name": "name",
              "type": "string"
            },
            {
              "internalType": "address",
              "name": "partyAddress",
              "type": "address"
            },
            {
              "components": [
                {
                  "internalType": "string",
                  "name": "streetAddressLine1",
                  "type": "string"
                },
                {
                  "internalType": "string",
                  "name": "streetAddressLine2",
                  "type": "string"
                },
                {
                  "internalType": "string",
                  "name": "city",
                  "type": "string"
                },
                {
                  "internalType": "string",
                  "name": "state",
                  "type": "string"
                },
                {
                  "internalType": "string",
                  "name": "postalCode",
                  "type": "string"
                }
              ],
              "internalType": "struct BaseWarrantySmartContract.Location",
              "name": "physicalLocation",
              "type": "tuple"
            },
            {
              "components": [
                {
                  "internalType": "string",
                  "name": "email",
                  "type": "string"
                },
                {
                  "internalType": "string",
                  "name": "phoneMobile",
                  "type": "string"
                },
                {
                  "internalType": "string",
                  "name": "phoneHome",
                  "type": "string"
                }
              ],
              "internalType": "struct BaseWarrantySmartContract.ContactInformation",
              "name": "contactInfo",
              "type": "tuple"
            }
          ],
          "internalType": "struct BaseWarrantySmartContract.Party[]",
          "name": "",
          "type": "tuple[]"
        }
      ],
      "stateMutability": "view",
      "type": "function"
    }
  ],
  "bytecode": "0x6101206040523480156200001257600080fd5b5060405162003f3d38038062003f3d833981810160405281019062000038919062000a9b565b866080818152505042610100818152505088151560c0811515815250508960a081815250506001601d60006101000a81548160ff0219169083600281111562000086576200008562000c2c565b5b02179055508760e081815250508560159080519060200190620000ab92919062000483565b5084601c9080519060200190620000c492919062000483565b5082600a6000820151816000019080519060200190620000e692919062000483565b5060208201518160010160006101000a81548173ffffffffffffffffffffffffffffffffffffffff021916908373ffffffffffffffffffffffffffffffffffffffff16021790555060408201518160020160008201518160000190805190602001906200015592919062000483565b5060208201518160010190805190602001906200017492919062000483565b5060408201518160020190805190602001906200019392919062000483565b506060820151816003019080519060200190620001b292919062000483565b506080820151816004019080519060200190620001d192919062000483565b5050506060820151816007016000820151816000019080519060200190620001fb92919062000483565b5060208201518160010190805190602001906200021a92919062000483565b5060408201518160020190805190602001906200023992919062000483565b505050905050816000808201518160000190805190602001906200025f92919062000483565b5060208201518160010160006101000a81548173ffffffffffffffffffffffffffffffffffffffff021916908373ffffffffffffffffffffffffffffffffffffffff1602179055506040820151816002016000820151816000019080519060200190620002ce92919062000483565b506020820151816001019080519060200190620002ed92919062000483565b5060408201518160020190805190602001906200030c92919062000483565b5060608201518160030190805190602001906200032b92919062000483565b5060808201518160040190805190602001906200034a92919062000483565b50505060608201518160070160008201518160000190805190602001906200037492919062000483565b5060208201518160010190805190602001906200039392919062000483565b506040820151816002019080519060200190620003b292919062000483565b5050509050508060176000820151816000019080519060200190620003d992919062000483565b506020820151816001019080519060200190620003f892919062000483565b5060408201518160020190805190602001906200041792919062000483565b5060608201518160030190805190602001906200043692919062000483565b5060808201518160040190805190602001906200045592919062000483565b5090505083601660006101000a81548160ff0219169083151502179055505050505050505050505062000cbf565b828054620004919062000c8a565b90600052602060002090601f016020900481019282620004b5576000855562000501565b82601f10620004d057805160ff191683800117855562000501565b8280016001018555821562000501579182015b8281111562000500578251825591602001919060010190620004e3565b5b50905062000510919062000514565b5090565b5b808211156200052f57600081600090555060010162000515565b5090565b6000604051905090565b600080fd5b600080fd5b6000819050919050565b6200055c8162000547565b81146200056857600080fd5b50565b6000815190506200057c8162000551565b92915050565b60008115159050919050565b620005998162000582565b8114620005a557600080fd5b50565b600081519050620005b9816200058e565b92915050565b600080fd5b600080fd5b6000601f19601f8301169050919050565b7f4e487b7100000000000000000000000000000000000000000000000000000000600052604160045260246000fd5b6200061482620005c9565b810181811067ffffffffffffffff82111715620006365762000635620005da565b5b80604052505050565b60006200064b62000533565b905062000659828262000609565b919050565b600067ffffffffffffffff8211156200067c576200067b620005da565b5b6200068782620005c9565b9050602081019050919050565b60005b83811015620006b457808201518184015260208101905062000697565b83811115620006c4576000848401525b50505050565b6000620006e1620006db846200065e565b6200063f565b9050828152602081018484840111156200070057620006ff620005c4565b5b6200070d84828562000694565b509392505050565b600082601f8301126200072d576200072c620005bf565b5b81516200073f848260208601620006ca565b91505092915050565b600080fd5b600080fd5b600073ffffffffffffffffffffffffffffffffffffffff82169050919050565b60006200077f8262000752565b9050919050565b620007918162000772565b81146200079d57600080fd5b50565b600081519050620007b18162000786565b92915050565b600060a08284031215620007d057620007cf62000748565b5b620007dc60a06200063f565b9050600082015167ffffffffffffffff811115620007ff57620007fe6200074d565b5b6200080d8482850162000715565b600083015250602082015167ffffffffffffffff8111156200083457620008336200074d565b5b620008428482850162000715565b602083015250604082015167ffffffffffffffff8111156200086957620008686200074d565b5b620008778482850162000715565b604083015250606082015167ffffffffffffffff8111156200089e576200089d6200074d565b5b620008ac8482850162000715565b606083015250608082015167ffffffffffffffff811115620008d357620008d26200074d565b5b620008e18482850162000715565b60808301525092915050565b60006060828403121562000906576200090562000748565b5b6200091260606200063f565b9050600082015167ffffffffffffffff8111156200093557620009346200074d565b5b620009438482850162000715565b600083015250602082015167ffffffffffffffff8111156200096a57620009696200074d565b5b620009788482850162000715565b602083015250604082015167ffffffffffffffff8111156200099f576200099e6200074d565b5b620009ad8482850162000715565b60408301525092915050565b600060808284031215620009d257620009d162000748565b5b620009de60806200063f565b9050600082015167ffffffffffffffff81111562000a015762000a006200074d565b5b62000a0f8482850162000715565b600083015250602062000a2584828501620007a0565b602083015250604082015167ffffffffffffffff81111562000a4c5762000a4b6200074d565b5b62000a5a84828501620007b7565b604083015250606082015167ffffffffffffffff81111562000a815762000a806200074d565b5b62000a8f84828501620008ed565b60608301525092915050565b6000806000806000806000806000806101408b8d03121562000ac25762000ac16200053d565b5b600062000ad28d828e016200056b565b9a5050602062000ae58d828e01620005a8565b995050604062000af88d828e016200056b565b985050606062000b0b8d828e016200056b565b97505060808b015167ffffffffffffffff81111562000b2f5762000b2e62000542565b5b62000b3d8d828e0162000715565b96505060a08b015167ffffffffffffffff81111562000b615762000b6062000542565b5b62000b6f8d828e0162000715565b95505060c062000b828d828e01620005a8565b94505060e08b015167ffffffffffffffff81111562000ba65762000ba562000542565b5b62000bb48d828e01620009b9565b9350506101008b015167ffffffffffffffff81111562000bd95762000bd862000542565b5b62000be78d828e01620009b9565b9250506101208b015167ffffffffffffffff81111562000c0c5762000c0b62000542565b5b62000c1a8d828e01620007b7565b9150509295989b9194979a5092959850565b7f4e487b7100000000000000000000000000000000000000000000000000000000600052602160045260246000fd5b7f4e487b7100000000000000000000000000000000000000000000000000000000600052602260045260246000fd5b6000600282049050600182168062000ca357607f821691505b60208210810362000cb95762000cb862000c5b565b5b50919050565b60805160a05160c05160e0516101005161322462000d19600039600061076501526000611ee00152600081816107a2015261110b0152600081816107c801528181611ebc0152611f2a0152600061074101526132246000f3fe608060405234801561001057600080fd5b50600436106101165760003560e01c806398c5aafe116100a2578063b395fed611610071578063b395fed614610295578063c2c967c9146102b3578063cf561a21146102d1578063d89998cf146102ef578063dbae9bca1461030d57610116565b806398c5aafe1461022e5780639a33e3001461024c578063a02cc5851461026a578063a7394b281461027457610116565b80632daf311b116100e95780632daf311b146101915780632e7c0ada146101af5780634a608861146101d0578063645461f5146101ee5780636c51cd721461020c57610116565b806309f174c31461011b5780631798c6c9146101375780631a8a3a40146101555780632121dc7514610173575b600080fd5b6101356004803603810190610130919061251e565b61032b565b005b61013f61073f565b60405161014c9190612580565b60405180910390f35b61015d610763565b60405161016a9190612580565b60405180910390f35b61017b610787565b60405161018891906125b6565b60405180910390f35b61019961079a565b6040516101a691906125b6565b60405180910390f35b6101b7610802565b6040516101c794939291906127a2565b60405180910390f35b6101d8610d6c565b6040516101e591906127fc565b60405180910390f35b6101f6610daf565b60405161020391906127fc565b60405180910390f35b610214610e3d565b60405161022595949392919061281e565b60405180910390f35b610236611109565b60405161024391906125b6565b60405180910390f35b61025461112d565b60405161026191906127fc565b60405180910390f35b6102726111bb565b005b61027c6112be565b60405161028c94939291906127a2565b60405180910390f35b61029d611828565b6040516102aa9190612ac6565b60405180910390f35b6102bb611eba565b6040516102c89190612580565b60405180910390f35b6102d9611ede565b6040516102e69190612580565b60405180910390f35b6102f7611f02565b6040516103049190612580565b60405180910390f35b610315611f60565b6040516103229190612b5f565b60405180910390f35b600060010160009054906101000a900473ffffffffffffffffffffffffffffffffffffffff1673ffffffffffffffffffffffffffffffffffffffff163373ffffffffffffffffffffffffffffffffffffffff16146103be576040517f08c379a00000000000000000000000000000000000000000000000000000000081526004016103b590612bec565b60405180910390fd5b601660009054906101000a900460ff161561073c576014600090806001815401808255809150506001900390600052602060002090600a0201600090919091909150600082018160000190805461041490612c3b565b61041f929190611f90565b506001820160009054906101000a900473ffffffffffffffffffffffffffffffffffffffff168160010160006101000a81548173ffffffffffffffffffffffffffffffffffffffff021916908373ffffffffffffffffffffffffffffffffffffffff160217905550600282018160020160008201816000019080546104a390612c3b565b6104ae929190611f90565b5060018201816001019080546104c390612c3b565b6104ce929190611f90565b5060028201816002019080546104e390612c3b565b6104ee929190611f90565b50600382018160030190805461050390612c3b565b61050e929190611f90565b50600482018160040190805461052390612c3b565b61052e929190611f90565b5050506007820181600701600082018160000190805461054d90612c3b565b610558929190611f90565b50600182018160010190805461056d90612c3b565b610578929190611f90565b50600282018160020190805461058d90612c3b565b610598929190611f90565b5050505050806000808201518160000190805190602001906105bb92919061201d565b5060208201518160010160006101000a81548173ffffffffffffffffffffffffffffffffffffffff021916908373ffffffffffffffffffffffffffffffffffffffff160217905550604082015181600201600082015181600001908051906020019061062892919061201d565b50602082015181600101908051906020019061064592919061201d565b50604082015181600201908051906020019061066292919061201d565b50606082015181600301908051906020019061067f92919061201d565b50608082015181600401908051906020019061069c92919061201d565b50505060608201518160070160008201518160000190805190602001906106c492919061201d565b5060208201518160010190805190602001906106e192919061201d565b5060408201518160020190805190602001906106fe92919061201d565b5050509050507fe8176a51a789da4605a6bf9fc8146fdf034b0181042080626b1696e121821245816040516107339190612cdd565b60405180910390a15b50565b7f000000000000000000000000000000000000000000000000000000000000000081565b7f000000000000000000000000000000000000000000000000000000000000000081565b601660009054906101000a900460ff1681565b6000804290507f0000000000000000000000000000000000000000000000000000000000000000156107f9577f00000000000000000000000000000000000000000000000000000000000000008111156107f85760019150506107ff565b5b60009150505b90565b600080600001805461081390612c3b565b80601f016020809104026020016040519081016040528092919081815260200182805461083f90612c3b565b801561088c5780601f106108615761010080835404028352916020019161088c565b820191906000526020600020905b81548152906001019060200180831161086f57829003601f168201915b5050505050908060010160009054906101000a900473ffffffffffffffffffffffffffffffffffffffff1690806002016040518060a00160405290816000820180546108d790612c3b565b80601f016020809104026020016040519081016040528092919081815260200182805461090390612c3b565b80156109505780601f1061092557610100808354040283529160200191610950565b820191906000526020600020905b81548152906001019060200180831161093357829003601f168201915b5050505050815260200160018201805461096990612c3b565b80601f016020809104026020016040519081016040528092919081815260200182805461099590612c3b565b80156109e25780601f106109b7576101008083540402835291602001916109e2565b820191906000526020600020905b8154815290600101906020018083116109c557829003601f168201915b505050505081526020016002820180546109fb90612c3b565b80601f0160208091040260200160405190810160405280929190818152602001828054610a2790612c3b565b8015610a745780601f10610a4957610100808354040283529160200191610a74565b820191906000526020600020905b815481529060010190602001808311610a5757829003601f168201915b50505050508152602001600382018054610a8d90612c3b565b80601f0160208091040260200160405190810160405280929190818152602001828054610ab990612c3b565b8015610b065780601f10610adb57610100808354040283529160200191610b06565b820191906000526020600020905b815481529060010190602001808311610ae957829003601f168201915b50505050508152602001600482018054610b1f90612c3b565b80601f0160208091040260200160405190810160405280929190818152602001828054610b4b90612c3b565b8015610b985780601f10610b6d57610100808354040283529160200191610b98565b820191906000526020600020905b815481529060010190602001808311610b7b57829003601f168201915b5050505050815250509080600701604051806060016040529081600082018054610bc190612c3b565b80601f0160208091040260200160405190810160405280929190818152602001828054610bed90612c3b565b8015610c3a5780601f10610c0f57610100808354040283529160200191610c3a565b820191906000526020600020905b815481529060010190602001808311610c1d57829003601f168201915b50505050508152602001600182018054610c5390612c3b565b80601f0160208091040260200160405190810160405280929190818152602001828054610c7f90612c3b565b8015610ccc5780601f10610ca157610100808354040283529160200191610ccc565b820191906000526020600020905b815481529060010190602001808311610caf57829003601f168201915b50505050508152602001600282018054610ce590612c3b565b80601f0160208091040260200160405190810160405280929190818152602001828054610d1190612c3b565b8015610d5e5780601f10610d3357610100808354040283529160200191610d5e565b820191906000526020600020905b815481529060010190602001808311610d4157829003601f168201915b505050505081525050905084565b606060176000016017600101601760020160176003016017600401604051602001610d9b959493929190612e36565b604051602081830303815290604052905090565b601c8054610dbc90612c3b565b80601f0160208091040260200160405190810160405280929190818152602001828054610de890612c3b565b8015610e355780601f10610e0a57610100808354040283529160200191610e35565b820191906000526020600020905b815481529060010190602001808311610e1857829003601f168201915b505050505081565b6017806000018054610e4e90612c3b565b80601f0160208091040260200160405190810160405280929190818152602001828054610e7a90612c3b565b8015610ec75780601f10610e9c57610100808354040283529160200191610ec7565b820191906000526020600020905b815481529060010190602001808311610eaa57829003601f168201915b505050505090806001018054610edc90612c3b565b80601f0160208091040260200160405190810160405280929190818152602001828054610f0890612c3b565b8015610f555780601f10610f2a57610100808354040283529160200191610f55565b820191906000526020600020905b815481529060010190602001808311610f3857829003601f168201915b505050505090806002018054610f6a90612c3b565b80601f0160208091040260200160405190810160405280929190818152602001828054610f9690612c3b565b8015610fe35780601f10610fb857610100808354040283529160200191610fe3565b820191906000526020600020905b815481529060010190602001808311610fc657829003601f168201915b505050505090806003018054610ff890612c3b565b80601f016020809104026020016040519081016040528092919081815260200182805461102490612c3b565b80156110715780601f1061104657610100808354040283529160200191611071565b820191906000526020600020905b81548152906001019060200180831161105457829003601f168201915b50505050509080600401805461108690612c3b565b80601f01602080910402602001604051908101604052809291908181526020018280546110b290612c3b565b80156110ff5780601f106110d4576101008083540402835291602001916110ff565b820191906000526020600020905b8154815290600101906020018083116110e257829003601f168201915b5050505050905085565b7f000000000000000000000000000000000000000000000000000000000000000081565b6015805461113a90612c3b565b80601f016020809104026020016040519081016040528092919081815260200182805461116690612c3b565b80156111b35780601f10611188576101008083540402835291602001916111b3565b820191906000526020600020905b81548152906001019060200180831161119657829003601f168201915b505050505081565b600160028111156111cf576111ce612ae8565b5b601d60009054906101000a900460ff1660028111156111f1576111f0612ae8565b5b14611231576040517f08c379a000000000000000000000000000000000000000000000000000000000815260040161122890612f1f565b60405180910390fd5b6002601d60006101000a81548160ff0219169083600281111561125757611256612ae8565b5b02179055507ff60e08446224cba58ed8cf06625edcec1758b76d2703cd4fa1a83ef86644cf186015611287610d6c565b604051602001611298929190613054565b6040516020818303038152906040526040516112b491906127fc565b60405180910390a1565b600a8060000180546112cf90612c3b565b80601f01602080910402602001604051908101604052809291908181526020018280546112fb90612c3b565b80156113485780601f1061131d57610100808354040283529160200191611348565b820191906000526020600020905b81548152906001019060200180831161132b57829003601f168201915b5050505050908060010160009054906101000a900473ffffffffffffffffffffffffffffffffffffffff1690806002016040518060a001604052908160008201805461139390612c3b565b80601f01602080910402602001604051908101604052809291908181526020018280546113bf90612c3b565b801561140c5780601f106113e15761010080835404028352916020019161140c565b820191906000526020600020905b8154815290600101906020018083116113ef57829003601f168201915b5050505050815260200160018201805461142590612c3b565b80601f016020809104026020016040519081016040528092919081815260200182805461145190612c3b565b801561149e5780601f106114735761010080835404028352916020019161149e565b820191906000526020600020905b81548152906001019060200180831161148157829003601f168201915b505050505081526020016002820180546114b790612c3b565b80601f01602080910402602001604051908101604052809291908181526020018280546114e390612c3b565b80156115305780601f1061150557610100808354040283529160200191611530565b820191906000526020600020905b81548152906001019060200180831161151357829003601f168201915b5050505050815260200160038201805461154990612c3b565b80601f016020809104026020016040519081016040528092919081815260200182805461157590612c3b565b80156115c25780601f10611597576101008083540402835291602001916115c2565b820191906000526020600020905b8154815290600101906020018083116115a557829003601f168201915b505050505081526020016004820180546115db90612c3b565b80601f016020809104026020016040519081016040528092919081815260200182805461160790612c3b565b80156116545780601f1061162957610100808354040283529160200191611654565b820191906000526020600020905b81548152906001019060200180831161163757829003601f168201915b505050505081525050908060070160405180606001604052908160008201805461167d90612c3b565b80601f01602080910402602001604051908101604052809291908181526020018280546116a990612c3b565b80156116f65780601f106116cb576101008083540402835291602001916116f6565b820191906000526020600020905b8154815290600101906020018083116116d957829003601f168201915b5050505050815260200160018201805461170f90612c3b565b80601f016020809104026020016040519081016040528092919081815260200182805461173b90612c3b565b80156117885780601f1061175d57610100808354040283529160200191611788565b820191906000526020600020905b81548152906001019060200180831161176b57829003601f168201915b505050505081526020016002820180546117a190612c3b565b80601f01602080910402602001604051908101604052809291908181526020018280546117cd90612c3b565b801561181a5780601f106117ef5761010080835404028352916020019161181a565b820191906000526020600020905b8154815290600101906020018083116117fd57829003601f168201915b505050505081525050905084565b6060600a60010160009054906101000a900473ffffffffffffffffffffffffffffffffffffffff1673ffffffffffffffffffffffffffffffffffffffff163373ffffffffffffffffffffffffffffffffffffffff16146118bd576040517f08c379a00000000000000000000000000000000000000000000000000000000081526004016118b49061310b565b60405180910390fd5b6014805480602002602001604051908101604052809291908181526020016000905b82821015611eb157838290600052602060002090600a020160405180608001604052908160008201805461191290612c3b565b80601f016020809104026020016040519081016040528092919081815260200182805461193e90612c3b565b801561198b5780601f106119605761010080835404028352916020019161198b565b820191906000526020600020905b81548152906001019060200180831161196e57829003601f168201915b505050505081526020016001820160009054906101000a900473ffffffffffffffffffffffffffffffffffffffff1673ffffffffffffffffffffffffffffffffffffffff1673ffffffffffffffffffffffffffffffffffffffff168152602001600282016040518060a0016040529081600082018054611a0a90612c3b565b80601f0160208091040260200160405190810160405280929190818152602001828054611a3690612c3b565b8015611a835780601f10611a5857610100808354040283529160200191611a83565b820191906000526020600020905b815481529060010190602001808311611a6657829003601f168201915b50505050508152602001600182018054611a9c90612c3b565b80601f0160208091040260200160405190810160405280929190818152602001828054611ac890612c3b565b8015611b155780601f10611aea57610100808354040283529160200191611b15565b820191906000526020600020905b815481529060010190602001808311611af857829003601f168201915b50505050508152602001600282018054611b2e90612c3b565b80601f0160208091040260200160405190810160405280929190818152602001828054611b5a90612c3b565b8015611ba75780601f10611b7c57610100808354040283529160200191611ba7565b820191906000526020600020905b815481529060010190602001808311611b8a57829003601f168201915b50505050508152602001600382018054611bc090612c3b565b80601f0160208091040260200160405190810160405280929190818152602001828054611bec90612c3b565b8015611c395780601f10611c0e57610100808354040283529160200191611c39565b820191906000526020600020905b815481529060010190602001808311611c1c57829003601f168201915b50505050508152602001600482018054611c5290612c3b565b80601f0160208091040260200160405190810160405280929190818152602001828054611c7e90612c3b565b8015611ccb5780601f10611ca057610100808354040283529160200191611ccb565b820191906000526020600020905b815481529060010190602001808311611cae57829003601f168201915b505050505081525050815260200160078201604051806060016040529081600082018054611cf890612c3b565b80601f0160208091040260200160405190810160405280929190818152602001828054611d2490612c3b565b8015611d715780601f10611d4657610100808354040283529160200191611d71565b820191906000526020600020905b815481529060010190602001808311611d5457829003601f168201915b50505050508152602001600182018054611d8a90612c3b565b80601f0160208091040260200160405190810160405280929190818152602001828054611db690612c3b565b8015611e035780601f10611dd857610100808354040283529160200191611e03565b820191906000526020600020905b815481529060010190602001808311611de657829003601f168201915b50505050508152602001600282018054611e1c90612c3b565b80601f0160208091040260200160405190810160405280929190818152602001828054611e4890612c3b565b8015611e955780601f10611e6a57610100808354040283529160200191611e95565b820191906000526020600020905b815481529060010190602001808311611e7857829003601f168201915b50505050508152505081525050815260200190600101906118df565b50505050905090565b7f000000000000000000000000000000000000000000000000000000000000000081565b7f000000000000000000000000000000000000000000000000000000000000000081565b600080611f0d61079a565b90508015611f1f576000915050611f5d565b6000429050611f58817f0000000000000000000000000000000000000000000000000000000000000000611f53919061315a565b611f73565b925050505b90565b601d60009054906101000a900460ff1681565b6000806201518090508083611f8891906131bd565b915050919050565b828054611f9c90612c3b565b90600052602060002090601f016020900481019282611fbe576000855561200c565b82601f10611fcf578054855561200c565b8280016001018555821561200c57600052602060002091601f016020900482015b8281111561200b578254825591600101919060010190611ff0565b5b50905061201991906120a3565b5090565b82805461202990612c3b565b90600052602060002090601f01602090048101928261204b5760008555612092565b82601f1061206457805160ff1916838001178555612092565b82800160010185558215612092579182015b82811115612091578251825591602001919060010190612076565b5b50905061209f91906120a3565b5090565b5b808211156120bc5760008160009055506001016120a4565b5090565b6000604051905090565b600080fd5b600080fd5b600080fd5b6000601f19601f8301169050919050565b7f4e487b7100000000000000000000000000000000000000000000000000000000600052604160045260246000fd5b612122826120d9565b810181811067ffffffffffffffff82111715612141576121406120ea565b5b80604052505050565b60006121546120c0565b90506121608282612119565b919050565b600080fd5b600080fd5b600080fd5b600067ffffffffffffffff82111561218f5761218e6120ea565b5b612198826120d9565b9050602081019050919050565b82818337600083830152505050565b60006121c76121c284612174565b61214a565b9050828152602081018484840111156121e3576121e261216f565b5b6121ee8482856121a5565b509392505050565b600082601f83011261220b5761220a61216a565b5b813561221b8482602086016121b4565b91505092915050565b600073ffffffffffffffffffffffffffffffffffffffff82169050919050565b600061224f82612224565b9050919050565b61225f81612244565b811461226a57600080fd5b50565b60008135905061227c81612256565b92915050565b600060a08284031215612298576122976120d4565b5b6122a260a061214a565b9050600082013567ffffffffffffffff8111156122c2576122c1612165565b5b6122ce848285016121f6565b600083015250602082013567ffffffffffffffff8111156122f2576122f1612165565b5b6122fe848285016121f6565b602083015250604082013567ffffffffffffffff81111561232257612321612165565b5b61232e848285016121f6565b604083015250606082013567ffffffffffffffff81111561235257612351612165565b5b61235e848285016121f6565b606083015250608082013567ffffffffffffffff81111561238257612381612165565b5b61238e848285016121f6565b60808301525092915050565b6000606082840312156123b0576123af6120d4565b5b6123ba606061214a565b9050600082013567ffffffffffffffff8111156123da576123d9612165565b5b6123e6848285016121f6565b600083015250602082013567ffffffffffffffff81111561240a57612409612165565b5b612416848285016121f6565b602083015250604082013567ffffffffffffffff81111561243a57612439612165565b5b612446848285016121f6565b60408301525092915050565b600060808284031215612468576124676120d4565b5b612472608061214a565b9050600082013567ffffffffffffffff81111561249257612491612165565b5b61249e848285016121f6565b60008301525060206124b28482850161226d565b602083015250604082013567ffffffffffffffff8111156124d6576124d5612165565b5b6124e284828501612282565b604083015250606082013567ffffffffffffffff81111561250657612505612165565b5b6125128482850161239a565b60608301525092915050565b600060208284031215612534576125336120ca565b5b600082013567ffffffffffffffff811115612552576125516120cf565b5b61255e84828501612452565b91505092915050565b6000819050919050565b61257a81612567565b82525050565b60006020820190506125956000830184612571565b92915050565b60008115159050919050565b6125b08161259b565b82525050565b60006020820190506125cb60008301846125a7565b92915050565b600081519050919050565b600082825260208201905092915050565b60005b8381101561260b5780820151818401526020810190506125f0565b8381111561261a576000848401525b50505050565b600061262b826125d1565b61263581856125dc565b93506126458185602086016125ed565b61264e816120d9565b840191505092915050565b61266281612244565b82525050565b600082825260208201905092915050565b6000612684826125d1565b61268e8185612668565b935061269e8185602086016125ed565b6126a7816120d9565b840191505092915050565b600060a08301600083015184820360008601526126cf8282612679565b915050602083015184820360208601526126e98282612679565b915050604083015184820360408601526127038282612679565b9150506060830151848203606086015261271d8282612679565b915050608083015184820360808601526127378282612679565b9150508091505092915050565b600060608301600083015184820360008601526127618282612679565b9150506020830151848203602086015261277b8282612679565b915050604083015184820360408601526127958282612679565b9150508091505092915050565b600060808201905081810360008301526127bc8187612620565b90506127cb6020830186612659565b81810360408301526127dd81856126b2565b905081810360608301526127f18184612744565b905095945050505050565b600060208201905081810360008301526128168184612620565b905092915050565b600060a08201905081810360008301526128388188612620565b9050818103602083015261284c8187612620565b905081810360408301526128608186612620565b905081810360608301526128748185612620565b905081810360808301526128888184612620565b90509695505050505050565b600081519050919050565b600082825260208201905092915050565b6000819050602082019050919050565b6128c981612244565b82525050565b600060a08301600083015184820360008601526128ec8282612679565b915050602083015184820360208601526129068282612679565b915050604083015184820360408601526129208282612679565b9150506060830151848203606086015261293a8282612679565b915050608083015184820360808601526129548282612679565b9150508091505092915050565b6000606083016000830151848203600086015261297e8282612679565b915050602083015184820360208601526129988282612679565b915050604083015184820360408601526129b28282612679565b9150508091505092915050565b600060808301600083015184820360008601526129dc8282612679565b91505060208301516129f160208601826128c0565b5060408301518482036040860152612a0982826128cf565b91505060608301518482036060860152612a238282612961565b9150508091505092915050565b6000612a3c83836129bf565b905092915050565b6000602082019050919050565b6000612a5c82612894565b612a66818561289f565b935083602082028501612a78856128b0565b8060005b85811015612ab45784840389528151612a958582612a30565b9450612aa083612a44565b925060208a01995050600181019050612a7c565b50829750879550505050505092915050565b60006020820190508181036000830152612ae08184612a51565b905092915050565b7f4e487b7100000000000000000000000000000000000000000000000000000000600052602160045260246000fd5b60038110612b2857612b27612ae8565b5b50565b6000819050612b3982612b17565b919050565b6000612b4982612b2b565b9050919050565b612b5981612b3e565b82525050565b6000602082019050612b746000830184612b50565b92915050565b7f546869732066756e6374696f6e206973207265737472696374656420746f207460008201527f686520636f6e7472616374277320686f6c646572000000000000000000000000602082015250565b6000612bd66034836125dc565b9150612be182612b7a565b604082019050919050565b60006020820190508181036000830152612c0581612bc9565b9050919050565b7f4e487b7100000000000000000000000000000000000000000000000000000000600052602260045260246000fd5b60006002820490506001821680612c5357607f821691505b602082108103612c6657612c65612c0c565b5b50919050565b60006080830160008301518482036000860152612c898282612679565b9150506020830151612c9e60208601826128c0565b5060408301518482036040860152612cb682826128cf565b91505060608301518482036060860152612cd08282612961565b9150508091505092915050565b60006020820190508181036000830152612cf78184612c6c565b905092915050565b600081905092915050565b60008190508160005260206000209050919050565b60008154612d2c81612c3b565b612d368186612cff565b94506001821660008114612d515760018114612d6257612d95565b60ff19831686528186019350612d95565b612d6b85612d0a565b60005b83811015612d8d57815481890152600182019150602081019050612d6e565b838801955050505b50505092915050565b7f2000000000000000000000000000000000000000000000000000000000000000600082015250565b6000612dd4600183612cff565b9150612ddf82612d9e565b600182019050919050565b7f2c20000000000000000000000000000000000000000000000000000000000000600082015250565b6000612e20600283612cff565b9150612e2b82612dea565b600282019050919050565b6000612e428288612d1f565b9150612e4d82612dc7565b9150612e598287612d1f565b9150612e6482612dc7565b9150612e708286612d1f565b9150612e7b82612e13565b9150612e878285612d1f565b9150612e9282612dc7565b9150612e9e8284612d1f565b91508190509695505050505050565b7f546869732066756e6374696f6e206d6179206f6e6c792062652075736564206960008201527f662074686520636f6e7472616374206973206163746976650000000000000000602082015250565b6000612f096038836125dc565b9150612f1482612ead565b604082019050919050565b60006020820190508181036000830152612f3881612efc565b9050919050565b7f5468652077617272616e747920666f7220746865200000000000000000000000600082015250565b6000612f75601583612cff565b9150612f8082612f3f565b601582019050919050565b7f2061742000000000000000000000000000000000000000000000000000000000600082015250565b6000612fc1600483612cff565b9150612fcc82612f8b565b600482019050919050565b6000612fe2826125d1565b612fec8185612cff565b9350612ffc8185602086016125ed565b80840191505092915050565b7f20686173206265656e20766f6964656400000000000000000000000000000000600082015250565b600061303e601083612cff565b915061304982613008565b601082019050919050565b600061305f82612f68565b915061306b8285612d1f565b915061307682612fb4565b91506130828284612fd7565b915061308d82613031565b91508190509392505050565b7f546869732066756e6374696f6e206973207265737472696374656420746f207460008201527f68652077617272616e747927732070726f766964657200000000000000000000602082015250565b60006130f56036836125dc565b915061310082613099565b604082019050919050565b60006020820190508181036000830152613124816130e8565b9050919050565b7f4e487b7100000000000000000000000000000000000000000000000000000000600052601160045260246000fd5b600061316582612567565b915061317083612567565b9250828210156131835761318261312b565b5b828203905092915050565b7f4e487b7100000000000000000000000000000000000000000000000000000000600052601260045260246000fd5b60006131c882612567565b91506131d383612567565b9250826131e3576131e261318e565b5b82820490509291505056fea264697066735822122085f6cc8a0e55836a7856b898d367ef6345e5266d96bcd377dcdbe2b1bedddf9a64736f6c634300080d0033",
  "immutableReferences": {
    "49": [
      {
        "length": 32,
        "start": 1857
      }
    ],
    "51": [
      {
        "length": 32,
        "start": 1992
      },
      {
        "length": 32,
        "start": 7868
      },
      {
        "length": 32,
        "start": 7978
      }
    ],
    "53": [
      {
        "length": 32,
        "start": 1954
      },
      {
        "length": 32,
        "start": 4363
      }
    ],
    "55": [
      {
        "length": 32,
        "start": 7904
      }
    ],
    "59": [
      {
        "length": 32,
        "start": 1893
      }
    ]
  },
  "source": "// SPDX-License-Identifier: GPL-3.0\r\n//The pragma command means \"additional information that only the compiler cares about\", \r\n//while the caret symbol (^) means \"the version indicated or higher\".\r\npragma solidity ^0.8.0;\r\n//practice for using the openzeppelin lib https://docs.openzeppelin.com/learn/developing-smart-contracts\r\n//is Context import \"@openzeppelin/contracts/GSN/Context.sol\";\r\n\r\n\r\ncontract BaseWarrantySmartContract {\r\n    struct Party { \r\n        //a struct representing both the contractor and client\r\n        string name; \r\n        address partyAddress;\r\n        Location physicalLocation;\r\n        ContactInformation contactInfo;\r\n    }\r\n    struct Location {\r\n        //a struct for full addresses\r\n        string streetAddressLine1;\r\n        string streetAddressLine2;\r\n        string city;\r\n        string state;\r\n        string postalCode;\r\n    }\r\n    struct ContactInformation {\r\n        //a struct for a party's contact info\r\n        string email;\r\n        string phoneMobile;\r\n        string phoneHome;\r\n    }\r\n    Party public warrantyHolder;    //the client\r\n    Party public  warrantyProvider; //the contractor\r\n    Party[] previousHolders;\r\n    string public projectName;\r\n    bool public isTransferable;\r\n    Location public locationOfWork;\r\n    uint public immutable dateOfWorkCompletion; // in seconds since 1970\r\n    uint public immutable warrantyExpirationDate;//seconds since unix epoch\r\n    bool public immutable warrantyExpires;\r\n    uint public immutable numberOfDaysToCorrect;//\tNumber of days contractor has to correct defective work before paying charges\r\n    string public descriptionOfProject;\r\n    uint256 public immutable warrantyStartDate;\r\n    enum WarrantyState { INACTIVE, ACTIVE, VOID }\r\n    WarrantyState public stateOfWarranty;\r\n    event CurrentHolderChanged(Party _newOwner);\r\n    event WarrantyVoided(string _message);\r\n\r\n    constructor(uint _warrantyExpirationDate, //date in seconds past epoch\r\n                bool _warrantyExpires,\r\n                uint _numberOfDaysToCorrect,\r\n                uint _workCompleted, //date in seconds past epoch\r\n                string memory _projectName,\r\n                string memory _description,\r\n                bool _transferable,\r\n                Party memory _warrantyProvider,\r\n                Party memory _warrantyHolder,\r\n                Location memory _location\r\n    ) {\r\n        dateOfWorkCompletion = _workCompleted;\r\n        warrantyStartDate = block.timestamp;\r\n        warrantyExpires = _warrantyExpires;\r\n        warrantyExpirationDate = _warrantyExpirationDate;\r\n        stateOfWarranty = WarrantyState.ACTIVE;\r\n        numberOfDaysToCorrect = _numberOfDaysToCorrect;\r\n        projectName = _projectName;\r\n        descriptionOfProject = _description;\r\n        warrantyProvider = _warrantyProvider;\r\n        warrantyHolder = _warrantyHolder;\r\n        locationOfWork = _location;\r\n        isTransferable = _transferable;\r\n    }\r\n\r\n    modifier mustBeActive() {\r\n        require(\r\n            stateOfWarranty == WarrantyState.ACTIVE,\r\n            \"This function may only be used if the contract is active\"\r\n        );\r\n        _;\r\n    }\r\n\r\n    function voidWarranty() public mustBeActive {\r\n        stateOfWarranty = WarrantyState.VOID;\r\n        emit WarrantyVoided(string(abi.encodePacked(\"The warranty for the \", projectName, \" at \", getLocationAsString(), \" has been voided\")));\r\n    }\r\n\r\n    function checkIfExpired() public view returns(bool) {\r\n        uint currentTime = block.timestamp;\r\n        if (warrantyExpires) {\r\n            if (currentTime > warrantyExpirationDate) {\r\n                return true;\r\n            }        \r\n        }\r\n        return false;\r\n    }\r\n\r\n    function getDaysUntilExpiration() public view returns(uint) {\r\n        //view =  the function only reads the state\r\n        bool isExpired = checkIfExpired();\r\n        if (isExpired) {\r\n            return 0;\r\n        }\r\n        else {\r\n            uint currentTime = block.timestamp;\r\n            return convertSecondsToDays(warrantyExpirationDate - currentTime);\r\n        }\r\n    }\r\n\r\n    function convertSecondsToDays(uint secondsToConvert) internal pure returns(uint) {\r\n        //internal the contract and its derivatives can call the function\r\n        //pure: the function neither reads nor writes to the state\r\n        uint day = 1 days;//amount of seconds in a day\r\n        return secondsToConvert/day;\r\n    }\r\n\r\n    function getLocationAsString() public view returns (string memory) {\r\n        return string(abi.encodePacked(locationOfWork.streetAddressLine1, \" \",\r\n        locationOfWork.streetAddressLine2, \" \",\r\n        locationOfWork.city, \", \",\r\n        locationOfWork.state, \" \",\r\n        locationOfWork.postalCode));\r\n    }\r\n\r\n    modifier holderOnly() {\r\n    require(\r\n      msg.sender == warrantyHolder.partyAddress,\r\n      \"This function is restricted to the contract's holder\"\r\n    );\r\n    _;\r\n  }\r\n\r\n    modifier providerOnly() {\r\n    require(\r\n      msg.sender == warrantyProvider.partyAddress,\r\n      \"This function is restricted to the warranty's provider\"\r\n    );\r\n    _;\r\n  }\r\n    function transferWarrantyToAnotherParty(Party memory newParty)\r\n    external holderOnly {\r\n        //external =  anyone but the contract can call the function. Using the external type instead of public can have a performance boost and potentially save a lot of gas\r\n        //require(msg.sender == warrantyProvider.partyAddress);//should require the by party's permission\r\n        if (isTransferable){\r\n            previousHolders.push(warrantyHolder);\r\n            warrantyHolder = newParty; \r\n            emit CurrentHolderChanged(newParty);\r\n        }\r\n    }\r\n\r\n    function getPreviousHolders() \r\n    external view providerOnly \r\n    returns (Party[] memory) {\r\n        //external =  anyone but the contract can call the function. Using the external type instead of public can have a performance boost and potentially save a lot of gas\r\n        //require(msg.sender == warrantyProvider.partyAddress);//should require the by party's permission\r\n        return previousHolders;\r\n    }\r\n}",
  "sourcePath": "C:\\Users\\lritter\\source\\repos\\plural-sight\\blockchain\\contrator_keeper\\warranty_truffle_project\\contracts\\BaseWarrantySmartContract.sol",
  "compiler": {
    "name": "solc",
    "version": "0.8.13+commit.abaa5c0e.Emscripten.clang"
  },
  "schemaVersion": "3.4.6",
  "updatedAt": "2022-04-26T12:55:25.189Z",
  "devdoc": {
    "kind": "dev",
    "methods": {},
    "version": 1
  },
  "userdoc": {
    "kind": "user",
    "methods": {},
    "version": 1
  }
}