{
  "contractName": "BaseWarrantySmartContract",
  "abi": [
    {
      "inputs": [
        {
          "internalType": "uint256",
          "name": "_warrantyExpirationDate",
          "type": "uint256"
        },
        {
          "internalType": "bool",
          "name": "_warrantyExpires",
          "type": "bool"
        },
        {
          "internalType": "uint256",
          "name": "_numberOfDaysToCorrect",
          "type": "uint256"
        },
        {
          "internalType": "uint256",
          "name": "_workCompleted",
          "type": "uint256"
        },
        {
          "internalType": "string",
          "name": "_projectName",
          "type": "string"
        },
        {
          "internalType": "string",
          "name": "_description",
          "type": "string"
        },
        {
          "internalType": "bool",
          "name": "_transferable",
          "type": "bool"
        },
        {
          "components": [
            {
              "internalType": "string",
              "name": "name",
              "type": "string"
            },
            {
              "internalType": "address",
              "name": "partyAddress",
              "type": "address"
            },
            {
              "components": [
                {
                  "internalType": "string",
                  "name": "streetAddressLine1",
                  "type": "string"
                },
                {
                  "internalType": "string",
                  "name": "streetAddressLine2",
                  "type": "string"
                },
                {
                  "internalType": "string",
                  "name": "city",
                  "type": "string"
                },
                {
                  "internalType": "string",
                  "name": "state",
                  "type": "string"
                },
                {
                  "internalType": "string",
                  "name": "postalCode",
                  "type": "string"
                }
              ],
              "internalType": "struct BaseWarrantySmartContract.Location",
              "name": "physicalLocation",
              "type": "tuple"
            },
            {
              "components": [
                {
                  "internalType": "string",
                  "name": "email",
                  "type": "string"
                },
                {
                  "internalType": "string",
                  "name": "phoneMobile",
                  "type": "string"
                },
                {
                  "internalType": "string",
                  "name": "phoneHome",
                  "type": "string"
                }
              ],
              "internalType": "struct BaseWarrantySmartContract.ContactInformation",
              "name": "contactInfo",
              "type": "tuple"
            }
          ],
          "internalType": "struct BaseWarrantySmartContract.Party",
          "name": "_warrantyProvider",
          "type": "tuple"
        },
        {
          "components": [
            {
              "internalType": "string",
              "name": "name",
              "type": "string"
            },
            {
              "internalType": "address",
              "name": "partyAddress",
              "type": "address"
            },
            {
              "components": [
                {
                  "internalType": "string",
                  "name": "streetAddressLine1",
                  "type": "string"
                },
                {
                  "internalType": "string",
                  "name": "streetAddressLine2",
                  "type": "string"
                },
                {
                  "internalType": "string",
                  "name": "city",
                  "type": "string"
                },
                {
                  "internalType": "string",
                  "name": "state",
                  "type": "string"
                },
                {
                  "internalType": "string",
                  "name": "postalCode",
                  "type": "string"
                }
              ],
              "internalType": "struct BaseWarrantySmartContract.Location",
              "name": "physicalLocation",
              "type": "tuple"
            },
            {
              "components": [
                {
                  "internalType": "string",
                  "name": "email",
                  "type": "string"
                },
                {
                  "internalType": "string",
                  "name": "phoneMobile",
                  "type": "string"
                },
                {
                  "internalType": "string",
                  "name": "phoneHome",
                  "type": "string"
                }
              ],
              "internalType": "struct BaseWarrantySmartContract.ContactInformation",
              "name": "contactInfo",
              "type": "tuple"
            }
          ],
          "internalType": "struct BaseWarrantySmartContract.Party",
          "name": "_warrantyHolder",
          "type": "tuple"
        },
        {
          "components": [
            {
              "internalType": "string",
              "name": "streetAddressLine1",
              "type": "string"
            },
            {
              "internalType": "string",
              "name": "streetAddressLine2",
              "type": "string"
            },
            {
              "internalType": "string",
              "name": "city",
              "type": "string"
            },
            {
              "internalType": "string",
              "name": "state",
              "type": "string"
            },
            {
              "internalType": "string",
              "name": "postalCode",
              "type": "string"
            }
          ],
          "internalType": "struct BaseWarrantySmartContract.Location",
          "name": "_location",
          "type": "tuple"
        }
      ],
      "stateMutability": "nonpayable",
      "type": "constructor"
    },
    {
      "anonymous": false,
      "inputs": [
        {
          "components": [
            {
              "internalType": "string",
              "name": "name",
              "type": "string"
            },
            {
              "internalType": "address",
              "name": "partyAddress",
              "type": "address"
            },
            {
              "components": [
                {
                  "internalType": "string",
                  "name": "streetAddressLine1",
                  "type": "string"
                },
                {
                  "internalType": "string",
                  "name": "streetAddressLine2",
                  "type": "string"
                },
                {
                  "internalType": "string",
                  "name": "city",
                  "type": "string"
                },
                {
                  "internalType": "string",
                  "name": "state",
                  "type": "string"
                },
                {
                  "internalType": "string",
                  "name": "postalCode",
                  "type": "string"
                }
              ],
              "internalType": "struct BaseWarrantySmartContract.Location",
              "name": "physicalLocation",
              "type": "tuple"
            },
            {
              "components": [
                {
                  "internalType": "string",
                  "name": "email",
                  "type": "string"
                },
                {
                  "internalType": "string",
                  "name": "phoneMobile",
                  "type": "string"
                },
                {
                  "internalType": "string",
                  "name": "phoneHome",
                  "type": "string"
                }
              ],
              "internalType": "struct BaseWarrantySmartContract.ContactInformation",
              "name": "contactInfo",
              "type": "tuple"
            }
          ],
          "indexed": false,
          "internalType": "struct BaseWarrantySmartContract.Party",
          "name": "_newOwner",
          "type": "tuple"
        }
      ],
      "name": "CurrentHolderChanged",
      "type": "event"
    },
    {
      "inputs": [],
      "name": "dateOfWorkCompletion",
      "outputs": [
        {
          "internalType": "uint256",
          "name": "",
          "type": "uint256"
        }
      ],
      "stateMutability": "view",
      "type": "function"
    },
    {
      "inputs": [],
      "name": "descriptionOfProject",
      "outputs": [
        {
          "internalType": "string",
          "name": "",
          "type": "string"
        }
      ],
      "stateMutability": "view",
      "type": "function"
    },
    {
      "inputs": [],
      "name": "isTransferable",
      "outputs": [
        {
          "internalType": "bool",
          "name": "",
          "type": "bool"
        }
      ],
      "stateMutability": "view",
      "type": "function"
    },
    {
      "inputs": [],
      "name": "locationOfWork",
      "outputs": [
        {
          "internalType": "string",
          "name": "streetAddressLine1",
          "type": "string"
        },
        {
          "internalType": "string",
          "name": "streetAddressLine2",
          "type": "string"
        },
        {
          "internalType": "string",
          "name": "city",
          "type": "string"
        },
        {
          "internalType": "string",
          "name": "state",
          "type": "string"
        },
        {
          "internalType": "string",
          "name": "postalCode",
          "type": "string"
        }
      ],
      "stateMutability": "view",
      "type": "function"
    },
    {
      "inputs": [],
      "name": "numberOfDaysToCorrect",
      "outputs": [
        {
          "internalType": "uint256",
          "name": "",
          "type": "uint256"
        }
      ],
      "stateMutability": "view",
      "type": "function"
    },
    {
      "inputs": [],
      "name": "projectName",
      "outputs": [
        {
          "internalType": "string",
          "name": "",
          "type": "string"
        }
      ],
      "stateMutability": "view",
      "type": "function"
    },
    {
      "inputs": [],
      "name": "stateOfWarranty",
      "outputs": [
        {
          "internalType": "enum BaseWarrantySmartContract.WarrantyState",
          "name": "",
          "type": "uint8"
        }
      ],
      "stateMutability": "view",
      "type": "function"
    },
    {
      "inputs": [],
      "name": "warrantyExpirationDate",
      "outputs": [
        {
          "internalType": "uint256",
          "name": "",
          "type": "uint256"
        }
      ],
      "stateMutability": "view",
      "type": "function"
    },
    {
      "inputs": [],
      "name": "warrantyExpires",
      "outputs": [
        {
          "internalType": "bool",
          "name": "",
          "type": "bool"
        }
      ],
      "stateMutability": "view",
      "type": "function"
    },
    {
      "inputs": [],
      "name": "warrantyHolder",
      "outputs": [
        {
          "internalType": "string",
          "name": "name",
          "type": "string"
        },
        {
          "internalType": "address",
          "name": "partyAddress",
          "type": "address"
        },
        {
          "components": [
            {
              "internalType": "string",
              "name": "streetAddressLine1",
              "type": "string"
            },
            {
              "internalType": "string",
              "name": "streetAddressLine2",
              "type": "string"
            },
            {
              "internalType": "string",
              "name": "city",
              "type": "string"
            },
            {
              "internalType": "string",
              "name": "state",
              "type": "string"
            },
            {
              "internalType": "string",
              "name": "postalCode",
              "type": "string"
            }
          ],
          "internalType": "struct BaseWarrantySmartContract.Location",
          "name": "physicalLocation",
          "type": "tuple"
        },
        {
          "components": [
            {
              "internalType": "string",
              "name": "email",
              "type": "string"
            },
            {
              "internalType": "string",
              "name": "phoneMobile",
              "type": "string"
            },
            {
              "internalType": "string",
              "name": "phoneHome",
              "type": "string"
            }
          ],
          "internalType": "struct BaseWarrantySmartContract.ContactInformation",
          "name": "contactInfo",
          "type": "tuple"
        }
      ],
      "stateMutability": "view",
      "type": "function"
    },
    {
      "inputs": [],
      "name": "warrantyProvider",
      "outputs": [
        {
          "internalType": "string",
          "name": "name",
          "type": "string"
        },
        {
          "internalType": "address",
          "name": "partyAddress",
          "type": "address"
        },
        {
          "components": [
            {
              "internalType": "string",
              "name": "streetAddressLine1",
              "type": "string"
            },
            {
              "internalType": "string",
              "name": "streetAddressLine2",
              "type": "string"
            },
            {
              "internalType": "string",
              "name": "city",
              "type": "string"
            },
            {
              "internalType": "string",
              "name": "state",
              "type": "string"
            },
            {
              "internalType": "string",
              "name": "postalCode",
              "type": "string"
            }
          ],
          "internalType": "struct BaseWarrantySmartContract.Location",
          "name": "physicalLocation",
          "type": "tuple"
        },
        {
          "components": [
            {
              "internalType": "string",
              "name": "email",
              "type": "string"
            },
            {
              "internalType": "string",
              "name": "phoneMobile",
              "type": "string"
            },
            {
              "internalType": "string",
              "name": "phoneHome",
              "type": "string"
            }
          ],
          "internalType": "struct BaseWarrantySmartContract.ContactInformation",
          "name": "contactInfo",
          "type": "tuple"
        }
      ],
      "stateMutability": "view",
      "type": "function"
    },
    {
      "inputs": [],
      "name": "warrantyStartDate",
      "outputs": [
        {
          "internalType": "uint256",
          "name": "",
          "type": "uint256"
        }
      ],
      "stateMutability": "view",
      "type": "function"
    },
    {
      "inputs": [],
      "name": "checkIfExpired",
      "outputs": [
        {
          "internalType": "bool",
          "name": "",
          "type": "bool"
        }
      ],
      "stateMutability": "view",
      "type": "function"
    },
    {
      "inputs": [],
      "name": "getDaysUntilExpiration",
      "outputs": [
        {
          "internalType": "uint256",
          "name": "",
          "type": "uint256"
        }
      ],
      "stateMutability": "view",
      "type": "function"
    },
    {
      "inputs": [],
      "name": "getLocationAsString",
      "outputs": [
        {
          "internalType": "string",
          "name": "",
          "type": "string"
        }
      ],
      "stateMutability": "view",
      "type": "function"
    },
    {
      "inputs": [
        {
          "components": [
            {
              "internalType": "string",
              "name": "name",
              "type": "string"
            },
            {
              "internalType": "address",
              "name": "partyAddress",
              "type": "address"
            },
            {
              "components": [
                {
                  "internalType": "string",
                  "name": "streetAddressLine1",
                  "type": "string"
                },
                {
                  "internalType": "string",
                  "name": "streetAddressLine2",
                  "type": "string"
                },
                {
                  "internalType": "string",
                  "name": "city",
                  "type": "string"
                },
                {
                  "internalType": "string",
                  "name": "state",
                  "type": "string"
                },
                {
                  "internalType": "string",
                  "name": "postalCode",
                  "type": "string"
                }
              ],
              "internalType": "struct BaseWarrantySmartContract.Location",
              "name": "physicalLocation",
              "type": "tuple"
            },
            {
              "components": [
                {
                  "internalType": "string",
                  "name": "email",
                  "type": "string"
                },
                {
                  "internalType": "string",
                  "name": "phoneMobile",
                  "type": "string"
                },
                {
                  "internalType": "string",
                  "name": "phoneHome",
                  "type": "string"
                }
              ],
              "internalType": "struct BaseWarrantySmartContract.ContactInformation",
              "name": "contactInfo",
              "type": "tuple"
            }
          ],
          "internalType": "struct BaseWarrantySmartContract.Party",
          "name": "newParty",
          "type": "tuple"
        }
      ],
      "name": "transferWarrantyToAnotherParty",
      "outputs": [],
      "stateMutability": "nonpayable",
      "type": "function"
    },
    {
      "inputs": [],
      "name": "getPreviousHolders",
      "outputs": [
        {
          "components": [
            {
              "internalType": "string",
              "name": "name",
              "type": "string"
            },
            {
              "internalType": "address",
              "name": "partyAddress",
              "type": "address"
            },
            {
              "components": [
                {
                  "internalType": "string",
                  "name": "streetAddressLine1",
                  "type": "string"
                },
                {
                  "internalType": "string",
                  "name": "streetAddressLine2",
                  "type": "string"
                },
                {
                  "internalType": "string",
                  "name": "city",
                  "type": "string"
                },
                {
                  "internalType": "string",
                  "name": "state",
                  "type": "string"
                },
                {
                  "internalType": "string",
                  "name": "postalCode",
                  "type": "string"
                }
              ],
              "internalType": "struct BaseWarrantySmartContract.Location",
              "name": "physicalLocation",
              "type": "tuple"
            },
            {
              "components": [
                {
                  "internalType": "string",
                  "name": "email",
                  "type": "string"
                },
                {
                  "internalType": "string",
                  "name": "phoneMobile",
                  "type": "string"
                },
                {
                  "internalType": "string",
                  "name": "phoneHome",
                  "type": "string"
                }
              ],
              "internalType": "struct BaseWarrantySmartContract.ContactInformation",
              "name": "contactInfo",
              "type": "tuple"
            }
          ],
          "internalType": "struct BaseWarrantySmartContract.Party[]",
          "name": "",
          "type": "tuple[]"
        }
      ],
      "stateMutability": "view",
      "type": "function"
    }
  ],
  "bytecode": "0x6101206040523480156200001257600080fd5b5060405162003bbf38038062003bbf833981810160405281019062000038919062000a9b565b866080818152505042610100818152505088151560c0811515815250508960a081815250506001601d60006101000a81548160ff0219169083600281111562000086576200008562000c2c565b5b02179055508760e081815250508560159080519060200190620000ab92919062000483565b5084601c9080519060200190620000c492919062000483565b5082600a6000820151816000019080519060200190620000e692919062000483565b5060208201518160010160006101000a81548173ffffffffffffffffffffffffffffffffffffffff021916908373ffffffffffffffffffffffffffffffffffffffff16021790555060408201518160020160008201518160000190805190602001906200015592919062000483565b5060208201518160010190805190602001906200017492919062000483565b5060408201518160020190805190602001906200019392919062000483565b506060820151816003019080519060200190620001b292919062000483565b506080820151816004019080519060200190620001d192919062000483565b5050506060820151816007016000820151816000019080519060200190620001fb92919062000483565b5060208201518160010190805190602001906200021a92919062000483565b5060408201518160020190805190602001906200023992919062000483565b505050905050816000808201518160000190805190602001906200025f92919062000483565b5060208201518160010160006101000a81548173ffffffffffffffffffffffffffffffffffffffff021916908373ffffffffffffffffffffffffffffffffffffffff1602179055506040820151816002016000820151816000019080519060200190620002ce92919062000483565b506020820151816001019080519060200190620002ed92919062000483565b5060408201518160020190805190602001906200030c92919062000483565b5060608201518160030190805190602001906200032b92919062000483565b5060808201518160040190805190602001906200034a92919062000483565b50505060608201518160070160008201518160000190805190602001906200037492919062000483565b5060208201518160010190805190602001906200039392919062000483565b506040820151816002019080519060200190620003b292919062000483565b5050509050508060176000820151816000019080519060200190620003d992919062000483565b506020820151816001019080519060200190620003f892919062000483565b5060408201518160020190805190602001906200041792919062000483565b5060608201518160030190805190602001906200043692919062000483565b5060808201518160040190805190602001906200045592919062000483565b5090505083601660006101000a81548160ff0219169083151502179055505050505050505050505062000cbf565b828054620004919062000c8a565b90600052602060002090601f016020900481019282620004b5576000855562000501565b82601f10620004d057805160ff191683800117855562000501565b8280016001018555821562000501579182015b8281111562000500578251825591602001919060010190620004e3565b5b50905062000510919062000514565b5090565b5b808211156200052f57600081600090555060010162000515565b5090565b6000604051905090565b600080fd5b600080fd5b6000819050919050565b6200055c8162000547565b81146200056857600080fd5b50565b6000815190506200057c8162000551565b92915050565b60008115159050919050565b620005998162000582565b8114620005a557600080fd5b50565b600081519050620005b9816200058e565b92915050565b600080fd5b600080fd5b6000601f19601f8301169050919050565b7f4e487b7100000000000000000000000000000000000000000000000000000000600052604160045260246000fd5b6200061482620005c9565b810181811067ffffffffffffffff82111715620006365762000635620005da565b5b80604052505050565b60006200064b62000533565b905062000659828262000609565b919050565b600067ffffffffffffffff8211156200067c576200067b620005da565b5b6200068782620005c9565b9050602081019050919050565b60005b83811015620006b457808201518184015260208101905062000697565b83811115620006c4576000848401525b50505050565b6000620006e1620006db846200065e565b6200063f565b9050828152602081018484840111156200070057620006ff620005c4565b5b6200070d84828562000694565b509392505050565b600082601f8301126200072d576200072c620005bf565b5b81516200073f848260208601620006ca565b91505092915050565b600080fd5b600080fd5b600073ffffffffffffffffffffffffffffffffffffffff82169050919050565b60006200077f8262000752565b9050919050565b620007918162000772565b81146200079d57600080fd5b50565b600081519050620007b18162000786565b92915050565b600060a08284031215620007d057620007cf62000748565b5b620007dc60a06200063f565b9050600082015167ffffffffffffffff811115620007ff57620007fe6200074d565b5b6200080d8482850162000715565b600083015250602082015167ffffffffffffffff8111156200083457620008336200074d565b5b620008428482850162000715565b602083015250604082015167ffffffffffffffff8111156200086957620008686200074d565b5b620008778482850162000715565b604083015250606082015167ffffffffffffffff8111156200089e576200089d6200074d565b5b620008ac8482850162000715565b606083015250608082015167ffffffffffffffff811115620008d357620008d26200074d565b5b620008e18482850162000715565b60808301525092915050565b60006060828403121562000906576200090562000748565b5b6200091260606200063f565b9050600082015167ffffffffffffffff8111156200093557620009346200074d565b5b620009438482850162000715565b600083015250602082015167ffffffffffffffff8111156200096a57620009696200074d565b5b620009788482850162000715565b602083015250604082015167ffffffffffffffff8111156200099f576200099e6200074d565b5b620009ad8482850162000715565b60408301525092915050565b600060808284031215620009d257620009d162000748565b5b620009de60806200063f565b9050600082015167ffffffffffffffff81111562000a015762000a006200074d565b5b62000a0f8482850162000715565b600083015250602062000a2584828501620007a0565b602083015250604082015167ffffffffffffffff81111562000a4c5762000a4b6200074d565b5b62000a5a84828501620007b7565b604083015250606082015167ffffffffffffffff81111562000a815762000a806200074d565b5b62000a8f84828501620008ed565b60608301525092915050565b6000806000806000806000806000806101408b8d03121562000ac25762000ac16200053d565b5b600062000ad28d828e016200056b565b9a5050602062000ae58d828e01620005a8565b995050604062000af88d828e016200056b565b985050606062000b0b8d828e016200056b565b97505060808b015167ffffffffffffffff81111562000b2f5762000b2e62000542565b5b62000b3d8d828e0162000715565b96505060a08b015167ffffffffffffffff81111562000b615762000b6062000542565b5b62000b6f8d828e0162000715565b95505060c062000b828d828e01620005a8565b94505060e08b015167ffffffffffffffff81111562000ba65762000ba562000542565b5b62000bb48d828e01620009b9565b9350506101008b015167ffffffffffffffff81111562000bd95762000bd862000542565b5b62000be78d828e01620009b9565b9250506101208b015167ffffffffffffffff81111562000c0c5762000c0b62000542565b5b62000c1a8d828e01620007b7565b9150509295989b9194979a5092959850565b7f4e487b7100000000000000000000000000000000000000000000000000000000600052602160045260246000fd5b7f4e487b7100000000000000000000000000000000000000000000000000000000600052602260045260246000fd5b6000600282049050600182168062000ca357607f821691505b60208210810362000cb95762000cb862000c5b565b5b50919050565b60805160a05160c05160e05161010051612ead62000d12600039600061075001526000611da1015260006110cf01526000818161078d01528181611d7d0152611deb0152600061072c0152612ead6000f3fe608060405234801561001057600080fd5b506004361061010b5760003560e01c80636c51cd72116100a2578063b395fed611610071578063b395fed614610280578063c2c967c91461029e578063cf561a21146102bc578063d89998cf146102da578063dbae9bca146102f85761010b565b80636c51cd721461020157806398c5aafe146102235780639a33e30014610241578063a7394b281461025f5761010b565b80632daf311b116100de5780632daf311b146101865780632e7c0ada146101a45780634a608861146101c5578063645461f5146101e35761010b565b806309f174c3146101105780631798c6c91461012c5780631a8a3a401461014a5780632121dc7514610168575b600080fd5b61012a600480360381019061012591906123df565b610316565b005b61013461072a565b6040516101419190612441565b60405180910390f35b61015261074e565b60405161015f9190612441565b60405180910390f35b610170610772565b60405161017d9190612477565b60405180910390f35b61018e610785565b60405161019b9190612477565b60405180910390f35b6101ac6107c6565b6040516101bc9493929190612663565b60405180910390f35b6101cd610d30565b6040516101da91906126bd565b60405180910390f35b6101eb610d73565b6040516101f891906126bd565b60405180910390f35b610209610e01565b60405161021a9594939291906126df565b60405180910390f35b61022b6110cd565b6040516102389190612477565b60405180910390f35b6102496110f1565b60405161025691906126bd565b60405180910390f35b61026761117f565b6040516102779493929190612663565b60405180910390f35b6102886116e9565b6040516102959190612987565b60405180910390f35b6102a6611d7b565b6040516102b39190612441565b60405180910390f35b6102c4611d9f565b6040516102d19190612441565b60405180910390f35b6102e2611dc3565b6040516102ef9190612441565b60405180910390f35b610300611e21565b60405161030d9190612a20565b60405180910390f35b600060010160009054906101000a900473ffffffffffffffffffffffffffffffffffffffff1673ffffffffffffffffffffffffffffffffffffffff163373ffffffffffffffffffffffffffffffffffffffff16146103a9576040517f08c379a00000000000000000000000000000000000000000000000000000000081526004016103a090612aad565b60405180910390fd5b601660009054906101000a900460ff1615610727576014600090806001815401808255809150506001900390600052602060002090600a020160009091909190915060008201816000019080546103ff90612afc565b61040a929190611e51565b506001820160009054906101000a900473ffffffffffffffffffffffffffffffffffffffff168160010160006101000a81548173ffffffffffffffffffffffffffffffffffffffff021916908373ffffffffffffffffffffffffffffffffffffffff1602179055506002820181600201600082018160000190805461048e90612afc565b610499929190611e51565b5060018201816001019080546104ae90612afc565b6104b9929190611e51565b5060028201816002019080546104ce90612afc565b6104d9929190611e51565b5060038201816003019080546104ee90612afc565b6104f9929190611e51565b50600482018160040190805461050e90612afc565b610519929190611e51565b5050506007820181600701600082018160000190805461053890612afc565b610543929190611e51565b50600182018160010190805461055890612afc565b610563929190611e51565b50600282018160020190805461057890612afc565b610583929190611e51565b5050505050806000808201518160000190805190602001906105a6929190611ede565b5060208201518160010160006101000a81548173ffffffffffffffffffffffffffffffffffffffff021916908373ffffffffffffffffffffffffffffffffffffffff1602179055506040820151816002016000820151816000019080519060200190610613929190611ede565b506020820151816001019080519060200190610630929190611ede565b50604082015181600201908051906020019061064d929190611ede565b50606082015181600301908051906020019061066a929190611ede565b506080820151816004019080519060200190610687929190611ede565b50505060608201518160070160008201518160000190805190602001906106af929190611ede565b5060208201518160010190805190602001906106cc929190611ede565b5060408201518160020190805190602001906106e9929190611ede565b5050509050507fe8176a51a789da4605a6bf9fc8146fdf034b0181042080626b1696e1218212458160405161071e9190612b9e565b60405180910390a15b50565b7f000000000000000000000000000000000000000000000000000000000000000081565b7f000000000000000000000000000000000000000000000000000000000000000081565b601660009054906101000a900460ff1681565b6000804290507f00000000000000000000000000000000000000000000000000000000000000008111156107bd5760019150506107c3565b60009150505b90565b60008060000180546107d790612afc565b80601f016020809104026020016040519081016040528092919081815260200182805461080390612afc565b80156108505780601f1061082557610100808354040283529160200191610850565b820191906000526020600020905b81548152906001019060200180831161083357829003601f168201915b5050505050908060010160009054906101000a900473ffffffffffffffffffffffffffffffffffffffff1690806002016040518060a001604052908160008201805461089b90612afc565b80601f01602080910402602001604051908101604052809291908181526020018280546108c790612afc565b80156109145780601f106108e957610100808354040283529160200191610914565b820191906000526020600020905b8154815290600101906020018083116108f757829003601f168201915b5050505050815260200160018201805461092d90612afc565b80601f016020809104026020016040519081016040528092919081815260200182805461095990612afc565b80156109a65780601f1061097b576101008083540402835291602001916109a6565b820191906000526020600020905b81548152906001019060200180831161098957829003601f168201915b505050505081526020016002820180546109bf90612afc565b80601f01602080910402602001604051908101604052809291908181526020018280546109eb90612afc565b8015610a385780601f10610a0d57610100808354040283529160200191610a38565b820191906000526020600020905b815481529060010190602001808311610a1b57829003601f168201915b50505050508152602001600382018054610a5190612afc565b80601f0160208091040260200160405190810160405280929190818152602001828054610a7d90612afc565b8015610aca5780601f10610a9f57610100808354040283529160200191610aca565b820191906000526020600020905b815481529060010190602001808311610aad57829003601f168201915b50505050508152602001600482018054610ae390612afc565b80601f0160208091040260200160405190810160405280929190818152602001828054610b0f90612afc565b8015610b5c5780601f10610b3157610100808354040283529160200191610b5c565b820191906000526020600020905b815481529060010190602001808311610b3f57829003601f168201915b5050505050815250509080600701604051806060016040529081600082018054610b8590612afc565b80601f0160208091040260200160405190810160405280929190818152602001828054610bb190612afc565b8015610bfe5780601f10610bd357610100808354040283529160200191610bfe565b820191906000526020600020905b815481529060010190602001808311610be157829003601f168201915b50505050508152602001600182018054610c1790612afc565b80601f0160208091040260200160405190810160405280929190818152602001828054610c4390612afc565b8015610c905780601f10610c6557610100808354040283529160200191610c90565b820191906000526020600020905b815481529060010190602001808311610c7357829003601f168201915b50505050508152602001600282018054610ca990612afc565b80601f0160208091040260200160405190810160405280929190818152602001828054610cd590612afc565b8015610d225780601f10610cf757610100808354040283529160200191610d22565b820191906000526020600020905b815481529060010190602001808311610d0557829003601f168201915b505050505081525050905084565b606060176000016017600101601760020160176003016017600401604051602001610d5f959493929190612cab565b604051602081830303815290604052905090565b601c8054610d8090612afc565b80601f0160208091040260200160405190810160405280929190818152602001828054610dac90612afc565b8015610df95780601f10610dce57610100808354040283529160200191610df9565b820191906000526020600020905b815481529060010190602001808311610ddc57829003601f168201915b505050505081565b6017806000018054610e1290612afc565b80601f0160208091040260200160405190810160405280929190818152602001828054610e3e90612afc565b8015610e8b5780601f10610e6057610100808354040283529160200191610e8b565b820191906000526020600020905b815481529060010190602001808311610e6e57829003601f168201915b505050505090806001018054610ea090612afc565b80601f0160208091040260200160405190810160405280929190818152602001828054610ecc90612afc565b8015610f195780601f10610eee57610100808354040283529160200191610f19565b820191906000526020600020905b815481529060010190602001808311610efc57829003601f168201915b505050505090806002018054610f2e90612afc565b80601f0160208091040260200160405190810160405280929190818152602001828054610f5a90612afc565b8015610fa75780601f10610f7c57610100808354040283529160200191610fa7565b820191906000526020600020905b815481529060010190602001808311610f8a57829003601f168201915b505050505090806003018054610fbc90612afc565b80601f0160208091040260200160405190810160405280929190818152602001828054610fe890612afc565b80156110355780601f1061100a57610100808354040283529160200191611035565b820191906000526020600020905b81548152906001019060200180831161101857829003601f168201915b50505050509080600401805461104a90612afc565b80601f016020809104026020016040519081016040528092919081815260200182805461107690612afc565b80156110c35780601f10611098576101008083540402835291602001916110c3565b820191906000526020600020905b8154815290600101906020018083116110a657829003601f168201915b5050505050905085565b7f000000000000000000000000000000000000000000000000000000000000000081565b601580546110fe90612afc565b80601f016020809104026020016040519081016040528092919081815260200182805461112a90612afc565b80156111775780601f1061114c57610100808354040283529160200191611177565b820191906000526020600020905b81548152906001019060200180831161115a57829003601f168201915b505050505081565b600a80600001805461119090612afc565b80601f01602080910402602001604051908101604052809291908181526020018280546111bc90612afc565b80156112095780601f106111de57610100808354040283529160200191611209565b820191906000526020600020905b8154815290600101906020018083116111ec57829003601f168201915b5050505050908060010160009054906101000a900473ffffffffffffffffffffffffffffffffffffffff1690806002016040518060a001604052908160008201805461125490612afc565b80601f016020809104026020016040519081016040528092919081815260200182805461128090612afc565b80156112cd5780601f106112a2576101008083540402835291602001916112cd565b820191906000526020600020905b8154815290600101906020018083116112b057829003601f168201915b505050505081526020016001820180546112e690612afc565b80601f016020809104026020016040519081016040528092919081815260200182805461131290612afc565b801561135f5780601f106113345761010080835404028352916020019161135f565b820191906000526020600020905b81548152906001019060200180831161134257829003601f168201915b5050505050815260200160028201805461137890612afc565b80601f01602080910402602001604051908101604052809291908181526020018280546113a490612afc565b80156113f15780601f106113c6576101008083540402835291602001916113f1565b820191906000526020600020905b8154815290600101906020018083116113d457829003601f168201915b5050505050815260200160038201805461140a90612afc565b80601f016020809104026020016040519081016040528092919081815260200182805461143690612afc565b80156114835780601f1061145857610100808354040283529160200191611483565b820191906000526020600020905b81548152906001019060200180831161146657829003601f168201915b5050505050815260200160048201805461149c90612afc565b80601f01602080910402602001604051908101604052809291908181526020018280546114c890612afc565b80156115155780601f106114ea57610100808354040283529160200191611515565b820191906000526020600020905b8154815290600101906020018083116114f857829003601f168201915b505050505081525050908060070160405180606001604052908160008201805461153e90612afc565b80601f016020809104026020016040519081016040528092919081815260200182805461156a90612afc565b80156115b75780601f1061158c576101008083540402835291602001916115b7565b820191906000526020600020905b81548152906001019060200180831161159a57829003601f168201915b505050505081526020016001820180546115d090612afc565b80601f01602080910402602001604051908101604052809291908181526020018280546115fc90612afc565b80156116495780601f1061161e57610100808354040283529160200191611649565b820191906000526020600020905b81548152906001019060200180831161162c57829003601f168201915b5050505050815260200160028201805461166290612afc565b80601f016020809104026020016040519081016040528092919081815260200182805461168e90612afc565b80156116db5780601f106116b0576101008083540402835291602001916116db565b820191906000526020600020905b8154815290600101906020018083116116be57829003601f168201915b505050505081525050905084565b6060600a60010160009054906101000a900473ffffffffffffffffffffffffffffffffffffffff1673ffffffffffffffffffffffffffffffffffffffff163373ffffffffffffffffffffffffffffffffffffffff161461177e576040517f08c379a000000000000000000000000000000000000000000000000000000000815260040161177590612d94565b60405180910390fd5b6014805480602002602001604051908101604052809291908181526020016000905b82821015611d7257838290600052602060002090600a02016040518060800160405290816000820180546117d390612afc565b80601f01602080910402602001604051908101604052809291908181526020018280546117ff90612afc565b801561184c5780601f106118215761010080835404028352916020019161184c565b820191906000526020600020905b81548152906001019060200180831161182f57829003601f168201915b505050505081526020016001820160009054906101000a900473ffffffffffffffffffffffffffffffffffffffff1673ffffffffffffffffffffffffffffffffffffffff1673ffffffffffffffffffffffffffffffffffffffff168152602001600282016040518060a00160405290816000820180546118cb90612afc565b80601f01602080910402602001604051908101604052809291908181526020018280546118f790612afc565b80156119445780601f1061191957610100808354040283529160200191611944565b820191906000526020600020905b81548152906001019060200180831161192757829003601f168201915b5050505050815260200160018201805461195d90612afc565b80601f016020809104026020016040519081016040528092919081815260200182805461198990612afc565b80156119d65780601f106119ab576101008083540402835291602001916119d6565b820191906000526020600020905b8154815290600101906020018083116119b957829003601f168201915b505050505081526020016002820180546119ef90612afc565b80601f0160208091040260200160405190810160405280929190818152602001828054611a1b90612afc565b8015611a685780601f10611a3d57610100808354040283529160200191611a68565b820191906000526020600020905b815481529060010190602001808311611a4b57829003601f168201915b50505050508152602001600382018054611a8190612afc565b80601f0160208091040260200160405190810160405280929190818152602001828054611aad90612afc565b8015611afa5780601f10611acf57610100808354040283529160200191611afa565b820191906000526020600020905b815481529060010190602001808311611add57829003601f168201915b50505050508152602001600482018054611b1390612afc565b80601f0160208091040260200160405190810160405280929190818152602001828054611b3f90612afc565b8015611b8c5780601f10611b6157610100808354040283529160200191611b8c565b820191906000526020600020905b815481529060010190602001808311611b6f57829003601f168201915b505050505081525050815260200160078201604051806060016040529081600082018054611bb990612afc565b80601f0160208091040260200160405190810160405280929190818152602001828054611be590612afc565b8015611c325780601f10611c0757610100808354040283529160200191611c32565b820191906000526020600020905b815481529060010190602001808311611c1557829003601f168201915b50505050508152602001600182018054611c4b90612afc565b80601f0160208091040260200160405190810160405280929190818152602001828054611c7790612afc565b8015611cc45780601f10611c9957610100808354040283529160200191611cc4565b820191906000526020600020905b815481529060010190602001808311611ca757829003601f168201915b50505050508152602001600282018054611cdd90612afc565b80601f0160208091040260200160405190810160405280929190818152602001828054611d0990612afc565b8015611d565780601f10611d2b57610100808354040283529160200191611d56565b820191906000526020600020905b815481529060010190602001808311611d3957829003601f168201915b50505050508152505081525050815260200190600101906117a0565b50505050905090565b7f000000000000000000000000000000000000000000000000000000000000000081565b7f000000000000000000000000000000000000000000000000000000000000000081565b600080611dce610785565b90508015611de0576000915050611e1e565b6000429050611e19817f0000000000000000000000000000000000000000000000000000000000000000611e149190612de3565b611e34565b925050505b90565b601d60009054906101000a900460ff1681565b6000806201518090508083611e499190612e46565b915050919050565b828054611e5d90612afc565b90600052602060002090601f016020900481019282611e7f5760008555611ecd565b82601f10611e905780548555611ecd565b82800160010185558215611ecd57600052602060002091601f016020900482015b82811115611ecc578254825591600101919060010190611eb1565b5b509050611eda9190611f64565b5090565b828054611eea90612afc565b90600052602060002090601f016020900481019282611f0c5760008555611f53565b82601f10611f2557805160ff1916838001178555611f53565b82800160010185558215611f53579182015b82811115611f52578251825591602001919060010190611f37565b5b509050611f609190611f64565b5090565b5b80821115611f7d576000816000905550600101611f65565b5090565b6000604051905090565b600080fd5b600080fd5b600080fd5b6000601f19601f8301169050919050565b7f4e487b7100000000000000000000000000000000000000000000000000000000600052604160045260246000fd5b611fe382611f9a565b810181811067ffffffffffffffff8211171561200257612001611fab565b5b80604052505050565b6000612015611f81565b90506120218282611fda565b919050565b600080fd5b600080fd5b600080fd5b600067ffffffffffffffff8211156120505761204f611fab565b5b61205982611f9a565b9050602081019050919050565b82818337600083830152505050565b600061208861208384612035565b61200b565b9050828152602081018484840111156120a4576120a3612030565b5b6120af848285612066565b509392505050565b600082601f8301126120cc576120cb61202b565b5b81356120dc848260208601612075565b91505092915050565b600073ffffffffffffffffffffffffffffffffffffffff82169050919050565b6000612110826120e5565b9050919050565b61212081612105565b811461212b57600080fd5b50565b60008135905061213d81612117565b92915050565b600060a0828403121561215957612158611f95565b5b61216360a061200b565b9050600082013567ffffffffffffffff81111561218357612182612026565b5b61218f848285016120b7565b600083015250602082013567ffffffffffffffff8111156121b3576121b2612026565b5b6121bf848285016120b7565b602083015250604082013567ffffffffffffffff8111156121e3576121e2612026565b5b6121ef848285016120b7565b604083015250606082013567ffffffffffffffff81111561221357612212612026565b5b61221f848285016120b7565b606083015250608082013567ffffffffffffffff81111561224357612242612026565b5b61224f848285016120b7565b60808301525092915050565b60006060828403121561227157612270611f95565b5b61227b606061200b565b9050600082013567ffffffffffffffff81111561229b5761229a612026565b5b6122a7848285016120b7565b600083015250602082013567ffffffffffffffff8111156122cb576122ca612026565b5b6122d7848285016120b7565b602083015250604082013567ffffffffffffffff8111156122fb576122fa612026565b5b612307848285016120b7565b60408301525092915050565b60006080828403121561232957612328611f95565b5b612333608061200b565b9050600082013567ffffffffffffffff81111561235357612352612026565b5b61235f848285016120b7565b60008301525060206123738482850161212e565b602083015250604082013567ffffffffffffffff81111561239757612396612026565b5b6123a384828501612143565b604083015250606082013567ffffffffffffffff8111156123c7576123c6612026565b5b6123d38482850161225b565b60608301525092915050565b6000602082840312156123f5576123f4611f8b565b5b600082013567ffffffffffffffff81111561241357612412611f90565b5b61241f84828501612313565b91505092915050565b6000819050919050565b61243b81612428565b82525050565b60006020820190506124566000830184612432565b92915050565b60008115159050919050565b6124718161245c565b82525050565b600060208201905061248c6000830184612468565b92915050565b600081519050919050565b600082825260208201905092915050565b60005b838110156124cc5780820151818401526020810190506124b1565b838111156124db576000848401525b50505050565b60006124ec82612492565b6124f6818561249d565b93506125068185602086016124ae565b61250f81611f9a565b840191505092915050565b61252381612105565b82525050565b600082825260208201905092915050565b600061254582612492565b61254f8185612529565b935061255f8185602086016124ae565b61256881611f9a565b840191505092915050565b600060a0830160008301518482036000860152612590828261253a565b915050602083015184820360208601526125aa828261253a565b915050604083015184820360408601526125c4828261253a565b915050606083015184820360608601526125de828261253a565b915050608083015184820360808601526125f8828261253a565b9150508091505092915050565b60006060830160008301518482036000860152612622828261253a565b9150506020830151848203602086015261263c828261253a565b91505060408301518482036040860152612656828261253a565b9150508091505092915050565b6000608082019050818103600083015261267d81876124e1565b905061268c602083018661251a565b818103604083015261269e8185612573565b905081810360608301526126b28184612605565b905095945050505050565b600060208201905081810360008301526126d781846124e1565b905092915050565b600060a08201905081810360008301526126f981886124e1565b9050818103602083015261270d81876124e1565b9050818103604083015261272181866124e1565b9050818103606083015261273581856124e1565b9050818103608083015261274981846124e1565b90509695505050505050565b600081519050919050565b600082825260208201905092915050565b6000819050602082019050919050565b61278a81612105565b82525050565b600060a08301600083015184820360008601526127ad828261253a565b915050602083015184820360208601526127c7828261253a565b915050604083015184820360408601526127e1828261253a565b915050606083015184820360608601526127fb828261253a565b91505060808301518482036080860152612815828261253a565b9150508091505092915050565b6000606083016000830151848203600086015261283f828261253a565b91505060208301518482036020860152612859828261253a565b91505060408301518482036040860152612873828261253a565b9150508091505092915050565b6000608083016000830151848203600086015261289d828261253a565b91505060208301516128b26020860182612781565b50604083015184820360408601526128ca8282612790565b915050606083015184820360608601526128e48282612822565b9150508091505092915050565b60006128fd8383612880565b905092915050565b6000602082019050919050565b600061291d82612755565b6129278185612760565b93508360208202850161293985612771565b8060005b85811015612975578484038952815161295685826128f1565b945061296183612905565b925060208a0199505060018101905061293d565b50829750879550505050505092915050565b600060208201905081810360008301526129a18184612912565b905092915050565b7f4e487b7100000000000000000000000000000000000000000000000000000000600052602160045260246000fd5b600381106129e9576129e86129a9565b5b50565b60008190506129fa826129d8565b919050565b6000612a0a826129ec565b9050919050565b612a1a816129ff565b82525050565b6000602082019050612a356000830184612a11565b92915050565b7f546869732066756e6374696f6e206973207265737472696374656420746f207460008201527f686520636f6e7472616374277320686f6c646572000000000000000000000000602082015250565b6000612a9760348361249d565b9150612aa282612a3b565b604082019050919050565b60006020820190508181036000830152612ac681612a8a565b9050919050565b7f4e487b7100000000000000000000000000000000000000000000000000000000600052602260045260246000fd5b60006002820490506001821680612b1457607f821691505b602082108103612b2757612b26612acd565b5b50919050565b60006080830160008301518482036000860152612b4a828261253a565b9150506020830151612b5f6020860182612781565b5060408301518482036040860152612b778282612790565b91505060608301518482036060860152612b918282612822565b9150508091505092915050565b60006020820190508181036000830152612bb88184612b2d565b905092915050565b600081905092915050565b60008190508160005260206000209050919050565b60008154612bed81612afc565b612bf78186612bc0565b94506001821660008114612c125760018114612c2357612c56565b60ff19831686528186019350612c56565b612c2c85612bcb565b60005b83811015612c4e57815481890152600182019150602081019050612c2f565b838801955050505b50505092915050565b7f2000000000000000000000000000000000000000000000000000000000000000600082015250565b6000612c95600183612bc0565b9150612ca082612c5f565b600182019050919050565b6000612cb78288612be0565b9150612cc282612c88565b9150612cce8287612be0565b9150612cd982612c88565b9150612ce58286612be0565b9150612cf082612c88565b9150612cfc8285612be0565b9150612d0782612c88565b9150612d138284612be0565b91508190509695505050505050565b7f546869732066756e6374696f6e206973207265737472696374656420746f207460008201527f68652077617272616e747927732070726f766964657200000000000000000000602082015250565b6000612d7e60368361249d565b9150612d8982612d22565b604082019050919050565b60006020820190508181036000830152612dad81612d71565b9050919050565b7f4e487b7100000000000000000000000000000000000000000000000000000000600052601160045260246000fd5b6000612dee82612428565b9150612df983612428565b925082821015612e0c57612e0b612db4565b5b828203905092915050565b7f4e487b7100000000000000000000000000000000000000000000000000000000600052601260045260246000fd5b6000612e5182612428565b9150612e5c83612428565b925082612e6c57612e6b612e17565b5b82820490509291505056fea264697066735822122007fb3f0fc74dc49068f967c8a1654932d6f49ad88881bd6ceee662353298377064736f6c634300080d0033",
  "immutableReferences": {
    "49": [
      {
        "length": 32,
        "start": 1836
      }
    ],
    "51": [
      {
        "length": 32,
        "start": 1933
      },
      {
        "length": 32,
        "start": 7549
      },
      {
        "length": 32,
        "start": 7659
      }
    ],
    "53": [
      {
        "length": 32,
        "start": 4303
      }
    ],
    "55": [
      {
        "length": 32,
        "start": 7585
      }
    ],
    "59": [
      {
        "length": 32,
        "start": 1872
      }
    ]
  },
  "source": "// SPDX-License-Identifier: GPL-3.0\r\n//The pragma command means \"additional information that only the compiler cares about\", \r\n//while the caret symbol (^) means \"the version indicated or higher\".\r\npragma solidity ^0.8.0;\r\n//practice for using the openzeppelin lib https://docs.openzeppelin.com/learn/developing-smart-contracts\r\n//is Context import \"@openzeppelin/contracts/GSN/Context.sol\";\r\n\r\n\r\ncontract BaseWarrantySmartContract {\r\n    struct Party { \r\n        //a struct representing both the contractor and client\r\n        string name; \r\n        address partyAddress;\r\n        Location physicalLocation;\r\n        ContactInformation contactInfo;\r\n    }\r\n    struct Location {\r\n        //a struct for full addresses\r\n        string streetAddressLine1;\r\n        string streetAddressLine2;\r\n        string city;\r\n        string state;\r\n        string postalCode;\r\n    }\r\n    struct ContactInformation {\r\n        //a struct for a party's contact info\r\n        string email;\r\n        string phoneMobile;\r\n        string phoneHome;\r\n    }\r\n    Party public warrantyHolder;    //the client\r\n    Party public  warrantyProvider; //the contractor\r\n    Party[] previousHolders;\r\n    string public projectName;\r\n    bool public isTransferable;\r\n    Location public locationOfWork;\r\n    uint public immutable dateOfWorkCompletion; // in seconds since 1970\r\n    uint public immutable warrantyExpirationDate;//seconds since unix epoch\r\n    bool public immutable warrantyExpires;\r\n    uint public immutable numberOfDaysToCorrect;//\tNumber of days contractor has to correct defective work before paying charges\r\n    string public descriptionOfProject;\r\n    uint256 public immutable warrantyStartDate;\r\n    enum WarrantyState { INACTIVE, ACTIVE, VOID }\r\n    WarrantyState public stateOfWarranty;\r\n    event CurrentHolderChanged(Party _newOwner);\r\n\r\n    constructor(uint _warrantyExpirationDate, //date in seconds past epoch\r\n                bool _warrantyExpires,\r\n                uint _numberOfDaysToCorrect,\r\n                uint _workCompleted, //date in seconds past epoch\r\n                string memory _projectName,\r\n                string memory _description,\r\n                bool _transferable,\r\n                Party memory _warrantyProvider,\r\n                Party memory _warrantyHolder,\r\n                Location memory _location\r\n    ) {\r\n        dateOfWorkCompletion = _workCompleted;\r\n        warrantyStartDate = block.timestamp;\r\n        warrantyExpires = _warrantyExpires;\r\n        warrantyExpirationDate = _warrantyExpirationDate;\r\n        stateOfWarranty = WarrantyState.ACTIVE;\r\n        numberOfDaysToCorrect = _numberOfDaysToCorrect;\r\n        projectName = _projectName;\r\n        descriptionOfProject = _description;\r\n        warrantyProvider = _warrantyProvider;\r\n        warrantyHolder = _warrantyHolder;\r\n        locationOfWork = _location;\r\n        isTransferable = _transferable;\r\n    }\r\n\r\n    function checkIfExpired() public view returns(bool) {\r\n        uint currentTime = block.timestamp;\r\n        if (currentTime > warrantyExpirationDate) {\r\n            return true;\r\n        } \r\n        else {\r\n            return false;\r\n        }\r\n    }\r\n\r\n    function getDaysUntilExpiration() public view returns(uint) {\r\n        //view =  the function only reads the state\r\n        bool isExpired = checkIfExpired();\r\n        if (isExpired) {\r\n            return 0;\r\n        }\r\n        else {\r\n            uint currentTime = block.timestamp;\r\n            return convertSecondsToDays(warrantyExpirationDate - currentTime);\r\n        }\r\n    }\r\n\r\n    function convertSecondsToDays(uint secondsToConvert) internal pure returns(uint) {\r\n        //internal the contract and its derivatives can call the function\r\n        //pure: the function neither reads nor writes to the state\r\n        uint day = 1 days;//amount of seconds in a day\r\n        return secondsToConvert/day;\r\n    }\r\n\r\n    function getLocationAsString() public view returns (string memory) {\r\n        return string(abi.encodePacked(locationOfWork.streetAddressLine1, \" \",\r\n        locationOfWork.streetAddressLine2, \" \",\r\n        locationOfWork.city, \" \",\r\n        locationOfWork.state, \" \",\r\n        locationOfWork.postalCode));\r\n    }\r\n\r\n    modifier holderOnly() {\r\n    require(\r\n      msg.sender == warrantyHolder.partyAddress,\r\n      \"This function is restricted to the contract's holder\"\r\n    );\r\n    _;\r\n  }\r\n\r\n    modifier providerOnly() {\r\n    require(\r\n      msg.sender == warrantyProvider.partyAddress,\r\n      \"This function is restricted to the warranty's provider\"\r\n    );\r\n    _;\r\n  }\r\n    function transferWarrantyToAnotherParty(Party memory newParty)\r\n    external holderOnly {\r\n        //external =  anyone but the contract can call the function. Using the external type instead of public can have a performance boost and potentially save a lot of gas\r\n        //require(msg.sender == warrantyProvider.partyAddress);//should require the by party's permission\r\n        if (isTransferable){\r\n            previousHolders.push(warrantyHolder);\r\n            warrantyHolder = newParty; \r\n            emit CurrentHolderChanged(newParty);\r\n        }\r\n    }\r\n\r\n    function getPreviousHolders() \r\n    external view providerOnly \r\n    returns (Party[] memory) {\r\n        //external =  anyone but the contract can call the function. Using the external type instead of public can have a performance boost and potentially save a lot of gas\r\n        //require(msg.sender == warrantyProvider.partyAddress);//should require the by party's permission\r\n        return previousHolders;\r\n    }\r\n}",
  "sourcePath": "C:\\Users\\lritter\\source\\repos\\plural-sight\\blockchain\\contrator_keeper\\warranty_truffle_project\\contracts\\BaseWarrantySmartContract.sol",
  "compiler": {
    "name": "solc",
    "version": "0.8.13+commit.abaa5c0e.Emscripten.clang"
  },
  "schemaVersion": "3.4.6",
  "updatedAt": "2022-04-20T03:42:26.528Z",
  "devdoc": {
    "kind": "dev",
    "methods": {},
    "version": 1
  },
  "userdoc": {
    "kind": "user",
    "methods": {},
    "version": 1
  }
}