{
  "contractName": "BaseWarrantySmartContract",
  "abi": [
    {
      "inputs": [
        {
          "internalType": "uint256",
          "name": "_warrantyExpirationDate",
          "type": "uint256"
        },
        {
          "internalType": "bool",
          "name": "_warrantyExpires",
          "type": "bool"
        },
        {
          "internalType": "uint256",
          "name": "_numberOfDaysToCorrect",
          "type": "uint256"
        },
        {
          "internalType": "uint256",
          "name": "_workCompleted",
          "type": "uint256"
        },
        {
          "internalType": "string",
          "name": "_projectName",
          "type": "string"
        },
        {
          "internalType": "string",
          "name": "_description",
          "type": "string"
        },
        {
          "internalType": "bool",
          "name": "_transferable",
          "type": "bool"
        },
        {
          "components": [
            {
              "internalType": "string",
              "name": "name",
              "type": "string"
            },
            {
              "internalType": "address",
              "name": "partyAddress",
              "type": "address"
            },
            {
              "components": [
                {
                  "internalType": "string",
                  "name": "streetAddressLine1",
                  "type": "string"
                },
                {
                  "internalType": "string",
                  "name": "streetAddressLine2",
                  "type": "string"
                },
                {
                  "internalType": "string",
                  "name": "city",
                  "type": "string"
                },
                {
                  "internalType": "string",
                  "name": "state",
                  "type": "string"
                },
                {
                  "internalType": "string",
                  "name": "postalCode",
                  "type": "string"
                }
              ],
              "internalType": "struct BaseWarrantySmartContract.Location",
              "name": "physicalLocation",
              "type": "tuple"
            },
            {
              "components": [
                {
                  "internalType": "string",
                  "name": "email",
                  "type": "string"
                },
                {
                  "internalType": "string",
                  "name": "phoneMobile",
                  "type": "string"
                },
                {
                  "internalType": "string",
                  "name": "phoneHome",
                  "type": "string"
                }
              ],
              "internalType": "struct BaseWarrantySmartContract.ContactInformation",
              "name": "contactInfo",
              "type": "tuple"
            }
          ],
          "internalType": "struct BaseWarrantySmartContract.Party",
          "name": "_warrantyProvider",
          "type": "tuple"
        },
        {
          "components": [
            {
              "internalType": "string",
              "name": "name",
              "type": "string"
            },
            {
              "internalType": "address",
              "name": "partyAddress",
              "type": "address"
            },
            {
              "components": [
                {
                  "internalType": "string",
                  "name": "streetAddressLine1",
                  "type": "string"
                },
                {
                  "internalType": "string",
                  "name": "streetAddressLine2",
                  "type": "string"
                },
                {
                  "internalType": "string",
                  "name": "city",
                  "type": "string"
                },
                {
                  "internalType": "string",
                  "name": "state",
                  "type": "string"
                },
                {
                  "internalType": "string",
                  "name": "postalCode",
                  "type": "string"
                }
              ],
              "internalType": "struct BaseWarrantySmartContract.Location",
              "name": "physicalLocation",
              "type": "tuple"
            },
            {
              "components": [
                {
                  "internalType": "string",
                  "name": "email",
                  "type": "string"
                },
                {
                  "internalType": "string",
                  "name": "phoneMobile",
                  "type": "string"
                },
                {
                  "internalType": "string",
                  "name": "phoneHome",
                  "type": "string"
                }
              ],
              "internalType": "struct BaseWarrantySmartContract.ContactInformation",
              "name": "contactInfo",
              "type": "tuple"
            }
          ],
          "internalType": "struct BaseWarrantySmartContract.Party",
          "name": "_warrantyHolder",
          "type": "tuple"
        },
        {
          "components": [
            {
              "internalType": "string",
              "name": "streetAddressLine1",
              "type": "string"
            },
            {
              "internalType": "string",
              "name": "streetAddressLine2",
              "type": "string"
            },
            {
              "internalType": "string",
              "name": "city",
              "type": "string"
            },
            {
              "internalType": "string",
              "name": "state",
              "type": "string"
            },
            {
              "internalType": "string",
              "name": "postalCode",
              "type": "string"
            }
          ],
          "internalType": "struct BaseWarrantySmartContract.Location",
          "name": "_location",
          "type": "tuple"
        }
      ],
      "stateMutability": "nonpayable",
      "type": "constructor"
    },
    {
      "anonymous": false,
      "inputs": [
        {
          "components": [
            {
              "internalType": "string",
              "name": "name",
              "type": "string"
            },
            {
              "internalType": "address",
              "name": "partyAddress",
              "type": "address"
            },
            {
              "components": [
                {
                  "internalType": "string",
                  "name": "streetAddressLine1",
                  "type": "string"
                },
                {
                  "internalType": "string",
                  "name": "streetAddressLine2",
                  "type": "string"
                },
                {
                  "internalType": "string",
                  "name": "city",
                  "type": "string"
                },
                {
                  "internalType": "string",
                  "name": "state",
                  "type": "string"
                },
                {
                  "internalType": "string",
                  "name": "postalCode",
                  "type": "string"
                }
              ],
              "internalType": "struct BaseWarrantySmartContract.Location",
              "name": "physicalLocation",
              "type": "tuple"
            },
            {
              "components": [
                {
                  "internalType": "string",
                  "name": "email",
                  "type": "string"
                },
                {
                  "internalType": "string",
                  "name": "phoneMobile",
                  "type": "string"
                },
                {
                  "internalType": "string",
                  "name": "phoneHome",
                  "type": "string"
                }
              ],
              "internalType": "struct BaseWarrantySmartContract.ContactInformation",
              "name": "contactInfo",
              "type": "tuple"
            }
          ],
          "indexed": false,
          "internalType": "struct BaseWarrantySmartContract.Party",
          "name": "_newOwner",
          "type": "tuple"
        }
      ],
      "name": "CurrentHolderChanged",
      "type": "event"
    },
    {
      "inputs": [],
      "name": "dateOfWorkCompletion",
      "outputs": [
        {
          "internalType": "uint256",
          "name": "",
          "type": "uint256"
        }
      ],
      "stateMutability": "view",
      "type": "function"
    },
    {
      "inputs": [],
      "name": "descriptionOfProject",
      "outputs": [
        {
          "internalType": "string",
          "name": "",
          "type": "string"
        }
      ],
      "stateMutability": "view",
      "type": "function"
    },
    {
      "inputs": [],
      "name": "isTransferable",
      "outputs": [
        {
          "internalType": "bool",
          "name": "",
          "type": "bool"
        }
      ],
      "stateMutability": "view",
      "type": "function"
    },
    {
      "inputs": [],
      "name": "locationOfWork",
      "outputs": [
        {
          "internalType": "string",
          "name": "streetAddressLine1",
          "type": "string"
        },
        {
          "internalType": "string",
          "name": "streetAddressLine2",
          "type": "string"
        },
        {
          "internalType": "string",
          "name": "city",
          "type": "string"
        },
        {
          "internalType": "string",
          "name": "state",
          "type": "string"
        },
        {
          "internalType": "string",
          "name": "postalCode",
          "type": "string"
        }
      ],
      "stateMutability": "view",
      "type": "function"
    },
    {
      "inputs": [],
      "name": "numberOfDaysToCorrect",
      "outputs": [
        {
          "internalType": "uint256",
          "name": "",
          "type": "uint256"
        }
      ],
      "stateMutability": "view",
      "type": "function"
    },
    {
      "inputs": [],
      "name": "projectName",
      "outputs": [
        {
          "internalType": "string",
          "name": "",
          "type": "string"
        }
      ],
      "stateMutability": "view",
      "type": "function"
    },
    {
      "inputs": [],
      "name": "stateOfWarranty",
      "outputs": [
        {
          "internalType": "enum BaseWarrantySmartContract.WarrantyState",
          "name": "",
          "type": "uint8"
        }
      ],
      "stateMutability": "view",
      "type": "function"
    },
    {
      "inputs": [],
      "name": "warrantyExpirationDate",
      "outputs": [
        {
          "internalType": "uint256",
          "name": "",
          "type": "uint256"
        }
      ],
      "stateMutability": "view",
      "type": "function"
    },
    {
      "inputs": [],
      "name": "warrantyExpires",
      "outputs": [
        {
          "internalType": "bool",
          "name": "",
          "type": "bool"
        }
      ],
      "stateMutability": "view",
      "type": "function"
    },
    {
      "inputs": [],
      "name": "warrantyHolder",
      "outputs": [
        {
          "internalType": "string",
          "name": "name",
          "type": "string"
        },
        {
          "internalType": "address",
          "name": "partyAddress",
          "type": "address"
        },
        {
          "components": [
            {
              "internalType": "string",
              "name": "streetAddressLine1",
              "type": "string"
            },
            {
              "internalType": "string",
              "name": "streetAddressLine2",
              "type": "string"
            },
            {
              "internalType": "string",
              "name": "city",
              "type": "string"
            },
            {
              "internalType": "string",
              "name": "state",
              "type": "string"
            },
            {
              "internalType": "string",
              "name": "postalCode",
              "type": "string"
            }
          ],
          "internalType": "struct BaseWarrantySmartContract.Location",
          "name": "physicalLocation",
          "type": "tuple"
        },
        {
          "components": [
            {
              "internalType": "string",
              "name": "email",
              "type": "string"
            },
            {
              "internalType": "string",
              "name": "phoneMobile",
              "type": "string"
            },
            {
              "internalType": "string",
              "name": "phoneHome",
              "type": "string"
            }
          ],
          "internalType": "struct BaseWarrantySmartContract.ContactInformation",
          "name": "contactInfo",
          "type": "tuple"
        }
      ],
      "stateMutability": "view",
      "type": "function"
    },
    {
      "inputs": [],
      "name": "warrantyProvider",
      "outputs": [
        {
          "internalType": "string",
          "name": "name",
          "type": "string"
        },
        {
          "internalType": "address",
          "name": "partyAddress",
          "type": "address"
        },
        {
          "components": [
            {
              "internalType": "string",
              "name": "streetAddressLine1",
              "type": "string"
            },
            {
              "internalType": "string",
              "name": "streetAddressLine2",
              "type": "string"
            },
            {
              "internalType": "string",
              "name": "city",
              "type": "string"
            },
            {
              "internalType": "string",
              "name": "state",
              "type": "string"
            },
            {
              "internalType": "string",
              "name": "postalCode",
              "type": "string"
            }
          ],
          "internalType": "struct BaseWarrantySmartContract.Location",
          "name": "physicalLocation",
          "type": "tuple"
        },
        {
          "components": [
            {
              "internalType": "string",
              "name": "email",
              "type": "string"
            },
            {
              "internalType": "string",
              "name": "phoneMobile",
              "type": "string"
            },
            {
              "internalType": "string",
              "name": "phoneHome",
              "type": "string"
            }
          ],
          "internalType": "struct BaseWarrantySmartContract.ContactInformation",
          "name": "contactInfo",
          "type": "tuple"
        }
      ],
      "stateMutability": "view",
      "type": "function"
    },
    {
      "inputs": [],
      "name": "warrantyStartDate",
      "outputs": [
        {
          "internalType": "uint256",
          "name": "",
          "type": "uint256"
        }
      ],
      "stateMutability": "view",
      "type": "function"
    },
    {
      "inputs": [],
      "name": "checkIfExpired",
      "outputs": [
        {
          "internalType": "bool",
          "name": "",
          "type": "bool"
        }
      ],
      "stateMutability": "view",
      "type": "function"
    },
    {
      "inputs": [],
      "name": "getDaysUntilExpiration",
      "outputs": [
        {
          "internalType": "uint256",
          "name": "",
          "type": "uint256"
        }
      ],
      "stateMutability": "view",
      "type": "function"
    },
    {
      "inputs": [],
      "name": "getLocationAsString",
      "outputs": [
        {
          "internalType": "string",
          "name": "",
          "type": "string"
        }
      ],
      "stateMutability": "view",
      "type": "function"
    },
    {
      "inputs": [
        {
          "components": [
            {
              "internalType": "string",
              "name": "name",
              "type": "string"
            },
            {
              "internalType": "address",
              "name": "partyAddress",
              "type": "address"
            },
            {
              "components": [
                {
                  "internalType": "string",
                  "name": "streetAddressLine1",
                  "type": "string"
                },
                {
                  "internalType": "string",
                  "name": "streetAddressLine2",
                  "type": "string"
                },
                {
                  "internalType": "string",
                  "name": "city",
                  "type": "string"
                },
                {
                  "internalType": "string",
                  "name": "state",
                  "type": "string"
                },
                {
                  "internalType": "string",
                  "name": "postalCode",
                  "type": "string"
                }
              ],
              "internalType": "struct BaseWarrantySmartContract.Location",
              "name": "physicalLocation",
              "type": "tuple"
            },
            {
              "components": [
                {
                  "internalType": "string",
                  "name": "email",
                  "type": "string"
                },
                {
                  "internalType": "string",
                  "name": "phoneMobile",
                  "type": "string"
                },
                {
                  "internalType": "string",
                  "name": "phoneHome",
                  "type": "string"
                }
              ],
              "internalType": "struct BaseWarrantySmartContract.ContactInformation",
              "name": "contactInfo",
              "type": "tuple"
            }
          ],
          "internalType": "struct BaseWarrantySmartContract.Party",
          "name": "newParty",
          "type": "tuple"
        }
      ],
      "name": "transferWarrantyToAnotherParty",
      "outputs": [],
      "stateMutability": "nonpayable",
      "type": "function"
    },
    {
      "inputs": [],
      "name": "getPreviousHolders",
      "outputs": [
        {
          "components": [
            {
              "internalType": "string",
              "name": "name",
              "type": "string"
            },
            {
              "internalType": "address",
              "name": "partyAddress",
              "type": "address"
            },
            {
              "components": [
                {
                  "internalType": "string",
                  "name": "streetAddressLine1",
                  "type": "string"
                },
                {
                  "internalType": "string",
                  "name": "streetAddressLine2",
                  "type": "string"
                },
                {
                  "internalType": "string",
                  "name": "city",
                  "type": "string"
                },
                {
                  "internalType": "string",
                  "name": "state",
                  "type": "string"
                },
                {
                  "internalType": "string",
                  "name": "postalCode",
                  "type": "string"
                }
              ],
              "internalType": "struct BaseWarrantySmartContract.Location",
              "name": "physicalLocation",
              "type": "tuple"
            },
            {
              "components": [
                {
                  "internalType": "string",
                  "name": "email",
                  "type": "string"
                },
                {
                  "internalType": "string",
                  "name": "phoneMobile",
                  "type": "string"
                },
                {
                  "internalType": "string",
                  "name": "phoneHome",
                  "type": "string"
                }
              ],
              "internalType": "struct BaseWarrantySmartContract.ContactInformation",
              "name": "contactInfo",
              "type": "tuple"
            }
          ],
          "internalType": "struct BaseWarrantySmartContract.Party[]",
          "name": "",
          "type": "tuple[]"
        }
      ],
      "stateMutability": "view",
      "type": "function"
    }
  ],
  "bytecode": "0x6101206040523480156200001257600080fd5b5060405162003bed38038062003bed833981810160405281019062000038919062000a9b565b866080818152505042610100818152505088151560c0811515815250508960a081815250506001601d60006101000a81548160ff0219169083600281111562000086576200008562000c2c565b5b02179055508760e081815250508560159080519060200190620000ab92919062000483565b5084601c9080519060200190620000c492919062000483565b5082600a6000820151816000019080519060200190620000e692919062000483565b5060208201518160010160006101000a81548173ffffffffffffffffffffffffffffffffffffffff021916908373ffffffffffffffffffffffffffffffffffffffff16021790555060408201518160020160008201518160000190805190602001906200015592919062000483565b5060208201518160010190805190602001906200017492919062000483565b5060408201518160020190805190602001906200019392919062000483565b506060820151816003019080519060200190620001b292919062000483565b506080820151816004019080519060200190620001d192919062000483565b5050506060820151816007016000820151816000019080519060200190620001fb92919062000483565b5060208201518160010190805190602001906200021a92919062000483565b5060408201518160020190805190602001906200023992919062000483565b505050905050816000808201518160000190805190602001906200025f92919062000483565b5060208201518160010160006101000a81548173ffffffffffffffffffffffffffffffffffffffff021916908373ffffffffffffffffffffffffffffffffffffffff1602179055506040820151816002016000820151816000019080519060200190620002ce92919062000483565b506020820151816001019080519060200190620002ed92919062000483565b5060408201518160020190805190602001906200030c92919062000483565b5060608201518160030190805190602001906200032b92919062000483565b5060808201518160040190805190602001906200034a92919062000483565b50505060608201518160070160008201518160000190805190602001906200037492919062000483565b5060208201518160010190805190602001906200039392919062000483565b506040820151816002019080519060200190620003b292919062000483565b5050509050508060176000820151816000019080519060200190620003d992919062000483565b506020820151816001019080519060200190620003f892919062000483565b5060408201518160020190805190602001906200041792919062000483565b5060608201518160030190805190602001906200043692919062000483565b5060808201518160040190805190602001906200045592919062000483565b5090505083601660006101000a81548160ff0219169083151502179055505050505050505050505062000cbf565b828054620004919062000c8a565b90600052602060002090601f016020900481019282620004b5576000855562000501565b82601f10620004d057805160ff191683800117855562000501565b8280016001018555821562000501579182015b8281111562000500578251825591602001919060010190620004e3565b5b50905062000510919062000514565b5090565b5b808211156200052f57600081600090555060010162000515565b5090565b6000604051905090565b600080fd5b600080fd5b6000819050919050565b6200055c8162000547565b81146200056857600080fd5b50565b6000815190506200057c8162000551565b92915050565b60008115159050919050565b620005998162000582565b8114620005a557600080fd5b50565b600081519050620005b9816200058e565b92915050565b600080fd5b600080fd5b6000601f19601f8301169050919050565b7f4e487b7100000000000000000000000000000000000000000000000000000000600052604160045260246000fd5b6200061482620005c9565b810181811067ffffffffffffffff82111715620006365762000635620005da565b5b80604052505050565b60006200064b62000533565b905062000659828262000609565b919050565b600067ffffffffffffffff8211156200067c576200067b620005da565b5b6200068782620005c9565b9050602081019050919050565b60005b83811015620006b457808201518184015260208101905062000697565b83811115620006c4576000848401525b50505050565b6000620006e1620006db846200065e565b6200063f565b9050828152602081018484840111156200070057620006ff620005c4565b5b6200070d84828562000694565b509392505050565b600082601f8301126200072d576200072c620005bf565b5b81516200073f848260208601620006ca565b91505092915050565b600080fd5b600080fd5b600073ffffffffffffffffffffffffffffffffffffffff82169050919050565b60006200077f8262000752565b9050919050565b620007918162000772565b81146200079d57600080fd5b50565b600081519050620007b18162000786565b92915050565b600060a08284031215620007d057620007cf62000748565b5b620007dc60a06200063f565b9050600082015167ffffffffffffffff811115620007ff57620007fe6200074d565b5b6200080d8482850162000715565b600083015250602082015167ffffffffffffffff8111156200083457620008336200074d565b5b620008428482850162000715565b602083015250604082015167ffffffffffffffff8111156200086957620008686200074d565b5b620008778482850162000715565b604083015250606082015167ffffffffffffffff8111156200089e576200089d6200074d565b5b620008ac8482850162000715565b606083015250608082015167ffffffffffffffff811115620008d357620008d26200074d565b5b620008e18482850162000715565b60808301525092915050565b60006060828403121562000906576200090562000748565b5b6200091260606200063f565b9050600082015167ffffffffffffffff8111156200093557620009346200074d565b5b620009438482850162000715565b600083015250602082015167ffffffffffffffff8111156200096a57620009696200074d565b5b620009788482850162000715565b602083015250604082015167ffffffffffffffff8111156200099f576200099e6200074d565b5b620009ad8482850162000715565b60408301525092915050565b600060808284031215620009d257620009d162000748565b5b620009de60806200063f565b9050600082015167ffffffffffffffff81111562000a015762000a006200074d565b5b62000a0f8482850162000715565b600083015250602062000a2584828501620007a0565b602083015250604082015167ffffffffffffffff81111562000a4c5762000a4b6200074d565b5b62000a5a84828501620007b7565b604083015250606082015167ffffffffffffffff81111562000a815762000a806200074d565b5b62000a8f84828501620008ed565b60608301525092915050565b6000806000806000806000806000806101408b8d03121562000ac25762000ac16200053d565b5b600062000ad28d828e016200056b565b9a5050602062000ae58d828e01620005a8565b995050604062000af88d828e016200056b565b985050606062000b0b8d828e016200056b565b97505060808b015167ffffffffffffffff81111562000b2f5762000b2e62000542565b5b62000b3d8d828e0162000715565b96505060a08b015167ffffffffffffffff81111562000b615762000b6062000542565b5b62000b6f8d828e0162000715565b95505060c062000b828d828e01620005a8565b94505060e08b015167ffffffffffffffff81111562000ba65762000ba562000542565b5b62000bb48d828e01620009b9565b9350506101008b015167ffffffffffffffff81111562000bd95762000bd862000542565b5b62000be78d828e01620009b9565b9250506101208b015167ffffffffffffffff81111562000c0c5762000c0b62000542565b5b62000c1a8d828e01620007b7565b9150509295989b9194979a5092959850565b7f4e487b7100000000000000000000000000000000000000000000000000000000600052602160045260246000fd5b7f4e487b7100000000000000000000000000000000000000000000000000000000600052602260045260246000fd5b6000600282049050600182168062000ca357607f821691505b60208210810362000cb95762000cb862000c5b565b5b50919050565b60805160a05160c05160e05161010051612ed462000d19600039600061075001526000611dc801526000818161078d01526110f60152600081816107b301528181611da40152611e120152600061072c0152612ed46000f3fe608060405234801561001057600080fd5b506004361061010b5760003560e01c80636c51cd72116100a2578063b395fed611610071578063b395fed614610280578063c2c967c91461029e578063cf561a21146102bc578063d89998cf146102da578063dbae9bca146102f85761010b565b80636c51cd721461020157806398c5aafe146102235780639a33e30014610241578063a7394b281461025f5761010b565b80632daf311b116100de5780632daf311b146101865780632e7c0ada146101a45780634a608861146101c5578063645461f5146101e35761010b565b806309f174c3146101105780631798c6c91461012c5780631a8a3a401461014a5780632121dc7514610168575b600080fd5b61012a60048036038101906101259190612406565b610316565b005b61013461072a565b6040516101419190612468565b60405180910390f35b61015261074e565b60405161015f9190612468565b60405180910390f35b610170610772565b60405161017d919061249e565b60405180910390f35b61018e610785565b60405161019b919061249e565b60405180910390f35b6101ac6107ed565b6040516101bc949392919061268a565b60405180910390f35b6101cd610d57565b6040516101da91906126e4565b60405180910390f35b6101eb610d9a565b6040516101f891906126e4565b60405180910390f35b610209610e28565b60405161021a959493929190612706565b60405180910390f35b61022b6110f4565b604051610238919061249e565b60405180910390f35b610249611118565b60405161025691906126e4565b60405180910390f35b6102676111a6565b604051610277949392919061268a565b60405180910390f35b610288611710565b60405161029591906129ae565b60405180910390f35b6102a6611da2565b6040516102b39190612468565b60405180910390f35b6102c4611dc6565b6040516102d19190612468565b60405180910390f35b6102e2611dea565b6040516102ef9190612468565b60405180910390f35b610300611e48565b60405161030d9190612a47565b60405180910390f35b600060010160009054906101000a900473ffffffffffffffffffffffffffffffffffffffff1673ffffffffffffffffffffffffffffffffffffffff163373ffffffffffffffffffffffffffffffffffffffff16146103a9576040517f08c379a00000000000000000000000000000000000000000000000000000000081526004016103a090612ad4565b60405180910390fd5b601660009054906101000a900460ff1615610727576014600090806001815401808255809150506001900390600052602060002090600a020160009091909190915060008201816000019080546103ff90612b23565b61040a929190611e78565b506001820160009054906101000a900473ffffffffffffffffffffffffffffffffffffffff168160010160006101000a81548173ffffffffffffffffffffffffffffffffffffffff021916908373ffffffffffffffffffffffffffffffffffffffff1602179055506002820181600201600082018160000190805461048e90612b23565b610499929190611e78565b5060018201816001019080546104ae90612b23565b6104b9929190611e78565b5060028201816002019080546104ce90612b23565b6104d9929190611e78565b5060038201816003019080546104ee90612b23565b6104f9929190611e78565b50600482018160040190805461050e90612b23565b610519929190611e78565b5050506007820181600701600082018160000190805461053890612b23565b610543929190611e78565b50600182018160010190805461055890612b23565b610563929190611e78565b50600282018160020190805461057890612b23565b610583929190611e78565b5050505050806000808201518160000190805190602001906105a6929190611f05565b5060208201518160010160006101000a81548173ffffffffffffffffffffffffffffffffffffffff021916908373ffffffffffffffffffffffffffffffffffffffff1602179055506040820151816002016000820151816000019080519060200190610613929190611f05565b506020820151816001019080519060200190610630929190611f05565b50604082015181600201908051906020019061064d929190611f05565b50606082015181600301908051906020019061066a929190611f05565b506080820151816004019080519060200190610687929190611f05565b50505060608201518160070160008201518160000190805190602001906106af929190611f05565b5060208201518160010190805190602001906106cc929190611f05565b5060408201518160020190805190602001906106e9929190611f05565b5050509050507fe8176a51a789da4605a6bf9fc8146fdf034b0181042080626b1696e1218212458160405161071e9190612bc5565b60405180910390a15b50565b7f000000000000000000000000000000000000000000000000000000000000000081565b7f000000000000000000000000000000000000000000000000000000000000000081565b601660009054906101000a900460ff1681565b6000804290507f0000000000000000000000000000000000000000000000000000000000000000156107e4577f00000000000000000000000000000000000000000000000000000000000000008111156107e35760019150506107ea565b5b60009150505b90565b60008060000180546107fe90612b23565b80601f016020809104026020016040519081016040528092919081815260200182805461082a90612b23565b80156108775780601f1061084c57610100808354040283529160200191610877565b820191906000526020600020905b81548152906001019060200180831161085a57829003601f168201915b5050505050908060010160009054906101000a900473ffffffffffffffffffffffffffffffffffffffff1690806002016040518060a00160405290816000820180546108c290612b23565b80601f01602080910402602001604051908101604052809291908181526020018280546108ee90612b23565b801561093b5780601f106109105761010080835404028352916020019161093b565b820191906000526020600020905b81548152906001019060200180831161091e57829003601f168201915b5050505050815260200160018201805461095490612b23565b80601f016020809104026020016040519081016040528092919081815260200182805461098090612b23565b80156109cd5780601f106109a2576101008083540402835291602001916109cd565b820191906000526020600020905b8154815290600101906020018083116109b057829003601f168201915b505050505081526020016002820180546109e690612b23565b80601f0160208091040260200160405190810160405280929190818152602001828054610a1290612b23565b8015610a5f5780601f10610a3457610100808354040283529160200191610a5f565b820191906000526020600020905b815481529060010190602001808311610a4257829003601f168201915b50505050508152602001600382018054610a7890612b23565b80601f0160208091040260200160405190810160405280929190818152602001828054610aa490612b23565b8015610af15780601f10610ac657610100808354040283529160200191610af1565b820191906000526020600020905b815481529060010190602001808311610ad457829003601f168201915b50505050508152602001600482018054610b0a90612b23565b80601f0160208091040260200160405190810160405280929190818152602001828054610b3690612b23565b8015610b835780601f10610b5857610100808354040283529160200191610b83565b820191906000526020600020905b815481529060010190602001808311610b6657829003601f168201915b5050505050815250509080600701604051806060016040529081600082018054610bac90612b23565b80601f0160208091040260200160405190810160405280929190818152602001828054610bd890612b23565b8015610c255780601f10610bfa57610100808354040283529160200191610c25565b820191906000526020600020905b815481529060010190602001808311610c0857829003601f168201915b50505050508152602001600182018054610c3e90612b23565b80601f0160208091040260200160405190810160405280929190818152602001828054610c6a90612b23565b8015610cb75780601f10610c8c57610100808354040283529160200191610cb7565b820191906000526020600020905b815481529060010190602001808311610c9a57829003601f168201915b50505050508152602001600282018054610cd090612b23565b80601f0160208091040260200160405190810160405280929190818152602001828054610cfc90612b23565b8015610d495780601f10610d1e57610100808354040283529160200191610d49565b820191906000526020600020905b815481529060010190602001808311610d2c57829003601f168201915b505050505081525050905084565b606060176000016017600101601760020160176003016017600401604051602001610d86959493929190612cd2565b604051602081830303815290604052905090565b601c8054610da790612b23565b80601f0160208091040260200160405190810160405280929190818152602001828054610dd390612b23565b8015610e205780601f10610df557610100808354040283529160200191610e20565b820191906000526020600020905b815481529060010190602001808311610e0357829003601f168201915b505050505081565b6017806000018054610e3990612b23565b80601f0160208091040260200160405190810160405280929190818152602001828054610e6590612b23565b8015610eb25780601f10610e8757610100808354040283529160200191610eb2565b820191906000526020600020905b815481529060010190602001808311610e9557829003601f168201915b505050505090806001018054610ec790612b23565b80601f0160208091040260200160405190810160405280929190818152602001828054610ef390612b23565b8015610f405780601f10610f1557610100808354040283529160200191610f40565b820191906000526020600020905b815481529060010190602001808311610f2357829003601f168201915b505050505090806002018054610f5590612b23565b80601f0160208091040260200160405190810160405280929190818152602001828054610f8190612b23565b8015610fce5780601f10610fa357610100808354040283529160200191610fce565b820191906000526020600020905b815481529060010190602001808311610fb157829003601f168201915b505050505090806003018054610fe390612b23565b80601f016020809104026020016040519081016040528092919081815260200182805461100f90612b23565b801561105c5780601f106110315761010080835404028352916020019161105c565b820191906000526020600020905b81548152906001019060200180831161103f57829003601f168201915b50505050509080600401805461107190612b23565b80601f016020809104026020016040519081016040528092919081815260200182805461109d90612b23565b80156110ea5780601f106110bf576101008083540402835291602001916110ea565b820191906000526020600020905b8154815290600101906020018083116110cd57829003601f168201915b5050505050905085565b7f000000000000000000000000000000000000000000000000000000000000000081565b6015805461112590612b23565b80601f016020809104026020016040519081016040528092919081815260200182805461115190612b23565b801561119e5780601f106111735761010080835404028352916020019161119e565b820191906000526020600020905b81548152906001019060200180831161118157829003601f168201915b505050505081565b600a8060000180546111b790612b23565b80601f01602080910402602001604051908101604052809291908181526020018280546111e390612b23565b80156112305780601f1061120557610100808354040283529160200191611230565b820191906000526020600020905b81548152906001019060200180831161121357829003601f168201915b5050505050908060010160009054906101000a900473ffffffffffffffffffffffffffffffffffffffff1690806002016040518060a001604052908160008201805461127b90612b23565b80601f01602080910402602001604051908101604052809291908181526020018280546112a790612b23565b80156112f45780601f106112c9576101008083540402835291602001916112f4565b820191906000526020600020905b8154815290600101906020018083116112d757829003601f168201915b5050505050815260200160018201805461130d90612b23565b80601f016020809104026020016040519081016040528092919081815260200182805461133990612b23565b80156113865780601f1061135b57610100808354040283529160200191611386565b820191906000526020600020905b81548152906001019060200180831161136957829003601f168201915b5050505050815260200160028201805461139f90612b23565b80601f01602080910402602001604051908101604052809291908181526020018280546113cb90612b23565b80156114185780601f106113ed57610100808354040283529160200191611418565b820191906000526020600020905b8154815290600101906020018083116113fb57829003601f168201915b5050505050815260200160038201805461143190612b23565b80601f016020809104026020016040519081016040528092919081815260200182805461145d90612b23565b80156114aa5780601f1061147f576101008083540402835291602001916114aa565b820191906000526020600020905b81548152906001019060200180831161148d57829003601f168201915b505050505081526020016004820180546114c390612b23565b80601f01602080910402602001604051908101604052809291908181526020018280546114ef90612b23565b801561153c5780601f106115115761010080835404028352916020019161153c565b820191906000526020600020905b81548152906001019060200180831161151f57829003601f168201915b505050505081525050908060070160405180606001604052908160008201805461156590612b23565b80601f016020809104026020016040519081016040528092919081815260200182805461159190612b23565b80156115de5780601f106115b3576101008083540402835291602001916115de565b820191906000526020600020905b8154815290600101906020018083116115c157829003601f168201915b505050505081526020016001820180546115f790612b23565b80601f016020809104026020016040519081016040528092919081815260200182805461162390612b23565b80156116705780601f1061164557610100808354040283529160200191611670565b820191906000526020600020905b81548152906001019060200180831161165357829003601f168201915b5050505050815260200160028201805461168990612b23565b80601f01602080910402602001604051908101604052809291908181526020018280546116b590612b23565b80156117025780601f106116d757610100808354040283529160200191611702565b820191906000526020600020905b8154815290600101906020018083116116e557829003601f168201915b505050505081525050905084565b6060600a60010160009054906101000a900473ffffffffffffffffffffffffffffffffffffffff1673ffffffffffffffffffffffffffffffffffffffff163373ffffffffffffffffffffffffffffffffffffffff16146117a5576040517f08c379a000000000000000000000000000000000000000000000000000000000815260040161179c90612dbb565b60405180910390fd5b6014805480602002602001604051908101604052809291908181526020016000905b82821015611d9957838290600052602060002090600a02016040518060800160405290816000820180546117fa90612b23565b80601f016020809104026020016040519081016040528092919081815260200182805461182690612b23565b80156118735780601f1061184857610100808354040283529160200191611873565b820191906000526020600020905b81548152906001019060200180831161185657829003601f168201915b505050505081526020016001820160009054906101000a900473ffffffffffffffffffffffffffffffffffffffff1673ffffffffffffffffffffffffffffffffffffffff1673ffffffffffffffffffffffffffffffffffffffff168152602001600282016040518060a00160405290816000820180546118f290612b23565b80601f016020809104026020016040519081016040528092919081815260200182805461191e90612b23565b801561196b5780601f106119405761010080835404028352916020019161196b565b820191906000526020600020905b81548152906001019060200180831161194e57829003601f168201915b5050505050815260200160018201805461198490612b23565b80601f01602080910402602001604051908101604052809291908181526020018280546119b090612b23565b80156119fd5780601f106119d2576101008083540402835291602001916119fd565b820191906000526020600020905b8154815290600101906020018083116119e057829003601f168201915b50505050508152602001600282018054611a1690612b23565b80601f0160208091040260200160405190810160405280929190818152602001828054611a4290612b23565b8015611a8f5780601f10611a6457610100808354040283529160200191611a8f565b820191906000526020600020905b815481529060010190602001808311611a7257829003601f168201915b50505050508152602001600382018054611aa890612b23565b80601f0160208091040260200160405190810160405280929190818152602001828054611ad490612b23565b8015611b215780601f10611af657610100808354040283529160200191611b21565b820191906000526020600020905b815481529060010190602001808311611b0457829003601f168201915b50505050508152602001600482018054611b3a90612b23565b80601f0160208091040260200160405190810160405280929190818152602001828054611b6690612b23565b8015611bb35780601f10611b8857610100808354040283529160200191611bb3565b820191906000526020600020905b815481529060010190602001808311611b9657829003601f168201915b505050505081525050815260200160078201604051806060016040529081600082018054611be090612b23565b80601f0160208091040260200160405190810160405280929190818152602001828054611c0c90612b23565b8015611c595780601f10611c2e57610100808354040283529160200191611c59565b820191906000526020600020905b815481529060010190602001808311611c3c57829003601f168201915b50505050508152602001600182018054611c7290612b23565b80601f0160208091040260200160405190810160405280929190818152602001828054611c9e90612b23565b8015611ceb5780601f10611cc057610100808354040283529160200191611ceb565b820191906000526020600020905b815481529060010190602001808311611cce57829003601f168201915b50505050508152602001600282018054611d0490612b23565b80601f0160208091040260200160405190810160405280929190818152602001828054611d3090612b23565b8015611d7d5780601f10611d5257610100808354040283529160200191611d7d565b820191906000526020600020905b815481529060010190602001808311611d6057829003601f168201915b50505050508152505081525050815260200190600101906117c7565b50505050905090565b7f000000000000000000000000000000000000000000000000000000000000000081565b7f000000000000000000000000000000000000000000000000000000000000000081565b600080611df5610785565b90508015611e07576000915050611e45565b6000429050611e40817f0000000000000000000000000000000000000000000000000000000000000000611e3b9190612e0a565b611e5b565b925050505b90565b601d60009054906101000a900460ff1681565b6000806201518090508083611e709190612e6d565b915050919050565b828054611e8490612b23565b90600052602060002090601f016020900481019282611ea65760008555611ef4565b82601f10611eb75780548555611ef4565b82800160010185558215611ef457600052602060002091601f016020900482015b82811115611ef3578254825591600101919060010190611ed8565b5b509050611f019190611f8b565b5090565b828054611f1190612b23565b90600052602060002090601f016020900481019282611f335760008555611f7a565b82601f10611f4c57805160ff1916838001178555611f7a565b82800160010185558215611f7a579182015b82811115611f79578251825591602001919060010190611f5e565b5b509050611f879190611f8b565b5090565b5b80821115611fa4576000816000905550600101611f8c565b5090565b6000604051905090565b600080fd5b600080fd5b600080fd5b6000601f19601f8301169050919050565b7f4e487b7100000000000000000000000000000000000000000000000000000000600052604160045260246000fd5b61200a82611fc1565b810181811067ffffffffffffffff8211171561202957612028611fd2565b5b80604052505050565b600061203c611fa8565b90506120488282612001565b919050565b600080fd5b600080fd5b600080fd5b600067ffffffffffffffff82111561207757612076611fd2565b5b61208082611fc1565b9050602081019050919050565b82818337600083830152505050565b60006120af6120aa8461205c565b612032565b9050828152602081018484840111156120cb576120ca612057565b5b6120d684828561208d565b509392505050565b600082601f8301126120f3576120f2612052565b5b813561210384826020860161209c565b91505092915050565b600073ffffffffffffffffffffffffffffffffffffffff82169050919050565b60006121378261210c565b9050919050565b6121478161212c565b811461215257600080fd5b50565b6000813590506121648161213e565b92915050565b600060a082840312156121805761217f611fbc565b5b61218a60a0612032565b9050600082013567ffffffffffffffff8111156121aa576121a961204d565b5b6121b6848285016120de565b600083015250602082013567ffffffffffffffff8111156121da576121d961204d565b5b6121e6848285016120de565b602083015250604082013567ffffffffffffffff81111561220a5761220961204d565b5b612216848285016120de565b604083015250606082013567ffffffffffffffff81111561223a5761223961204d565b5b612246848285016120de565b606083015250608082013567ffffffffffffffff81111561226a5761226961204d565b5b612276848285016120de565b60808301525092915050565b60006060828403121561229857612297611fbc565b5b6122a26060612032565b9050600082013567ffffffffffffffff8111156122c2576122c161204d565b5b6122ce848285016120de565b600083015250602082013567ffffffffffffffff8111156122f2576122f161204d565b5b6122fe848285016120de565b602083015250604082013567ffffffffffffffff8111156123225761232161204d565b5b61232e848285016120de565b60408301525092915050565b6000608082840312156123505761234f611fbc565b5b61235a6080612032565b9050600082013567ffffffffffffffff81111561237a5761237961204d565b5b612386848285016120de565b600083015250602061239a84828501612155565b602083015250604082013567ffffffffffffffff8111156123be576123bd61204d565b5b6123ca8482850161216a565b604083015250606082013567ffffffffffffffff8111156123ee576123ed61204d565b5b6123fa84828501612282565b60608301525092915050565b60006020828403121561241c5761241b611fb2565b5b600082013567ffffffffffffffff81111561243a57612439611fb7565b5b6124468482850161233a565b91505092915050565b6000819050919050565b6124628161244f565b82525050565b600060208201905061247d6000830184612459565b92915050565b60008115159050919050565b61249881612483565b82525050565b60006020820190506124b3600083018461248f565b92915050565b600081519050919050565b600082825260208201905092915050565b60005b838110156124f35780820151818401526020810190506124d8565b83811115612502576000848401525b50505050565b6000612513826124b9565b61251d81856124c4565b935061252d8185602086016124d5565b61253681611fc1565b840191505092915050565b61254a8161212c565b82525050565b600082825260208201905092915050565b600061256c826124b9565b6125768185612550565b93506125868185602086016124d5565b61258f81611fc1565b840191505092915050565b600060a08301600083015184820360008601526125b78282612561565b915050602083015184820360208601526125d18282612561565b915050604083015184820360408601526125eb8282612561565b915050606083015184820360608601526126058282612561565b9150506080830151848203608086015261261f8282612561565b9150508091505092915050565b600060608301600083015184820360008601526126498282612561565b915050602083015184820360208601526126638282612561565b9150506040830151848203604086015261267d8282612561565b9150508091505092915050565b600060808201905081810360008301526126a48187612508565b90506126b36020830186612541565b81810360408301526126c5818561259a565b905081810360608301526126d9818461262c565b905095945050505050565b600060208201905081810360008301526126fe8184612508565b905092915050565b600060a08201905081810360008301526127208188612508565b905081810360208301526127348187612508565b905081810360408301526127488186612508565b9050818103606083015261275c8185612508565b905081810360808301526127708184612508565b90509695505050505050565b600081519050919050565b600082825260208201905092915050565b6000819050602082019050919050565b6127b18161212c565b82525050565b600060a08301600083015184820360008601526127d48282612561565b915050602083015184820360208601526127ee8282612561565b915050604083015184820360408601526128088282612561565b915050606083015184820360608601526128228282612561565b9150506080830151848203608086015261283c8282612561565b9150508091505092915050565b600060608301600083015184820360008601526128668282612561565b915050602083015184820360208601526128808282612561565b9150506040830151848203604086015261289a8282612561565b9150508091505092915050565b600060808301600083015184820360008601526128c48282612561565b91505060208301516128d960208601826127a8565b50604083015184820360408601526128f182826127b7565b9150506060830151848203606086015261290b8282612849565b9150508091505092915050565b600061292483836128a7565b905092915050565b6000602082019050919050565b60006129448261277c565b61294e8185612787565b93508360208202850161296085612798565b8060005b8581101561299c578484038952815161297d8582612918565b94506129888361292c565b925060208a01995050600181019050612964565b50829750879550505050505092915050565b600060208201905081810360008301526129c88184612939565b905092915050565b7f4e487b7100000000000000000000000000000000000000000000000000000000600052602160045260246000fd5b60038110612a1057612a0f6129d0565b5b50565b6000819050612a21826129ff565b919050565b6000612a3182612a13565b9050919050565b612a4181612a26565b82525050565b6000602082019050612a5c6000830184612a38565b92915050565b7f546869732066756e6374696f6e206973207265737472696374656420746f207460008201527f686520636f6e7472616374277320686f6c646572000000000000000000000000602082015250565b6000612abe6034836124c4565b9150612ac982612a62565b604082019050919050565b60006020820190508181036000830152612aed81612ab1565b9050919050565b7f4e487b7100000000000000000000000000000000000000000000000000000000600052602260045260246000fd5b60006002820490506001821680612b3b57607f821691505b602082108103612b4e57612b4d612af4565b5b50919050565b60006080830160008301518482036000860152612b718282612561565b9150506020830151612b8660208601826127a8565b5060408301518482036040860152612b9e82826127b7565b91505060608301518482036060860152612bb88282612849565b9150508091505092915050565b60006020820190508181036000830152612bdf8184612b54565b905092915050565b600081905092915050565b60008190508160005260206000209050919050565b60008154612c1481612b23565b612c1e8186612be7565b94506001821660008114612c395760018114612c4a57612c7d565b60ff19831686528186019350612c7d565b612c5385612bf2565b60005b83811015612c7557815481890152600182019150602081019050612c56565b838801955050505b50505092915050565b7f2000000000000000000000000000000000000000000000000000000000000000600082015250565b6000612cbc600183612be7565b9150612cc782612c86565b600182019050919050565b6000612cde8288612c07565b9150612ce982612caf565b9150612cf58287612c07565b9150612d0082612caf565b9150612d0c8286612c07565b9150612d1782612caf565b9150612d238285612c07565b9150612d2e82612caf565b9150612d3a8284612c07565b91508190509695505050505050565b7f546869732066756e6374696f6e206973207265737472696374656420746f207460008201527f68652077617272616e747927732070726f766964657200000000000000000000602082015250565b6000612da56036836124c4565b9150612db082612d49565b604082019050919050565b60006020820190508181036000830152612dd481612d98565b9050919050565b7f4e487b7100000000000000000000000000000000000000000000000000000000600052601160045260246000fd5b6000612e158261244f565b9150612e208361244f565b925082821015612e3357612e32612ddb565b5b828203905092915050565b7f4e487b7100000000000000000000000000000000000000000000000000000000600052601260045260246000fd5b6000612e788261244f565b9150612e838361244f565b925082612e9357612e92612e3e565b5b82820490509291505056fea2646970667358221220e5b7bd8ffcfaa2fb90c3be205f609b858b19ca63565eb0ccac7f8afc644cb18a64736f6c634300080d0033",
  "immutableReferences": {
    "49": [
      {
        "length": 32,
        "start": 1836
      }
    ],
    "51": [
      {
        "length": 32,
        "start": 1971
      },
      {
        "length": 32,
        "start": 7588
      },
      {
        "length": 32,
        "start": 7698
      }
    ],
    "53": [
      {
        "length": 32,
        "start": 1933
      },
      {
        "length": 32,
        "start": 4342
      }
    ],
    "55": [
      {
        "length": 32,
        "start": 7624
      }
    ],
    "59": [
      {
        "length": 32,
        "start": 1872
      }
    ]
  },
  "source": "// SPDX-License-Identifier: GPL-3.0\r\n//The pragma command means \"additional information that only the compiler cares about\", \r\n//while the caret symbol (^) means \"the version indicated or higher\".\r\npragma solidity ^0.8.0;\r\n//practice for using the openzeppelin lib https://docs.openzeppelin.com/learn/developing-smart-contracts\r\n//is Context import \"@openzeppelin/contracts/GSN/Context.sol\";\r\n\r\n\r\ncontract BaseWarrantySmartContract {\r\n    struct Party { \r\n        //a struct representing both the contractor and client\r\n        string name; \r\n        address partyAddress;\r\n        Location physicalLocation;\r\n        ContactInformation contactInfo;\r\n    }\r\n    struct Location {\r\n        //a struct for full addresses\r\n        string streetAddressLine1;\r\n        string streetAddressLine2;\r\n        string city;\r\n        string state;\r\n        string postalCode;\r\n    }\r\n    struct ContactInformation {\r\n        //a struct for a party's contact info\r\n        string email;\r\n        string phoneMobile;\r\n        string phoneHome;\r\n    }\r\n    Party public warrantyHolder;    //the client\r\n    Party public  warrantyProvider; //the contractor\r\n    Party[] previousHolders;\r\n    string public projectName;\r\n    bool public isTransferable;\r\n    Location public locationOfWork;\r\n    uint public immutable dateOfWorkCompletion; // in seconds since 1970\r\n    uint public immutable warrantyExpirationDate;//seconds since unix epoch\r\n    bool public immutable warrantyExpires;\r\n    uint public immutable numberOfDaysToCorrect;//\tNumber of days contractor has to correct defective work before paying charges\r\n    string public descriptionOfProject;\r\n    uint256 public immutable warrantyStartDate;\r\n    enum WarrantyState { INACTIVE, ACTIVE, VOID }\r\n    WarrantyState public stateOfWarranty;\r\n    event CurrentHolderChanged(Party _newOwner);\r\n\r\n    constructor(uint _warrantyExpirationDate, //date in seconds past epoch\r\n                bool _warrantyExpires,\r\n                uint _numberOfDaysToCorrect,\r\n                uint _workCompleted, //date in seconds past epoch\r\n                string memory _projectName,\r\n                string memory _description,\r\n                bool _transferable,\r\n                Party memory _warrantyProvider,\r\n                Party memory _warrantyHolder,\r\n                Location memory _location\r\n    ) {\r\n        dateOfWorkCompletion = _workCompleted;\r\n        warrantyStartDate = block.timestamp;\r\n        warrantyExpires = _warrantyExpires;\r\n        warrantyExpirationDate = _warrantyExpirationDate;\r\n        stateOfWarranty = WarrantyState.ACTIVE;\r\n        numberOfDaysToCorrect = _numberOfDaysToCorrect;\r\n        projectName = _projectName;\r\n        descriptionOfProject = _description;\r\n        warrantyProvider = _warrantyProvider;\r\n        warrantyHolder = _warrantyHolder;\r\n        locationOfWork = _location;\r\n        isTransferable = _transferable;\r\n    }\r\n\r\n    function checkIfExpired() public view returns(bool) {\r\n        uint currentTime = block.timestamp;\r\n        if (warrantyExpires) {\r\n            if (currentTime > warrantyExpirationDate) {\r\n                return true;\r\n            }        \r\n        }\r\n        return false;\r\n    }\r\n\r\n    function getDaysUntilExpiration() public view returns(uint) {\r\n        //view =  the function only reads the state\r\n        bool isExpired = checkIfExpired();\r\n        if (isExpired) {\r\n            return 0;\r\n        }\r\n        else {\r\n            uint currentTime = block.timestamp;\r\n            return convertSecondsToDays(warrantyExpirationDate - currentTime);\r\n        }\r\n    }\r\n\r\n    function convertSecondsToDays(uint secondsToConvert) internal pure returns(uint) {\r\n        //internal the contract and its derivatives can call the function\r\n        //pure: the function neither reads nor writes to the state\r\n        uint day = 1 days;//amount of seconds in a day\r\n        return secondsToConvert/day;\r\n    }\r\n\r\n    function getLocationAsString() public view returns (string memory) {\r\n        return string(abi.encodePacked(locationOfWork.streetAddressLine1, \" \",\r\n        locationOfWork.streetAddressLine2, \" \",\r\n        locationOfWork.city, \" \",\r\n        locationOfWork.state, \" \",\r\n        locationOfWork.postalCode));\r\n    }\r\n\r\n    modifier holderOnly() {\r\n    require(\r\n      msg.sender == warrantyHolder.partyAddress,\r\n      \"This function is restricted to the contract's holder\"\r\n    );\r\n    _;\r\n  }\r\n\r\n    modifier providerOnly() {\r\n    require(\r\n      msg.sender == warrantyProvider.partyAddress,\r\n      \"This function is restricted to the warranty's provider\"\r\n    );\r\n    _;\r\n  }\r\n    function transferWarrantyToAnotherParty(Party memory newParty)\r\n    external holderOnly {\r\n        //external =  anyone but the contract can call the function. Using the external type instead of public can have a performance boost and potentially save a lot of gas\r\n        //require(msg.sender == warrantyProvider.partyAddress);//should require the by party's permission\r\n        if (isTransferable){\r\n            previousHolders.push(warrantyHolder);\r\n            warrantyHolder = newParty; \r\n            emit CurrentHolderChanged(newParty);\r\n        }\r\n    }\r\n\r\n    function getPreviousHolders() \r\n    external view providerOnly \r\n    returns (Party[] memory) {\r\n        //external =  anyone but the contract can call the function. Using the external type instead of public can have a performance boost and potentially save a lot of gas\r\n        //require(msg.sender == warrantyProvider.partyAddress);//should require the by party's permission\r\n        return previousHolders;\r\n    }\r\n}",
  "sourcePath": "C:\\Users\\lritter\\source\\repos\\plural-sight\\blockchain\\contrator_keeper\\warranty_truffle_project\\contracts\\BaseWarrantySmartContract.sol",
  "compiler": {
    "name": "solc",
    "version": "0.8.13+commit.abaa5c0e.Emscripten.clang"
  },
  "schemaVersion": "3.4.6",
  "updatedAt": "2022-04-24T13:31:59.374Z",
  "devdoc": {
    "kind": "dev",
    "methods": {},
    "version": 1
  },
  "userdoc": {
    "kind": "user",
    "methods": {},
    "version": 1
  }
}